S014000046726565646F6D5F416363656C2E6865787F
S11300000030002049100000450C0000510C000095
S1130010510C0000510C0000510C0000510C000068
S1130020510C0000510C0000510C0000510C000058
S1130030510C0000510C0000510C0000510C000048
S1130040510C0000510C0000510C0000510C000038
S1130050510C0000510C0000510C0000510C000028
S1130060F9040000510C0000510C0000510C000078
S1130070510C0000510C0000510C0000510C000008
S1130080510C0000510C0000510C0000510C0000F8
S1130090510C0000510C0000510C0000510C0000E8
S11300A0510C0000510C0000510C0000510C0000D8
S11300B0510C0000510C0000510C0000510C0000C8
S1130410002934D00123002210B488422CD30124B3
S11304202407A14204D2814202D209011B01F8E748
S1130430E400A14204D2814202D249005B00F8E701
S1130440884201D3401A1A434C08A04202D3001B2D
S11304505C0822438C08A04202D3001B9C08224360
S1130460CC08A04202D3001BDC082243002803D09E
S11304701B0901D00909E3E7101C10BC70470028D0
S113048001D00020C04307B4024802A140180290E2
S113049003BDC046190000000029F0D003B5FFF7E2
S11304A0B9FF0EBC4243891A1847C0467047C0467C
S11304B080B500AF034B9B68181C00F007FDBD46D8
S11304C080BDC04600F0FF1F80B500AF034B5B68E2
S11304D0181C00F049FDBD4680BDC04600F0FF1F5A
S11304E080B500AF034B1B68181C00F08DFDBD46A2
S11304F080BDC04600F0FF1F90B583B000AFAA4B8B
S11305001B683B60BB1D00221A80A84BDB78DCB261
S1130510A64BA64AD278D2B2D2B212218A43D1B221
S1130520E2B20A43D2B2D2B2DA70A04B9B78DBB209
S11305301A1C2023134000D1FFE09C4B9B78DBB2B4
S11305401A1C1023134000D1B6E0221C01231340CF
S11305502AD0964B954A9278D2B220218A43D2B2BD
S11305609A70924B914A9278D2B210218A43D2B2B5
S11305709A703B6800229A813B680022DA803B68CB
S11305801B7801229343DAB23B681A703B681B78EC
S113059006221343DAB23B681A70BB1DBA1D1288D7
S11305A008210A431A80EAE03B681B781A1C0223DC
S11305B0134000D174E03B689B89002B0ED03B684C
S11305C09B89013B9AB23B689A81784A3B681B69D4
S11305D0197811715A1C3B681A61D0E03B68DB88BA
S11305E0002B3CD03B681B781A1C042313401FD0FB
S11305F03B68DB88012B08D16C4B6C4A9278D2B2F1
S113060008210A43D2B29A7007E0684B674A92788D
S1130610D2B208218A43D2B29A70644B634A927868
S1130620D2B210218A43D2B29A70604B1B79A6E0F1
S11306305E4B5E4A9278D2B204210A43D2B29A70D7
S11306405A4B3A68527901210A43D2B21A713B6873
S11306501B7804221343DAB23B681A708FE03B68BC
S11306601B7801229343DAB23B681A703B685B78CB
S1130670012B0FD14D4B4D4A9278D2B220218A439F
S1130680D2B29A70494B494A9278D2B210218A4325
S1130690D2B29A703B685B69181C00F003FE6EE0EE
S11306A0424B3A6812791A713B681B780222134351
S11306B0DAB23B681A7062E03B68DB88013B9AB2AD
S11306C03B68DA803B68DB88002B0CD03B68DB8816
S11306D0012B1FD1354B354A9278D2B208210A43F7
S11306E0D2B29A7016E03B681B7801229343DAB2C7
S11306F03B681A702D4B2D4A9278D2B220218A433E
S1130700D2B29A70294B294A9278D2B208218A43EC
S1130710D2B29A703B689B68244A1279D2B21A709A
S11307205A1C3B689A603B68DB88002B27D13B68E6
S11307305B69181C00F0C2FD21E0221C1023134049
S11307401DD03B6800229A813B680022DA803B6816
S113075001225A703B681B7801229343DAB23B684A
S11307601A70124B114A9278D2B210218A43D2B233
S11307709A70BB1DBA1D128804210A431A80BB1D3E
S11307801B88002B0CD03B685A88BB1D1B88134365
S11307909AB23B685A803B685B69181C00F09AFD6A
S11307A0BD4603B090BDC04628F0FF1F0060064060
S11307B080B584B000AF78603B4BFB60FB687A681F
S11307C05A613A4BFA681A60FB6820221A70FB6877
S11307D03A221A71FB6801225A70FB680022DA80FF
S11307E0FB6800229A81FB6800225A80304A304913
S11307F0304BCB58402119432E4BD1502E4B002265
S11308009A702D4B40229A712B4B0222DA702B4B9B
S11308102A4A516E2A4A0A40A021C9000A435A664C
S1130820264B264A116E264A0A40A021C9000A43D3
S11308301A66244A2349C2239B00CB58FF218B43C9
S113084080211943C2239B00D1501E4B1D4A1268BC
S1130850802149000A431A60174B00225A71164B33
S113086000229A71144B08221A72134B00225A70F8
S1130870114B114A9278D2B2D2B2802149420A4332
S1130880D2B2D2B29A700C4B0B4A9278D2B24021B7
S11308900A43D2B29A700C4BFA68DA60FB68181CEF
S11308A0BD4604B080BDC04610F0FF1F28F0FF1FF6
S11308B000700440341000000060064000D0044082
S11308C0FFF8FFFE00E100E000F0FF1F80B582B0FA
S11308D000AF7860094B00229A70094B0022DA605D
S11308E0084A0849084BCB584021181C8843011C6E
S11308F0054BD150BD4602B080BDC04600600640E5
S113090000F0FF1F007004403410000080B586B072
S113091000AFF860B960111C1A1CBB1D19807B1D47
S11309201A70FB687B61BB1D1B88002B01D100235F
S1130930B0E07B695B78012B12D1584BDB78DBB2DA
S11309401A1C2023134009D17B691B781A1C01232C
S1130950134003D17B699B89002B0DD0082399E0B8
S11309607B691B781A1C0123134003D17B699B8983
S1130970002B01D008238DE03B1C1333EFF31080D0
S113098072B61870464B1B78DBB20133DBB2444AB3
S1130990191C1170012B04D13B1C13331A78414BE1
S11309A01A707B691B7801221343DAB27B691A70CF
S11309B07B69BA681A617B69BA1D12889A817B695E
S11309C07A1D12785A70354B344A9278D2B2D2B228
S11309D010210A43D2B2D2B29A70304B9B78DBB268
S11309E01A1C2023134008D02C4B2C4A9278D2B2E4
S11309F004210A43D2B29A7009E0284B274A92781C
S1130A00D2B2D2B220210A43D2B2D2B29A707B6956
S1130A101B781A1C202313400BD07B691B780622F9
S1130A201343DAB27B691A701C4B7A6912791A7112
S1130A3021E07B691B781A1C102313400BD07B69BF
S1130A401B7806229343DAB27B691A70134B7A69D6
S1130A5052791A710FE07B691B781A1C0823134022
S1130A6009D07B691B7802221343DAB27B691A70BE
S1130A700A4B00221A710A4B1B78DBB2013BDBB232
S1130A80074A191C1170002B03D1064B187880F308
S1130A9010880023181CBD4606B080BD00600640C7
S1130AA02CF0FF1F64F0FF1F80B586B000AFF86024
S1130AB0B960111C1A1CBB1D19807B1D1A70FB68C0
S1130AC07B61BB1D1B88002B01D10023B0E07B1D83
S1130AD01B78002B01D18123AAE07B691B781A1CA7
S1130AE00823134001D00923A2E07B695B78012B22
S1130AF012D1514BDB78DBB21A1C2023134009D1ED
S1130B007B691B781A1C0123134003D17B69DB88A2
S1130B10002B0DD008238BE07B691B781A1C012362
S1130B20134003D17B69DB88002B01D008237FE0CD
S1130B303B1C1333EFF3108072B618703F4B1B78D5
S1130B40DBB20133DBB23D4A191C1170012B04D115
S1130B503B1C13331A783A4B1A707B691B780122B9
S1130B601343DAB27B691A707B69BA689A607B694D
S1130B70BA1D1288DA807B697A1D12785A702E4B5E
S1130B802D4A9278D2B2D2B210210A43D2B2D2B252
S1130B909A70294B9B78DBB21A1C2023134008D08F
S1130BA0254B254A9278D2B204210A43D2B29A70D4
S1130BB009E0214B204A9278D2B2D2B220210A43D2
S1130BC0D2B2D2B29A707B691B781A1C20231340CC
S1130BD00ED07B691B7806221343DAB27B691A7044
S1130BE0154B7A69127901210A43D2B21A7110E0C5
S1130BF07B691B781A1C102313400AD07B691B786D
S1130C0006229343DAB27B691A700B4B7A695279E4
S1130C101A710A4B1B78DBB2013BDBB2074A191C81
S1130C201170002B03D1064B187880F31088002331
S1130C30181CBD4606B080BD006006402CF0FF1FA6
S1130C4064F0FF1F80B500AF00F028FBBD4680BDF7
S1130C5080B500AFFFBEBD4680BDC04680B500AFC5
S1130C60354A3649364BD150364A88235B01002138
S1130C70D150344A344BC0218902D150314A3149D0
S1130C80324BCB58D82189011943304BD150304BCA
S1130C909B78DBB21A1C0823134007D02C4B2C4A38
S1130CA09278D2B208210A43D2B29A70254A264BCE
S1130CB00021D150234A2349264BC958264B1940B9
S1130CC0244BD1501F4B1F4A1168244A0A401A6012
S1130CD01C4A1C491F4BC958214B0B408021490415
S1130CE019431C4BD1501F4B06221A701D4B002276
S1130CF05A701C4B1B4AD278D1B21F220A40D2B27E
S1130D00DA70194B80221A70164B00221A71154B97
S1130D1000225A71C046134B9B79DBB21A1C102374
S1130D201340F8D0C0460F4B9B79DBB21A1C0C233E
S1130D301340F8D1BD4680BD00E000E00000000093
S1130D40080D00000070044044100000381000003A
S1130D5000D0074004100000FFFFFEFFFFFFF3FF79
S1130D60FFFFFFFC004006400050064080B500AF86
S1130D70314B314A1169314A0A40E021C9000A4322
S1130D801A612F4B2E4A5279D2B21F218A43D2B212
S1130D905A712B4B2A4A1279D2B207218A43D2B212
S1130DA01A71284B274A1278D2B2D2B273218A43DD
S1130DB0D2B250210A43D2B2D2B21A70214B214A84
S1130DC05278D2B2D2B263218A43D2B240210A43CA
S1130DD0D2B2D2B25A701B4B1A4A9278D2B21921AB
S1130DE08A43D2B29A70184B00221A70124B124ADC
S1130DF0116D124A0A40E021C9000A431A65134AD8
S1130E001249C1239B00C958114B1940C1239B00AF
S1130E10D150002000F0B6F8FFF762FB002000F08C
S1130E2061F8FFF751FB002000F014F8FFF740FBD6
S1130E3062B6BD4680BDC04600900440FFF8FFFE88
S1130E4000F0074000D0074000E0074000E100E068
S1130E50FFFF00FF80B584B000AF7860104BFB60EB
S1130E60FB687A681A600F4B0E4A526902210A43E2
S1130E705A610C4B0B4A126802218A431A600A4BCE
S1130E80094A5168094A0A40802149000A435A60C4
S1130E90074BFA689A60FB68181CBD4604B080BD15
S1130EA030F0FF1FC0F00F4000C00440FFF8FFFE09
S1130EB000F0FF1F80B582B000AF7860024B0222C1
S1130EC09A60BD4602B080BDC0F00FF880B582B014
S1130ED000AF7860024B02225A60BD4602B080BD6A
S1130EE0C0F00FF880B584B000AF7860114BFB60A0
S1130EF0FB687A681A60104B0F4A52698021090313
S1130F000A435A610C4B0C4A11680C4A0A401A6095
S1130F100B4B0B4AD16C0B4A0A40802149000A430F
S1130F20DA64094BFA685A60FB68181CBD4604B0C1
S1130F3080BDC04634F0FF1F40F00F40FFFFF7FFB5
S1130F4000A00440FFF8FFFE00F0FF1F80B582B050
S1130F5000AF7860034B802212039A60BD4602B052
S1130F6080BDC04640F00FF880B582B000AF786015
S1130F70034B802212035A60BD4602B080BDC046B6
S1130F8040F00FF880B584B000AF7860114BFB607F
S1130F90FB687A681A60104B0F4A52698021C902B3
S1130FA00A435A610C4B0C4A11680C4A0A401A60F5
S1130FB00B4B0B4A916C0B4A0A40802149000A43AF
S1130FC09A64094BFA681A60FB68181CBD4604B0A1
S1130FD080BDC04638F0FF1F40F00F40FFFFFBFF0D
S1130FE000A00440FFF8FFFE00F0FF1F80B582B0B0
S1130FF000AF7860034B8022D2029A60BD4602B0F3
S113100080BDC04640F00FF880B582B000AF786074
S1131010034B8022D2025A60BD4602B080BDC04656
S113102040F00FF880B500AF054A064BD31A054AC5
S1131030101C00211A1C00F071F9BD4680BDC04689
S113104068F0FF1F00F0FF1F00F000FDFFF706FE31
S1131050FFF7E8FF00F02EFD00F0ACFC00F004FD0B
S1131060044B0020191C00F00DF8031C181C00F0A0
S113107039F9C0463CF0FF1F80B582B000AF7860FC
S1131080FEE7C04680B500AFFFF770FE00F08AF8B7
S1131090FEE7C04680B584B000AF3960FB1D011C7B
S11310A019703B1D1A80214B5A68FB1D101C191C1A
S11310B001220023FFF72AFC031C1A1C3B1C0F33DC
S11310C01A703B1C0F331B78002B01D01B2329E023
S11310D0C046164B5B78DBB2002BFAD0134B0022D0
S11310E05A70124B59683B1D1B883A68081C111C26
S11310F01A1C0123FFF7D8FC031C1A1C3B1C0F33DA
S11311001A703B1C0F331B78002B01D01B2309E002
S1131110C046064B1B78DBB2002BFAD0034B0022EF
S11311201A700023181CBD4604B080BD40F0FF1F98
S113113080B584B000AF0A1CFB1D011C1970BB1DD7
S11311401A703B1C0C33FA1D12781A703B1C0C33BA
S1131150BA1D12785A70124B5A683B1C0C33101C7F
S1131160191C02220123FFF7D1FB031C1A1C3B1C90
S11311700F331A703B1C0F331B78002B01D01B2339
S113118009E0C046064B5B78DBB2002BFAD0044B77
S113119000225A700023181CBD4604B080BDC0460E
S11311A040F0FF1F90B583B000AF394B1B68181C8B
S11311B0FFF71CFF364B5B68181CFFF7C7FE344B68
S11311C09B68181CFFF776FE324B181CFFF7F0FAE9
S11311D0021C304B5A60FC1D2A200321FFF7A8FF94
S11311E0031C2370FB1D1B78002B39D1FC1D2A4BDB
S11311F00120191C0322FFF74DFF031C2370264B0B
S11312001B785BB2322B05DD214B1B68181CFFF7E2
S1131210EDFE04E01E4B1B68181CFFF7F5FE1E4B89
S11312205B785BB2322B05DD194B5B68181CFFF74A
S11312308DFE04E0164B5B68181CFFF795FE164BF9
S11312409B785BB2322B05DD114B9B68181CFFF7B2
S113125031FECBE70E4B9B68181CFFF737FEC5E742
S11312600C4B5B68181CFFF731FB094B1B68181CFF
S1131270FFF7CAFE064B5B68181CFFF775FE044BAC
S11312809B68181CFFF722FEBD4603B090BDC04604
S113129000F0FF1F40F0FF1F48F0FF1F80B500AFB4
S11312A0BD4680BD80B584B000AF78607B68FB60CC
S11312B0FB6801225A70BD4604B080BD80B584B07D
S11312C000AF78607B68FB60FB6801221A70BD4642
S11312D004B080BD80B582B000AF7860BD4602B076
S11312E080BDC04638B5051C00F0A2FB00F086FBAB
S11312F0084C2368002B02D0984700202060064C3D
S11313002168002902D0884700222260281CFFF7A8
S1131310B3FE38BD4CF0FF1F50F0FF1F10B5041C86
S113132000F002F8201C10BD30B5C9B2031C1F2AFE
S113133031D944420323234005D0D21AC518017081
S11313400130A842FBD1002905D00D060C042C4322
S11313500B02214319435409031C002C0ED0251CF5
S1131360013D196059609960D960196159619961A9
S1131370D9612033002DF3D16301C318D006400F87
S113138007D0041C1D1C013C02C5002CFBD18000AD
S11313901B18032422409D18002A03D0197001331E
S11313A0AB42FBD130BD0000F0B589B001901F1CE9
S11313B00EAB0391079202901A78081C01990FACA6
S11313C001380026049225780670B14217D1119B8A
S11313D0B34214D1049B002B01D06F2D2FD0642D68
S11313E002D0692D00D0A8E0022F02D10398023860
S11313F09FE0012F00D0A0E00398023894E0692D0B
S11314000ED004D8582D16D0642D1CD108E0752DAB
S113141004D0782D0FD06F2D15D110E0002712E0E5
S1131420019A002A0FDA80242606B2420DD05142D6
S11314300191029109E000273E1C102407E00027D7
S11314403E1C082403E0002600E001260A24009044
S1131450002006900298211CFFF71EF802980591BF
S1131460211CFEF7D5FF059A0290092A01D83032D3
S113147005E0059A3732782D01D1059A5732009844
S1131480069B02990138D2B2009002700133002900
S113149001D00693DEE7011C082C0BD10498002828
S11314A008D0302A06D00B1C013B302200931A705E
S11314B0069B0233079802280FD1002E01D1002F7A
S11314C002D0109901391091109A1192102C04D164
S11314D00498002801D0023A119203990098119AB5
S11314E0091A8918164A914226DC0099CA181199DA
S11314F0121A8A4203DA013830220270F5E7102CFE
S11315000AD1049C002C07D0019B002B04D0421E5E
S11315103021023815700170002E02D001382D21BF
S113152008E0012F02D101382B2103E0022F04D15E
S113153001382021017000E0002009B0F0BDC04650
S1131540FD010000F0B5B64C1E1CA5446B460A9084
S11315500B913E3320210020197008920590089ABF
S11315601578002D00D1F9E10898252100F0FEF945
S11315700C90002811D1089800F007FA0599021C74
S113158008180590002A00D1E8E10B9808990A9EF2
S1131590B047002800D0E1E1CEE00C9F089C0599FB
S11315A03A1B8B180593002A0CD10C980C9A43789B
S11315B001321D1E252D0CD000270121BC460D979C
S11315C0069119E00B9808990A9DA8470028ECD1C8
S11315D0B2E00C9A00210232012408920791069489
S11315E03DE02B2B0BDC202B10D0232B00D0BAE0BA
S11315F001239C46013213782B2BF2D1ABE12D2B26
S113160000D1A5E1302B00D0ADE004E00D9D012D0B
S1131610F0D00220A0E1069C002CEBD00220069022
S1131620E8E737680436FB43D80F937802321C1C72
S1131630683C0021042C00D8C1E0DDB26E2B00D040
S1131640C7E0013208926E2D00D149E100D900E1D2
S1131650632D00D159E107D8252D00D0F3E010AC5B
S113166025700996012619E0642D00D0EEE0321DA4
S113167009923068032900D0F6E00799664600967F
S113168001950291039790A9069A0D9BFFF78CFE92
S1131690041E00D13FE1634F6F443E1A06980028B0
S11316A03CD02023022800D130236F463E373B70C4
S11316B022782B2A04D02D2A02D0371C202A0BD1C1
S11316C0371C302B08D10B98211C01220A9B984708
S11316D0002831D00134771E069902290ED1612DDC
S11316E001D0412D0AD1012F26DD0B98211C0222A5
S11316F00A9DA84700281FD0023F0234351C079ECC
S1131700B54209DA69460B983E3101220A9B984793
S1131710002811D00135F2E73E1C00E0351C002EF4
S113172003D10698002819D115E0211C0B98321C0E
S11317300A9CA0470028F4D10122554205950DE1E9
S113174069463F3120240B9801220A9F0C70B84748
S11317500028F1D00135079FBD42F1DB059A5319EA
S11317600593099EFBE6171C2A2B00D0E1E0341DEB
S113177036680796002E03DA734200250793069510
S11317807B780132261C284F0798B84200DDC2E05E
S11317902E2B11D153782A2B00D142E70132002796
S11317A01C1C303C092C05D80A214F4301323F1937
S11317B01378F5E701203AE70027381C37E71B4D7B
S11317C0295D1B4D2C57002C00D136E7537801328C
S11317D033E76E2B0ADC632B2CD002DC582B30D180
S11317E015E0642B13D0692B2BD110E0732B23D07D
S11317F009DC6F2B0BD0702B23D10123782508270C
S113180003219C461DE7752B01D0782B19D10028A4
S113181015D0069C022C00D013E70123069310E791
S1131820BCFDFFFF3F020000FD010000EE1A0000B6
S1131830E91A0000002804D1002902D101E7012798
S1131840FFE6FF25FDE6582D65D116E0692D62D12E
S11318500DE7732D23D002D86F2D5CD10DE0752DCB
S11318600BD0782D57D108E0022901D100B204E74A
S1131870012900D001E740B2FFE6341D0994306825
S1131880032906D0022901D180B202E0012900D146
S1131890C0B2079E6246009201950296F2E6346851
S11318A0311D0991002C00D12F4C6346002B07D029
S11318B026780134002800D1F0E6BE4237DCEDE69C
S11318C0002808D0201C61463A1C00F066F8002865
S11318D02DD0061BE2E6201C00F057F8061CDDE6BE
S11318E0351D09953468022907D003290AD0002937
S11318F000D036E70598206033E76F461421CB5BB0
S113190023802EE7059A22602BE73368301D10AC44
S113191009902370A6E60C9800F037F8059E021C87
S113192035180595002819D00B980C992FE63E1C04
S1131930B4E600240794191C3039092900D922E798
S1131940079D0A236B430132581807901378F2E776
S1131950002706974EE601200D904BE6059891244A
S1131960A400A544F0BDC046E81A000000B5C9B201
S11319700378421C002B03D08B4205D0101CF7E7E0
S11319804B4259414942084000BD00B5431E013352
S11319901A78002AFBD1181A00BD00B5C9B2821802
S11319A0904205D0037801308B42F9D1013800E030
S11319B0002000BD10B50B4C0B4B9C4202D001CC57
S11319C08047F9E7094C0A48844202D008CC98477A
S11319D0F9E7084C08498C4202D004CC9047F9E757
S11319E010BDC046F41A0000F41A0000F41A0000F6
S11319F0F41A0000F41A0000F41A000010B5084CA0
S1131A00084B9C4202D004CC9047F9E7064C0748A7
S1131A10844203D0043C21688847F8E710BDC046DF
S1131A20F41A0000F41A0000F41A0000F41A00007A
S1131A30054B10B51C68002C04D0A0686168884769
S1131A402468F8E710BDC04654F0FF1F054B181C6E
S1131A50002805D0854681B00020C043009001B025
S1131A60F746704700300020F746704700B58842BB
S1131A701FD0002A1DD00323194207D1184205D1D3
S1131A809A4203D908C9043A08C0F2E7012319426B
S1131A9009D1184207D19A4205D90B88023A03802A
S1131AA002310230E5E70B78013A0370013101306D
S1131AB0DFE700BD38B50B4D002D11D000242B19E4
S1131AC01968002906D02B1958689A68FFF7CEFFC9
S1131AD00C34F4E75A68002AF5D198680028F2D14A
S1131AE038BDC046F41A00000001000000010200E5
S1071AF000000300EB
S1131AF4F41A000000F0FF1F0000000000000000C2
S10B1B040000000000000000D5
S9031049A3
