:1000000000300020E907000049100000FD12000048
:10001000551000005510000055100000551000004C
:10002000551000005510000055100000551000003C
:10003000551000005510000055100000551000002C
:10004000551000005510000055100000551000001C
:10005000551000005510000055100000551000000C
:1000600055100000551000005510000055100000FC
:1000700055100000551000005510000055100000EC
:10008000551000009D19000055100000551000008B
:1000900055100000551000005510000055100000CC
:1000A00055100000551000005510000055100000BC
:1000B00055100000551000005510000055100000AC
:10040000FFFFFFFFFFFFFFFFFFFFFFFF7EFFFFFF7D
:1004100002B4714649084900095C49008E4402BC97
:100420007047C046002934D00123002210B488420E
:100430002CD301242407A14204D2814202D2090113
:100440001B01F8E7E400A14204D2814202D2490034
:100450005B00F8E7884201D3401A1A434C08A042D7
:1004600002D3001B5C0822438C08A04202D3001B6D
:100470009C082243CC08A04202D3001BDC08224384
:10048000002803D01B0901D00909E3E7101C10BCA8
:100490007047002801D00020C04307B4024802A1E1
:1004A0004018029003BDC046190000000029F0D09A
:1004B00003B5FFF7B9FF0EBC4243891A1847C0467F
:1004C0007047C04680B500AFBD4680BD80B582B0E4
:1004D00000AF78607B68181C00F0AEF8BD4602B033
:1004E00080BDC04680B582B000AF78607B68181CC4
:1004F00000F096F8BD4602B080BDC04690B587B00A
:1005000002AF3C1C0E3400F003F9031C23803A1D9B
:100510003B1C0E331B8805210091101C08211A1C5E
:10052000202301F0A5FB0120052101F051F83B1D1E
:10053000181C01F069F83C1C0C343B1C0E331B8862
:10054000181C162100F0C4F8031C23803A1D3B1C24
:100550000C331B8805210091101C08211A1C202334
:1005600001F086FB0220052101F032F83B1D181C2A
:1005700001F04AF83B1C0C331B88092B05D8194B9A
:100580009B68181C00F07EF904E0164B9B68181C51
:1005900000F086F93B1C0C331B88092B0AD93B1C45
:1005A0000C331B88642B05D80E4B1B69181C00F0FC
:1005B00097FC04E00B4B1B69181C00F09DFC3B1CD6
:1005C0000C331B88642B05D9064BDB68181C00F024
:1005D00039FC04E0034BDB68181C00F041FCBD460D
:1005E00005B090BD3CF0FF1F80B500AF00F0ACFD42
:1005F00000F0C8F800F0B0FF074B0120191C01F013
:1006000017F8064B0220191C01F012F8FFF776FFCD
:10061000322001F08BFBF9E7182F0000202F00009B
:1006200080B584B000AF78607B68FB60FB68032214
:100630001A72BD4604B080BD80B584B000AF78604A
:100640007B68FB60FB681B7ADBB2012B08D1FB687F
:100650005B68181C01F062F9FB6802221A7210E054
:10066000FB681B7ADBB2022B0BD1FB685A68FB6874
:100670000C33101C00211A1C01F05EF9FB680422E7
:100680001A72BD4604B080BD80B584B000AF021CB4
:10069000FB1D1A70FB1D1A78131C5B009B185B0076
:1006A0000A4A9B18FB60FB68181C6421FFF7BAFE1E
:1006B000031C1A1C131C1B019B1AFA68D31AFB603B
:1006C000FB689BB2181CBD4604B080BDF10C000055
:1006D00090B583B000AF0A1CBB1D011C19807B1DA7
:1006E0001A70BB1D1B886422141C5C437B1D1B7885
:1006F000181CFFF7C9FF031C201C191CFFF792FEF2
:10070000031C5B089BB2181CBD4603B090BDC046DD
:1007100080B582B000AF194B1B68181C01F078F847
:10072000C82001F0EDFA154B01221A72134B1B6819
:10073000181C01F05FF809E0104B1B7ADBB2032BA9
:1007400004D10E4B00221A72002313E00B4B1B7ACC
:10075000DBB2042BF0D1094BDB68FA229200534341
:10076000181C0749FFF75EFE031C1A1CBB1D1A80EC
:10077000BB1D1B88181CBD4602B080BD00F0FF1FCA
:100780003D0A000080B500AF0A4B00221A72094BE7
:100790000022DA60002000F0F7FF021C054B1A600F
:1007A000044B181C01F042F8021C024B5A60BD4673
:1007B00080BDC04600F0FF1F80B582B000AF7860FA
:1007C000FEE7C04680B500AF054A064BD31A054A7E
:1007D000101C00211A1C01F0DDFABD4680BDC04688
:1007E00094F0FF1F00F0FF1F02F086FB00F038FCC2
:1007F000FFF7E8FF02F05CFB02F0F6FA02F08AFB7A
:10080000044B0020191CFFF7EFFE031C181C01F01D
:10081000A5FAC04610F0FF1F80B584B000AF786025
:10082000124BFB60FB687A681A60114B104A5269E0
:100830008021C9020A435A610D4B0D4A1268111CEE
:100840000C4A0A401A600C4B0B4A926C111C0B4A62
:100850000A40802149000A439A64094BFA685A60A9
:10086000FB68181CBD4604B080BDC04614F0FF1FD5
:1008700040F00F40FFFFFBFF00A00440FFF8FFFE29
:100880003CF0FF1F80B582B000AF7860034B802240
:10089000D2029A60BD4602B080BDC04640F00FF85B
:1008A00080B582B000AF7860034B8022D2025A60DC
:1008B000BD4602B080BDC04640F00FF880B584B0A0
:1008C00000AF7860114BFB60FB687A681A60104BD0
:1008D0000F4A526910210A435A610D4B0C4A1268A3
:1008E00010218A431A600B4B0A4A1269111C0A4AEA
:1008F0000A40802149000A431A61084BFA681A62CB
:10090000FB68181CBD4604B080BDC04618F0FF1F30
:1009100000F00F4000900440FFF8FFFE3CF0FF1F86
:1009200080B582B000AF7860044B044A5269102150
:100930008A435A61BD4602B080BDC04600F00FF840
:1009400080B582B000AF7860044B044A5269102130
:100950000A435A61BD4602B080BDC04600F00FF8A0
:1009600080B584B000AF78600D4B5B691A1C102312
:10097000134006D10A4B1B691A1C10231340FB605D
:1009800005E0074B1B681A1C10231340FB60FB6833
:100990005A1E9341DBB2181CBD4604B080BDC04650
:1009A00000F00FF880B582B000AF78600A1CFB1C25
:1009B0001A70FB1C1B78002B03D0054B10225A60C9
:1009C00002E0034B10229A60BD4602B080BDC046D3
:1009D00000F00FF880B584B000AF7860114BFB6079
:1009E000FB687A681A60104B0F4A526920210A434B
:1009F0005A610D4B0C4A126820218A431A600B4B36
:100A00000A4A5269111C0A4A0A40802149000A43D5
:100A10005A61084BFA685A62FB68181CBD4604B05C
:100A200080BDC0461CF0FF1F00F00F400090044046
:100A3000FFF8FFFE3CF0FF1F80B582B000AF78608A
:100A4000044B044A526920218A435A61BD4602B0D0
:100A500080BDC04600F00FF880B582B000AF78606E
:100A6000044B044A526920210A435A61BD4602B030
:100A700080BDC04600F00FF880B584B000AF78604C
:100A80000D4B5B691A1C2023134006D10A4B1B69CE
:100A90001A1C20231340FB6005E0074B1B681A1C3F
:100AA00020231340FB60FB685A1E9341DBB2181CE5
:100AB000BD4604B080BDC04600F00FF880B582B0DE
:100AC00000AF78600A1CFB1C1A70FB1C1B78002B03
:100AD00003D0054B20225A6002E0034B20229A608B
:100AE000BD4602B080BDC04600F00FF880B584B0AE
:100AF00000AF7860124BFB60FB687A681A60114B9C
:100B0000104A5269802149000A435A610D4B0D4A2F
:100B10001268111C0C4A0A401A600C4B0B4A126AEC
:100B2000111C0B4A0A40802149000A431A62094BF2
:100B3000FA689A62FB68181CBD4604B080BDC046C6
:100B400020F0FF1F80F00F40FFFEFFFF00B00440C9
:100B5000FFF8FFFE3CF0FF1F80B582B000AF786069
:100B6000044B044A5269111C034A0A405A61BD46AB
:100B700002B080BD80F00FF8FFFEFFFF80B582B0AD
:100B800000AF7860044B044A5269802149000A434F
:100B90005A61BD4602B080BD80F00FF880B584B0C8
:100BA00000AF78600E4B5B691A1C80235B0013401A
:100BB00007D10B4B1B691A1C80235B001340FB60A1
:100BC00006E0074B1B681A1C80235B001340FB6088
:100BD000FB685A1E9341DBB2181CBD4604B080BDB1
:100BE00080F00FF880B582B000AF78600A1CFB1C63
:100BF0001A70FB1C1B78002B04D0064B802252007D
:100C00005A6003E0034B802252009A60BD4602B056
:100C100080BDC04680F00FF880B584B000AF78602A
:100C2000124BFB60FB687A681A60114B104A5269DC
:100C3000802189000A435A610D4B0D4A1268111C2C
:100C40000C4A0A401A600C4B0B4A526A111C0B4AA0
:100C50000A40802149000A435A62094BFA68DA6265
:100C6000FB68181CBD4604B080BDC04624F0FF1FC1
:100C700080F00F40FFFDFFFF00B00440FFF8FFFED3
:100C80003CF0FF1F80B582B000AF7860044B044A8F
:100C90005269111C034A0A405A61BD4602B080BD28
:100CA00080F00FF8FFFDFFFF80B582B000AF7860E5
:100CB000044B044A5269802189000A435A61BD46A7
:100CC00002B080BD80F00FF880B584B000AF7860CE
:100CD0000E4B5B691A1C80239B00134007D10B4B02
:100CE0001B691A1C80239B001340FB6006E0074B26
:100CF0001B681A1C80239B001340FB60FB685A1E74
:100D00009341DBB2181CBD4604B080BD80F00FF8E3
:100D100080B582B000AF78600A1CFB1C1A70FB1C07
:100D20001B78002B04D0064B802292005A6003E00F
:100D3000034B802292009A60BD4602B080BDC0463F
:100D400080F00FF880B584B000AF7860114BFB6085
:100D5000FB687A681A60104B0F4A526920210A43D7
:100D60005A610D4B0C4A126820218A431A600B4BC2
:100D70000A4A5269111C0A4A0A40802149000A4362
:100D80005A61084BFA685A61FB68181CBD4604B0EA
:100D900080BDC04628F0FF1FC0F00F4000C00440D7
:100DA000FFF8FFFE3CF0FF1F80B582B000AF786017
:100DB000024B20229A60BD4602B080BDC0F00FF801
:100DC00080B582B000AF7860024B20225A60BD46E9
:100DD00002B080BDC0F00FF880B584B000AF78607D
:100DE000124BFB60FB687A681A60114B104A52691B
:100DF000802109030A435A610D4B0D4A1268111CE8
:100E00000C4A0A401A600C4B0B4AD26C111C0B4A5C
:100E10000A40802149000A43DA64094BFA689A6063
:100E2000FB68181CBD4604B080BDC0462CF0FF1FF7
:100E300040F00F40FFFFF7FF00A00440FFF8FFFE67
:100E40003CF0FF1F80B582B000AF7860034B80227A
:100E500012039A60BD4602B080BDC04640F00FF854
:100E600080B582B000AF7860034B802212035A60D5
:100E7000BD4602B080BDC04640F00FF880B584B0DA
:100E800000AF7860114BFB60FB687A681A60104B0A
:100E90000F4A526902210A435A610D4B0C4A1268EB
:100EA00002218A431A600B4B0A4A5268111C0A4AF3
:100EB0000A40802149000A435A60084BFA681A61C7
:100EC000FB68181CBD4604B080BDC04630F0FF1F53
:100ED000C0F00F4000C00440FFF8FFFE3CF0FF1FD1
:100EE00080B582B000AF7860024B02229A60BD46A6
:100EF00002B080BDC0F00FF880B582B000AF78605E
:100F0000024B02225A60BD4602B080BDC0F00FF80D
:100F100080B584B000AF7860114BFB60FB687A68E5
:100F20001A60104B0F4A526901210A435A610D4B56
:100F30000C4A126801218A431A600B4B0A4A126854
:100F4000111C0A4A0A40802149000A431A60084BD2
:100F5000FA689A61FB68181CBD4604B080BDC046A3
:100F600034F0FF1FC0F00F4000C00440FFF8FFFE48
:100F70003CF0FF1F80B582B000AF7860024B0122C9
:100F80009A60BD4602B080BDC0F00FF880B582B057
:100F900000AF7860024B01225A60BD4602B080BDAE
:100FA000C0F00FF880B584B000AF7860124BFB60E2
:100FB000FB687A681A60114B104A526980218901D6
:100FC0000A435A610D4B0D4A1268111C0C4A0A4023
:100FD0001A600C4B0B4A526B111C0B4A0A408021C1
:100FE00049000A435A63094BFA68DA61FB68181C26
:100FF000BD4604B080BDC04638F0FF1F00F00F4072
:10100000FFDFFFFF00900440FFF8FFFE3CF0FF1FF2
:1010100080B582B000AF7860034B802292019A6065
:10102000BD4602B080BDC04600F00FF880B582B06A
:1010300000AF7860034B802292015A60BD4602B037
:1010400080BDC04600F00FF880B500AFFFF73AFA58
:10105000BD4680BD80B500AFFFBEBD4680BDC04669
:1010600080B500AF2D4A2E492E4BD1502E4A8823F1
:101070005B010021D1502C4A2B492C4BCB58F0213D
:1010800049011943294BD150274A294B0021D150FE
:10109000254A2549274BCB58191C274B1940254B6E
:1010A000D150214B204A1268C02109030A431A601B
:1010B0001D4A1D491F4BCB58191C204B0B4080214A
:1010C000490419431B4BD1501D4B06221A701C4B6F
:1010D00000225A701A4B1A4AD278D1B21F220A4003
:1010E000D2B2DA70174B80221A70154B00221A7197
:1010F000134B00225A71C046114B9B79DBB21A1C6C
:1011000010231340F8D0C0460D4B9B79DBB21A1C5C
:101110000C231340F8D1BD4680BDC04600E000E07E
:1011200000000000080D00000070044038100000AE
:101130004410000004100000FFFFFEFFFFFFFFFC53
:10114000004006400050064080B500AF3D4B3D4A90
:101150005279D2B21F218A43D2B25A71394B394ADD
:101160001279D2B207218A43D2B21A71364B364A6B
:101170001278D2B2D2B273218A43D2B250210A433A
:10118000D2B2D2B21A70304B2F4A5278D2B2D2B207
:1011900063218A43D2B240210A43D2B2D2B25A70FA
:1011A000294B294A9278D2B219218A43D2B29A7035
:1011B000264B00221A70264B254A126D111C254A17
:1011C0000A40E021C9000A431A65234A2249C12383
:1011D0009B00CB58191C214B1940C1239B00D150B7
:1011E0000020FFF719FB1E4B9B68181CFFF758FBEC
:1011F0000020FFF7F1FD1A4BDB68181CFFF730FEEB
:101200000020FFF73BFE164B1B69181CFFF774FE0E
:101210000020FFF797FD0020FFF77AFE0020FFF780
:10122000C1FE0020FFF74AFB0020FFF7D3FB0020A0
:10123000FFF75CFC0020FFF7EFFC00F049FA62B614
:10124000BD4680BD00F0074000D0074000E00740E9
:1012500000900440FFF8FFFE00E100E0FFFF00FF08
:101260003CF0FF1F80B590B000AF7860FB6BBB6BAC
:101270007B6B3B6BFB6ABB6A7B6A3B6AFB69BB6946
:101280007B693B69FB68BB687B681B68FB637B68A9
:101290005B68BB637B689B687B637B68DB683B63E5
:1012A0007B681B69FB627B685B69BB627B689B69CF
:1012B0007B627B68DB693B620A4B1B68FB610A4B04
:1012C0001B68BB61094B1B687B61094B1B683B6159
:1012D000084B1B68BB60084B1B68FB6000BEBD462B
:1012E00010B080BD28ED00E02CED00E030ED00E016
:1012F0003CED00E034ED00E038ED00E00420714604
:10130000084202D0EFF3098001E0EFF30880416961
:10131000A8E70020FFF7A6FF90B583B000AF184BF9
:10132000DB6A181CFFF7D0FC031CDB00DCB2144B9B
:101330009B6A181CFFF732FC031C9B00DBB2221CCB
:101340001343DCB20E4B5B6A181CFFF795FB031CC2
:101350005B00DBB2221C1343DCB2094B1B6A181C76
:10136000FFF7FEFA031CDBB2221C1343DAB2FB1DAB
:101370001A70FB1D1B78181CBD4603B090BDC046FB
:101380003CF0FF1F80B582B000AF021CFB1D1A703D
:101390001A4BDA6AFB1D197808230B40591E8B4142
:1013A000DBB2101C191CFFF7B3FC144B9A6AFB1D2F
:1013B000197804230B40591E8B41DBB2101C191CF9
:1013C000FFF710FC0D4B5A6AFB1D197802230B40E6
:1013D000591E8B41DBB2101C191CFFF76FFB074B2A
:1013E0001A6AFB1D197801230B40DBB2101C191C73
:1013F000FFF7D8FABD4602B080BDC0463CF0FF1FE3
:1014000080B500AF064B9B69181CFFF7BFFD00F0CD
:1014100051FC034B9B69181CFFF7ACFDBD4680BD1A
:101420003CF0FF1F80B582B000AF364B1B6A181C22
:10143000FFF776FA334B5B6A181CFFF7FDFA314B66
:101440009B6A181CFFF788FB2E4BDB6A181CFFF702
:1014500019FC2C4B5B69181CFFF7B2FC294B9B69EC
:10146000181CFFF793FD00F025FCFFF755FF031C48
:101470001A1CFB1D12011A7000F01CFC214B9B6909
:10148000181CFFF777FD00F015FC1E4B9B69181C1C
:10149000FFF77CFD00F00EFCFFF73EFF031C191C5C
:1014A000FB1DFA1D12780A431A7000F003FC154B5D
:1014B0009B69181CFFF75EFDFB1D1B785BB2002BC0
:1014C00002DA00F0F7FBC9E7C0460E4B5B69181C57
:1014D000FFF76AFC0B4B1B6A181CFFF731FA094B2C
:1014E0005B6A181CFFF7B8FA064B9B6A181CFFF7DB
:1014F00045FB044BDB6A181CFFF7D6FBBD4602B068
:1015000080BDC0463CF0FF1F80B582B000AF021C1A
:10151000FB1D1A70FFF786FFFB1D1B781B09DBB252
:10152000181CFFF72FFFFFF76BFF96235B00181CBB
:1015300000F0E6FBFB1D1A780F231340DBB2181CEA
:10154000FFF720FFFFF75CFF9623DB00181C00F07D
:10155000D7FBBD4602B080BD80B500AF0120FFF7CC
:10156000D3FFBD4680BDC04680B582B000AF021C2F
:10157000FB1D1A70FFF756FF144BDB69181CFFF7B1
:1015800055FDFB1D1B781B09DBB2181CFFF7FAFE8B
:10159000FFF736FF96235B00181C00F0B1FBFB1D24
:1015A0001A780F231340DBB2181CFFF7EBFEFFF78E
:1015B00027FF9623DB00181C00F0A2FB034BDB691E
:1015C000181CFFF725FDBD4602B080BD3CF0FF1F93
:1015D00080B582B000AF0A1CFB1D011C1970BB1D39
:1015E0001A70FB1D1B78012B01D1002300E0402362
:1015F000BA1D12789B18DBB27F33DBB2181CFFF7E1
:1016000083FFBD4602B080BD80B582B000AF786078
:1016100007E07B681B78181CFFF7A6FF7B68013387
:101620007B607B681B78002BF3D1BD4602B080BD88
:1016300080B584B000AF021C3960FB1D1A70FB1D21
:101640001B78181C00F030F83B1C0F3300221A7076
:101650000EE03B681B78181CFFF786FF3B1C0F331E
:101660003A1C0F32127801321A703B6801333B602A
:101670003B1C0F331B780F2B0ED83B681B78002BBD
:10168000E7D109E02020FFF76FFF3B1C0F333A1C26
:101690000F32127801321A703B1C0F331B780F2B5C
:1016A000F0D9BD4604B080BD80B582B000AF021C49
:1016B000FB1D1A70FB1D1B78012B01D1802300E05C
:1016C000C023181CFFF720FFBD4602B080BDC046F6
:1016D00080B500AF2B4B9B69181CFFF74BFC294BC7
:1016E0005B69181CFFF760FB264BDB69181CFFF7D2
:1016F0008FFC0020FFF746FE224B1B6A181CFFF7E9
:101700001FF9204B5B6A181CFFF7A6F91D4B9B6A5B
:10171000181CFFF733FA1B4BDB6A181CFFF7C4FADF
:10172000502000F003FB0320FFF72CFEFFF768FEBC
:10173000052000F0FBFAFFF763FEFA23DB00181C1C
:1017400000F0DEFAFFF75CFEFA23DB00181C00F065
:10175000D7FA0220FFF716FEFFF752FEFA23DB004E
:10176000181C00F0CDFA2820FFF7CEFE0C20FFF762
:10177000CBFE0120FFF7C8FE0620FFF7C5FEBD46E1
:1017800080BDC0463CF0FF1F80B584B000AF7860DC
:10179000124BFB60FB687A681A60114B104A526961
:1017A000802149010A435A610D4B0D4A1268111CF0
:1017B0000C4A0A401A600C4B0B4A126B111C0B4A64
:1017C0000A40802149000A431A63094BFA681A60EB
:1017D000FB68181CBD4604B080BDC0466CF0FF1FFE
:1017E00000F00F40FFEFFFFF00900440FFF8FFFE06
:1017F0003CF0FF1F80B582B000AF7860034B8022C1
:1018000052019A60BD4602B080BDC04600F00FF89C
:1018100080B582B000AF7860034B802252015A60DD
:10182000BD4602B080BDC04600F00FF880B584B060
:1018300000AF78602D4BFB60FB687A685A602C4BD8
:10184000FA681A602B4A2B492B4BCB58802149044C
:101850001943294BD150294B00221A60274B0022F3
:101860005A60264B0022DA60244B00225A61234B37
:101870000022DA61214B00225A62204B0022DA62F8
:101880001E4B00225A631D4B1D4A9A601B4B4C2273
:10189000DA621C4B1B4A1269111C1B4A0A40802148
:1018A000C9000A431A61FB68184A1A60184A1849A5
:1018B000C4239B00CB58191C164B0B4080210902F6
:1018C0001943C4239B00D150114B114A1268802147
:1018D00089020A431A60094B4B221A600E4BFA68C0
:1018E0005A60FB68181CBD4604B080BD70F0FF1F35
:1018F00078F0FF1F007004403C100000008003409F
:10190000FFFF000000C00440FFF8FFFE01010000DF
:1019100000E100E0FF00FFFF3CF0FF1F80B582B058
:1019200000AF7860034B00225A600023181CBD46AC
:1019300002B080BD0080034080B584B000AFF86085
:101940007A603B1C0B330A1C1A703B1C0B331B7850
:10195000002B01D0822316E03B1C0B331B780C4A72
:10196000D35C012B01D009230DE00A4A3B1C0B3349
:101970001B780949CB5C0133DB00D3189B681A1C28
:101980007B681A600023181CBD4604B080BDC046A9
:101990002C2F000000800340282F000080B582B06B
:1019A00000AF294B1B683B6000237B60274B1B6803
:1019B0001A1C8023134004D07B68802252001343FA
:1019C0007B60224A224B1B780133DB00D3185B6813
:1019D0001A1C8023134003D07B68012213437B60D1
:1019E0003B681A687B6813407B607A6880235B00E1
:1019F00013400AD0154B154A126880210A431A6019
:101A00003B685B68181CFEF76DFD7A680123134084
:101A1000DBB2002B15D00D490D4B1B78181C0B4A5F
:101A20000B4B1B780133DB00D3185B6880221A4311
:101A3000431CDB00CB185A603B685B68181CFEF740
:101A400045FDBD4602B080BD78F0FF1F0080034019
:101A5000282F000090B589B000AFF860B960BB1DB9
:101A60001A80FB68BB613B1C1F3300221A70BB68E5
:101A7000013BBB60BB1D1B88002B38D1BB68002B12
:101A800035D03B1C1F331B78BA69D31830221A702B
:101A90003B1C1F333A1C1F32127801321A70BB688C
:101AA000013BBB6023E03B1C1F331B78BA69D41891
:101AB000BB1D1B88181C0A21FEF7F8FC0B1C9BB2EF
:101AC000DBB23033DBB223703B1C1F333A1C1F32B6
:101AD000127801321A70BB68013BBB60BC1DBB1D94
:101AE0001B88181C0A21FEF79DFC031C2380BB1DCC
:101AF0001B88002B02D0BB68002BD4D13B1C1E33AB
:101B000000221A702EE03B1C1E331B78BA69D218D3
:101B10003B1C173312781A703B1C1E331B78BA69B2
:101B2000D3183A1C1F3211783A1C1E3212788A1AC6
:101B3000013AB9698A1812781A703B1C1F331A7857
:101B40003B1C1E331B78D31A013BBA69D3183A1CCD
:101B5000173212781A703B1C1E333A1C1E32127850
:101B600001321A703B1C1F331B785B08DBB23A1C36
:101B70001E3212789A42C6D33B1C1F331B78BA69B7
:101B8000D31800221A70BD4609B090BD80B584B04C
:101B900000AF7860FB1C1970BB1C1A703B1C0E3325
:101BA00000221A7006E03B1C0E333A1C0E321278EB
:101BB00001321A703B1C0E331B785BB27A68D31863
:101BC0001B78002BEFD13B1C0F33BA1C12781A7014
:101BD0003A1C0F323B1C0E33127852B21B785BB2A8
:101BE0009A4241D03A1C0F323B1C0E33127852B24B
:101BF0001B785BB29A4237DD1BE03B1C0F331B782E
:101C00005BB27A68D3183A1C0E32127852B27968F5
:101C10008A1812781A703B1C0F333A1C0F32127854
:101C2000013A1A703B1C0E333A1C0E321278013AFC
:101C30001A703B1C0E331B787F2BDED90FE03B1C48
:101C40000F331B785BB27A68D318FA1C12781A70BB
:101C50003B1C0F333A1C0F321278013A1A703B1CAE
:101C60000F331B787F2BEAD9BD4604B080BDC04638
:101C700080B584B000AFF860B960111C1A1CBB1DA0
:101C800019807B1D1A70F968BA68BB1D1B88081C77
:101C9000111C1A1CFFF7DEFEF9687B1D1A783B1C2D
:101CA00018331B78081C111C1A1CFFF76FFFBD4668
:101CB00004B080BD80B500AFC046C046C046C04637
:101CC000C046C046C046C046C046C046BD4680BDB0
:101CD00080B582B000AFFB1D00221A7007E0C0463D
:101CE000FB1D1B78DBB20133DAB2FB1D1A70FB1D42
:101CF0001B78DBB2842BF2D9BD4602B080BDC04652
:101D000080B582B000AF021CBB1D1A8006E0FFF751
:101D1000DFFFBB1DBA1D1288643A1A80BB1D1B88E9
:101D2000642BF4D8BD4602B080BDC04680B582B0F9
:101D300000AF021CBB1D1A8009E0FA239B00181C8F
:101D4000FFF7DEFFBB1DBA1D1288013A1A80BB1DCA
:101D50001B88002BF1D1BD4602B080BD38B5051CF3
:101D600001F0BCF801F064F8084C2368002B02D0A5
:101D7000984700232360064C2368002B02D0984725
:101D800000232360281CFEF717FD38BD7CF0FF1FE1
:101D900080F0FF1F10B5041C00F0CDFF201C10BD0B
:101DA00000B5C9B202E08B4208D0101C0378421C77
:101DB000002BF8D14B4259414942084000BD000078
:101DC000F0B589B01D1C0EAB1B780C1C04930FAB37
:101DD0001F78013C00230190039107920290237029
:101DE000984217D1119A9A4214D1049B002B01D02A
:101DF0006F2F32D0692F02D0642F00D0AAE0022DBD
:101E000002D1039C023CA3E0012D00D0A2E0039C80
:101E1000023C98E0692F0FD004D8582F19D0642FB6
:101E200021D109E0752F04D0782F12D06F2F1AD14D
:101E300015E0002500951BE0019A002A13DA8023A3
:101E40001B069A4212D05242012301920292009341
:101E50000EE00025009510260BE0119D00E0002506
:101E60000095082605E00021009101E00122009282
:101E70000A260023069301E006901C1C0298311CE0
:101E8000FEF714FB02980591311CFEF7CBFA059979
:101E90000290092902D80A1C303205E0059A37322F
:101EA000782F01D1059A573206980299631ED2B253
:101EB0001A7001300029DFD1082E09D104990029B8
:101EC00006D0302A04D00698A31E30221A700230A1
:101ED000079A022A10D10099002901D1002D02D0C1
:101EE000109A013A109210991191102E04D1049A6F
:101EF000002A01D002391191039A0024D11A119AB3
:101F00008918164A914225DC302202E0013B1A7002
:101F1000013011991C1C8842F8DB102E0AD1019A5D
:101F2000002A07D0049B002B04D0631E1F70023CC4
:101F3000302323700099002902D0013C2D2308E0B2
:101F4000012D02D1013C2B2303E0022D02D1013CE3
:101F500020232370201C09B0F0BDC046FD01000005
:101F6000F0B5AD4C0027A5441C1CAC4B0B916B4449
:101F700020210A90197009920897EBE10998252110
:101F8000FFF70EFF0490002810D1099800F022FFFF
:101F9000089F021C3F18002800D1E4E10B98099922
:101FA0000A9DA847002800D0DDE1DAE1049D0998E8
:101FB0002D1A079507D02A1C0B9809990A9DA84746
:101FC000002800D1CDE1049845782B1C252D0AD19D
:101FD00000260230012309900696321C311CB446BB
:101FE000371C0593A6E0049A0021012501320F1C3D
:101FF00005952B2B00D1BDE104DC202B08D0232B31
:1020000011D109E02D2B00D1B2E1302B0BD105E02D
:10201000012F00D0B0E1B3E10121B1E1059D002D18
:1020200000D0ABE1ACE12A2B03D0002506950A26AF
:1020300012E0251D24680694002C03DA6042002378
:1020400006900593501C53782C1C0AE0069B7343A2
:102050005D190695537801321D1C303D101C092D69
:10206000F4D96F4A069D954206DD0026013009909D
:10207000FF25321CB4465DE02E2B1CD143782A2B61
:1020800004D0421C0A20002684460CE02668043452
:10209000F343DB0F9C46837802300EE063465E43D9
:1020A0005378761901321D1C303D101C092DF5D9CD
:1020B0000125AC4601E00026B446682B00D162E160
:1020C00003226C2B00D15FE10022DDB26E2B2FD0FA
:1020D0000ADC632B1BD002DC582B28D110E0642BC8
:1020E0000ED0692B23D10BE0732B13D004DC6F2BA4
:1020F00006D0702B1BD110E0752B01D0782B16D198
:102100006346002B0ED0059B022B11D10CE06346D9
:10211000002B0CD1002A0AD10AE0782508260322D8
:10212000012105E0012603E00123059300E0FF25DE
:10213000013009900898079BC01808906E2D75D043
:1021400010D8632D00D184E006D8252D00D186E07B
:10215000582D00D089E022E0642D0FD0692D00D0E9
:1021600083E00BE0732D36D003D86F2D00D07CE0D8
:1021700015E0752D13D0782D77D110E0231D07932E
:102180002068032A06D0022A01D100B202E0012A07
:1021900000D140B200910699019502910FE0231DF4
:1021A00007932068032A06D0022A01D180B202E0F8
:1021B000012A00D1C0B2069A0091019502928DA920
:1021C000059A3B1C0396FFF7FBFD041E4DD0154FEF
:1021D0006F443F1B59E0231D24680793002C00D156
:1021E000114C002907D060462778013400284CD0D4
:1021F000B74249DC49E06246201C002A07D0321C65
:1022000000F0DBFD371C00283FD0071B3DE000F04D
:10221000E1FD071C39E0C046C4FDFFFF36020000A7
:10222000FD01000033020000302F0000251D07953E
:102230002368022A05D0032A08D0002A00D088E0AB
:1022400004E068462021085A188082E0089D1D603D
:102250007FE02268201D0DAB07901A7002E00DABE5
:102260001D7007941C1C01270FE0049800F0B2FDBC
:10227000089F041E06D00B980499221C0A9DA847AB
:1022800000286ED03F196EE0371C05983E1C0028D0
:102290003FD03023022800D020233D4A6A441370E7
:1022A00022782D2A04D02B2A02D00497202A0CD180
:1022B0000497302B09D10B98211C01220A9B9847C7
:1022C00000284ED0781E013404900599022911D1BE
:1022D000412D01D0612D0DD1049D012D41DD0B98C3
:1022E000211C02220A9DA84700283AD0049D0234EE
:1022F000023D04953E1C08E025490B9869440122E3
:102300000A9DA84700282CD00136069DAE42F3DB7B
:10231000049F002F06D00B98211C3A1C0A9DA84749
:1023200000281ED0059D002D10D109E025700B98C6
:10233000211C01220A9B9847002812D0013602E096
:10234000144C20256C4406988642EFDB089DAD199D
:102350000895079C099D2B78002B00D00EE6089F5E
:1023600001E001277F42381C8F239B009D44F0BD74
:10237000002504E0012703E0022701E0022505957E
:102380005378013235E60222437801309DE6C0469B
:102390003602000037020000F0B5ADB01193329B59
:1023A00007904F2000240A9268445A1E93410F1C44
:1023B0000F940C9409940D940B94261C037072E3F3
:1023C000069800F0B9FB051E20D00A9D013528783B
:1023D0000A9500F0B1FB0028F7D1002C00D061E392
:1023E00000E001360021079D381C0A1CA847051C87
:1023F00000F0A2FB0028F4D1681C04D1329C002C10
:1024000000D15CE30124381C291C24E306996042B6
:102410006041129025291CD000281AD0291C079C45
:10242000381C2A1CA047069CC1B2A1420BD0381C04
:102430000122079DA847329C002C00D13FE30A9D52
:1024400001350A952EE30A9C013601340A942C1CAE
:1024500029E31FAD0021281C2822FFF79BFC0A99C5
:10246000B148497868600691081C252913D115A840
:10247000E970021C0BCD0BC20BCD0BC20BCD0BC2F6
:10248000296811600A9D02350A95002510950E9560
:10249000A54D08951DE12A2903D00A9D0135059512
:1024A00006E001232B700A9D023505950A9DA87848
:1024B000021C303A092A36D800210891A4460A2184
:1024C0000025059B00E0131C4D4330382D1858782B
:1024D0005A1C041C303C092CF5D905931FAB6446EB
:1024E00008959C462095002D19D101256D4215A80F
:1024F000DD700690021C191C29C929C229C929C2EC
:1025000029C929C209681160059D614602350A780A
:102510000A95FF250695089D0E951095CEE001239E
:1025200061464B7005921FAA682802D06C280FD113
:102530000BE0059B022191705978682900D0E5E2F3
:1025400001215B1891700593E0E203219170DDE2B7
:102550001FAAD0705838202800D993E0FDF758FF03
:102560009492922D92929292929292159492929229
:10257000929492929292949411929219929492922D
:1025800094000321917078217DE0917800297BD01F
:1025900078E09178002901D0FF21D170059B0022BD
:1025A0001FA9FF208D1801322872202AFAD1C122DA
:1025B0004A72FE2205930A7366E09178002901D0E1
:1025C000FF21D170059D6A785E2A04D00135002074
:1025D0000595069005E0059901238A780231059159
:1025E00006935D2A33D11FAAD17C059D202001438B
:1025F000D1746A780135059529E0D4B2E1081FA8A5
:10260000072541182C400120A040041C087A2043D3
:10261000087258782D2817D19978002914D05D298F
:102620000CD111E0D5B2E8081FAC201807242540D2
:102630000124AC40251C047A2C43047201328A42E6
:10264000F0DDDA78033304E00133021C01E0059B7E
:10265000A4465D2A01D0002ACFD164460593002A02
:1026600002D1FF211FAA0EE0069D002D0CD0059B74
:1026700029A921AA1078C043107001328A42F9D1E9
:10268000059301E0FF21D1701FA915A8021C081CA9
:102690008C462AC82AC22AC82AC22AC82AC2006866
:1026A000634610605D781A7810959D780E95DD78F8
:1026B00006955D680895059D01350A950025AA4295
:1026C00008D1069D252D04D011980568043011907D
:1026D00000E0002506996E290ED0129A002A0BD030
:1026E000079C381C00210222A047041E04D0329C03
:1026F000002C00D1E3E10124069869282DD015D8DB
:102700005B2800D12BE106D8252800D1EBE0582822
:1027100000D0D4E14EE00699632900D188E0642915
:1027200000D0CCE117E0C046FFFFFF7F069A732A76
:1027300000D1F9E006D86E2A00D19DE16F2A00D0C1
:10274000BDE106E0069B752B36D0782B00D0B6E1B4
:1027500030E0082031E00A2000E00020002C20D1E9
:1027600029AB00932AAB01932BAB029308993B1C36
:10277000079A00F0F8F9299B002B05D1329C002C18
:1027800000D197E101240EE080210906F6184318D4
:10279000002B04D02A9B002B01D0434203E0031CF2
:1027A00001E001240023002D3ED00E9A101C032AC4
:1027B0002CD934E0102000E00A20002C1FD129ABD6
:1027C00000932AAB01932BAB0293079A3B1C089909
:1027D00000F0C9F9299A031C002A06D1329C002C6A
:1027E00000D16AE10124131C0BE0B6182A9A002AD2
:1027F00007D080221206904203D0434201E0012418
:102800000023002D10D00E98032808D8FDF700FEF5
:10281000060204062B7002E02B8000E02B600B9D6B
:1028200063426341ED180B950D9D01350D9578E0E0
:102830001098002801D101210891002D3DD00023DE
:1028400029939C4200D02DE1099804E02870299B2F
:10285000013501332993089A002A16D0329B002BA8
:1028600004D0299B002B0CDA01200F9000210A1CB8
:10287000381C079B9847089901390891421CE5D1FB
:1028800003E0002509900F9500E00990299B002B9B
:1028900009D00F9D002D0BD14F2068440278002AEB
:1028A00000D0F8E004E0329C002C00D107E1F9E010
:1028B0000B9DF61801350B95DAE02995089D02E08D
:1028C000299B01332993002D08D00021381C0A1CB4
:1028D000079B9847013D09900130F1D1299B002BBE
:1028E00000D0C5E0EBE0002C00D0D8E000E00136DD
:1028F0000021079D381C0A1CA847051C00F01CF984
:102900000028F4D1252D0BD0291C079C381C01224E
:10291000A047329D01240C94002D00D1CFE0C2E0ED
:10292000013601250C95BEE001200C90002C16D13B
:10293000381C211C221C03E000210136381C0A1C13
:10294000079B98470690069800F0F6F80028F3D108
:10295000381C06990122079B984701200C90002DF6
:1029600054D0002329939C4200D09BE008990998F9
:102970000139069114E0069AC3B2013A0692072281
:102980001A40012191408C4615AAD9085118097A9C
:10299000624611421DD02B70299B013501332993CA
:1029A000069B191C0893013113D0329A002A04D0D7
:1029B000299B002B09DC01230F9300210A1C381CE2
:1029C000079B9847411CD6D103E0002209900F9243
:1029D00000E0099009AB1978299B002B07D00F98CC
:1029E00000280CD14F2068440278002A07D0381CF8
:1029F0000122079CA047329D002D60D052E0F618BE
:102A000000232B700B9D01350B952AE02995089D1D
:102A10000998013D0FE0C3B207221A4001219140FD
:102A20000A1CDB0815A9CB181B7A013D13420CD0F8
:102A3000299B0133299308956A1C06D000210A1CA2
:102A4000381C079B9847411CE5D1299B0990002B16
:102A500005D10999381C0122079DA84723E009994F
:102A6000F618089D002D03DB381C0122079DA8479E
:102A70000D9D01350D9516E0002D14D00E980328FC
:102A800011D8FDF7C5FC040602042E800BE02E6071
:102A900009E02E7007E0002501240F9503E00124D2
:102AA0000C9400E001240A9D2D780695002D00D09D
:102AB00086E404E001240C9401E001250C95381C07
:102AC00000210222079DA847002802D00D9C002C5F
:102AD00016D00C9D002D16D00D9C002C13D100217A
:102AE0000A1C381C079DA8470021041C0222381C20
:102AF000A847002804D1381C211C0122A84702E065
:102B000001235B420B930B982DB0F0BD05994878DB
:102B1000013105911CE5C04600B58022031C52001E
:102B20000020934204D8034AD31858780123184050
:102B300000BDC046312F000000B58022031C5200AA
:102B40000020934204D8034AD31858781023184021
:102B500000BDC046312F000000B5031C613B192B9E
:102B600000D8203800BDF0B589B0059101920F99C9
:102B7000109A029300230B60061C1360012811D0E9
:102B800098420FDB059A059B013A1A43D20F09D1EF
:102B9000242807DC0298111C019B98470127041C7C
:102BA0003D1C02E00024271C40250496002E05D081
:102BB00001204042311CFDF735FC0490059A0021AC
:102BC000D21703910691079293E0681E0F2800D94F
:102BD0008FE0FDF71DFC082E8E3F8E8E8E518E8E5F
:102BE0008E8E8E8E8E51201CFFF7A6FF021E09D0FE
:102BF00000210A1C0298019B98470699041C013188
:102C0000069176E02B2C07D10298111C019B984766
:102C10000137041C02256CE002252D2C69D1111C02
:102C2000019B029898470F9901230137041C0B6000
:102C30005FE0102E02D00825002E5AD10825302C36
:102C400057D1002102980A1C019B98470137041CA8
:102C500004254EE0782C01D0582C09D1002102988F
:102C60000A1C019B98470137041C0825102640E0E8
:102C70001025002E3AD03CE0002E00D10A260499FF
:102C8000002905D101204042311CFDF7CBFB049007
:102C9000201C3038092808D9201CFFF73DFF0028E8
:102CA00005D0201CFFF758FF3738B04203DB102D4A
:102CB0001ED120251DE0039A049901238A4201D8E0
:102CC000109A1368039AC4B27243D1438C4200D95C
:102CD0000123109982180B600021039202980A1CAC
:102CE000019B98470137041C102502E0082600E0EC
:102CF0004025611C0BD0079A0599FB0FB94253413F
:102D0000DBB2002B03D060231D4200D15DE73423EA
:102D10001D4003D10E9A0395156004E0069B013F08
:102D20000E99FF180F600298211C0122019B984701
:102D3000039809B0F0BD30B5C9B2031C1F2A35D9BC
:102D4000444203232340041C002B07D0D21A1D1C2D
:102D5000013D21700134002DFAD1C418002905D09D
:102D60000D06080428430B02014319435009231C94
:102D700000280ED0051C013D196059609960D9608A
:102D8000196159619961D9612033002DF3D1430153
:102D9000E318D006400F07D0041C1D1C013C02C5DF
:102DA000002CFBD180001B1803200240002A03D016
:102DB0001970013A0133F9E730BD10B5C9B2821874
:102DC00004E00478431C8C4203D0181C9042F8D1D4
:102DD000002010BD00B5031C1A1C0133591E0978D0
:102DE0000029F9D1101A00BD38B50B4C0B4D01E08C
:102DF00008CC9847AC42FBD1094C0A4D01E008CC05
:102E00009847AC42FBD1084C084D01E008CC9847EC
:102E1000AC42FBD138BDC046343000003430000035
:102E20003430000034300000343000003430000012
:102E300038B5084C084D01E008CC9847AC42FBD1AE
:102E4000064C074D02E0043C23689847AC42FAD197
:102E500038BDC0463430000034300000343000004B
:102E60003430000030B5002A20D088421ED0032420
:102E70000123214207D1204205D1944203D220C927
:102E8000043A20C010E0194209D1184207D19342F8
:102E900005D20D88023A05800231023004E00D7837
:102EA000013A057001310130002AE2D130BD000045
:102EB00010B5094C002C0ED004E06068A268FFF742
:102EC000D1FF0C3421680029F7D16368002BF4D1BD
:102ED000A368002BF1D110BD3430000010B5054BB4
:102EE0001C6803E0A068636898472468002CF9D147
:102EF00010BDC04690F0FF1F054B181C002805D0E0
:102F0000854681B00020C043009001B0F74670476D
:102F100000300020F746704775733A20000000002B
:102F2000636D3A2000000000040000000100000072
:102F30000000808080808080808080909090909041
:102F40008080808080808080808080808080808081
:102F50008080180404040404040404040404040425
:102F60000404020202020202020202020404040435
:102F700004040443434343434341414141414141EC
:102F800041414141414141414141414141040404E8
:102F9000040404232323232323212121212121216C
:102FA0002121212121212121212121212104040468
:102FB000048000000000000000000000000000008D
:102FC0000000000000000000000000000000000001
:102FD00000000000000000000000000000000000F1
:102FE00000000000000000000000000000000000E1
:102FF00000000000000000000000000000000000D1
:1030000000000000000000000000000000000000C0
:1030100000000000000000000000000000000000B0
:1030200000000000000000000000000000000000A0
:04303000000000009C
:103034003430000000F0FF1F00000000000000001A
:08304400000000000000000084
:04000003000007E909
:00000001FF
