:1000000000300020DD190000990F0000A50F00004E
:10001000A50F0000A50F0000A50F0000A50F000010
:10002000A50F0000A50F0000A50F0000A50F000000
:10003000A50F0000A50F0000A50F0000A50F0000F0
:10004000A50F0000A50F0000A50F0000A50F0000E0
:10005000A50F0000A50F0000A50F0000A50F0000D0
:10006000A50F0000A50F0000A50F0000A50F0000C0
:10007000A50F0000A50F0000A50F0000A50F0000B0
:10008000A50F00008D090000A50F0000A50F0000BE
:10009000A50F0000A50F0000A50F0000A50F000090
:1000A000A50F0000A50F0000A50F0000A50F000080
:1000B000A50F0000A50F0000A50F0000A50F000070
:10040000FFFFFFFFFFFFFFFFFFFFFFFF7EFBFFFF81
:1004100002B4714649084900095649008E4402BC9D
:100420007047C04602B4714649084900095C49005A
:100430008E4402BC7047C046002934D001230022FC
:1004400010B488422CD301242407A14204D2814253
:1004500002D209011B01F8E7E400A14204D2814263
:1004600002D249005B00F8E7884201D3401A1A43E0
:100470004C08A04202D3001B5C0822438C08A04217
:1004800002D3001B9C082243CC08A04202D3001BCD
:10049000DC082243002803D01B0901D00909E3E747
:1004A000101C10BC7047002801D00020C04307B4C6
:1004B000024802A14018029003BDC0461900000086
:1004C0000029F0D003B5FFF7B9FF0EBC4243891AEB
:1004D0001847C0467047C046C046C046C046704731
:1004E00001B40020C046C046C046C04601300928BD
:1004F000F8D9C046C046C046C046C046C046C04601
:1005000001BC704780B582B000AF021CBB1D1A80D1
:1005100006E0FFF7E5FFBB1DBA1D1288643A1A809A
:10052000BB1D1B88642BF4D806E0FFF7D5FFBB1D6D
:10053000BA1D12880A3A1A80BB1D1B880A2BF4D8F0
:10054000BD4602B080BDC04680B582B000AF7860C5
:1005500007E00A4B181CFFF7D5FF7B68084A9B1879
:100560007B607A68054B9A42F3D87B689BB2181C73
:10057000FFF7C8FFBD4602B080BDC04660EA00007C
:10058000A015FFFF80B584B000AF021CBB1D1A8010
:10059000094BFB6008E0FB68181CFFF7D5FFBB1D8B
:1005A000BA1D1288013A1A80BB1D1B88002BF2D19C
:1005B000BD4604B080BDC046EB51000080B500AF21
:1005C000BD4680BD90B589B000AFF860B960BB1D75
:1005D0001A80FB68BB613B1C1F3300221A70BB688A
:1005E000013BBB60BB1D1B88002B38D1BB68002BB7
:1005F00035D03B1C1F331B78BA69D31830221A70D0
:100600003B1C1F333A1C1F32127801321A70BB6830
:10061000013BBB6023E03B1C1F331B78BA69D41835
:10062000BB1D1B88181C0A21FFF74AFF0B1C9BB23D
:10063000DBB23033DBB223703B1C1F333A1C1F325A
:10064000127801321A70BB68013BBB60BC1DBB1D38
:100650001B88181C0A21FFF7EFFE031C2380BB1D1B
:100660001B88002B02D0BB68002BD4D13B1C1E334F
:1006700000221A702EE03B1C1E331B78BA69D21878
:100680003B1C173312781A703B1C1E331B78BA6957
:10069000D3183A1C1F3211783A1C1E3212788A1A6B
:1006A000013AB9698A1812781A703B1C1F331A78FC
:1006B0003B1C1E331B78D31A013BBA69D3183A1C72
:1006C000173212781A703B1C1E333A1C1E321278F5
:1006D00001321A703B1C1F331B785B08DBB23A1CDB
:1006E0001E3212789A42C6D33B1C1F331B78BA695C
:1006F000D31800221A70BD4609B090BD80B584B0F1
:1007000000AF7860FB1C1970BB1C1A703B1C0E33C9
:1007100000221A7006E03B1C0E333A1C0E3212788F
:1007200001321A703B1C0E331B785BB27A68D31807
:100730001B78002BEFD13B1C0F33BA1C12781A70B8
:100740003A1C0F323B1C0E33127852B21B785BB24C
:100750009A4241D03A1C0F323B1C0E33127852B2EF
:100760001B785BB29A4237DD1BE03B1C0F331B78D2
:100770005BB27A68D3183A1C0E32127852B279689A
:100780008A1812781A703B1C0F333A1C0F321278F9
:10079000013A1A703B1C0E333A1C0E321278013AA1
:1007A0001A703B1C0E331B787F2BDED90FE03B1CED
:1007B0000F331B785BB27A68D318FA1C12781A7060
:1007C0003B1C0F333A1C0F321278013A1A703B1C53
:1007D0000F331B787F2BEAD9BD4604B080BDC046DD
:1007E00080B584B000AFF860B960111C1A1CBB1D45
:1007F00019807B1D1A70F968BA68BB1D1B88081C1C
:10080000111C1A1CFFF7DEFEF9687B1D1A783B1CD1
:1008100018331B78081C111C1A1CFFF76FFFBD460C
:1008200004B080BD80B584B000AF78602C4BFB6015
:10083000FB687A685A602B4BFA681A602A4A2A4980
:100840002A4BCB58802149041943284BD150284BBF
:1008500000221A60264B00225A60254B0022DA60E3
:10086000234B00225A61224B0022DA61204B0022E6
:100870005A621F4B0022DA621D4B00225A631C4B46
:100880001C4A9A601A4B4C22DA621B4B1A4A1169B5
:100890001A4A0A408021C9000A431A61FB68184AB3
:1008A0001A60184A1749C4239B00C958164B0B40BD
:1008B000802109021943C4239B00D150114B114AD6
:1008C0001268802189020A431A60094B4B221A6080
:1008D0000E4BFA685A60FB68181CBD4604B080BD18
:1008E00000F0FF1F08F0FF1F007004403C100000E4
:1008F00000800340FFFF000000C00440FFF8FFFE3F
:100900000101000000E100E0FF00FFFF10F0FF1F09
:1009100080B582B000AF7860034B00225A6000239C
:10092000181CBD4602B080BD0080034080B584B075
:1009300000AFF8607A603B1C0B330A1C1A703B1C3A
:100940000B331B78002B01D0822315E03B1C0B33AB
:100950001B780B4AD35C012B01D009230CE0094A18
:100960003B1C0B331B780849CB5C0133DB00D318ED
:100970009A687B681A600023181CBD4604B080BDCD
:10098000E82D000000800340E42D000080B582B017
:1009900000AF274B1B683B6000237B60254B1A6828
:1009A0008023134004D07B688022520013437B6075
:1009B000204A214B1B780133DB00D3185A6880236F
:1009C000134003D07B68012213437B603B681A68A5
:1009D0007B6813407B607A6880235B0013400AD0F9
:1009E000144B144A126880210A431A603B685B6802
:1009F000181C01F07FF97A680123134015D00D49C6
:100A00000D4B1B78181C0B4A0B4B1B780133DB007A
:100A1000D3185B6880221A43431CDB00CB185A6052
:100A20003B685B68181C01F059F9BD4602B080BDF7
:100A300008F0FF1F00800340E42D000080B584B063
:100A400000AF7860114BFB60FB687A681A60104B4E
:100A50000F4A5269802149010A435A610C4B0C4AE2
:100A600011680C4A0A401A600B4B0B4A116B0B4A77
:100A70000A40802149000A431A63094BFA681A6048
:100A8000FB68181CBD4604B080BDC0460CF0FF1FBB
:100A900000F00F40FFEFFFFF00900440FFF8FFFE63
:100AA00010F0FF1F80B582B000AF7860034B80224A
:100AB00052019A60BD4602B080BDC04600F00FF8FA
:100AC00080B582B000AF7860034B802252015A603B
:100AD000BD4602B080BDC04600F00FF880B500AF43
:100AE000034B9B68181C00F059FFBD4680BDC046F3
:100AF00010F0FF1F80B500AF034BDB68181C00F03F
:100B000085FCBD4680BDC04610F0FF1F80B500AF1C
:100B1000034B1B69181C00F02BFCBD4680BDC04672
:100B200010F0FF1F90B583B000AF184BDB6A181CA4
:100B300000F018FD031CDB00DCB2144B9B6A181C90
:100B400000F0A2FD031C9B00DBB2221C1343DCB2AD
:100B50000E4B5B6A181C00F023FE031C5B00DBB22B
:100B6000221C1343DCB2094B1B6A181C00F09EFECA
:100B7000031CDBB2221C1343DAB2FB1D1A70FB1DEF
:100B80001B78181CBD4603B090BDC04610F0FF1F77
:100B900080B582B000AF021CFB1D1A701B4BDA6AD5
:100BA000FB1D197808230B40591E8B41DBB2101C2A
:100BB000191C00F0F9FC154B9A6AFB1D19780423E7
:100BC0000B40591E8B41DBB2101C191C00F07EFD3E
:100BD0000E4B5A6AFB1D197802230B40591E8B419C
:100BE000DBB2101C191C00F0F9FD084B1A6AFB1D42
:100BF000197801230B40591E8B41DBB2101C191CC4
:100C000000F072FEBD4602B080BDC04610F0FF1F6E
:100C100080B500AF064B9B69181C00F061FBFFF725
:100C20005BFC034B9B69181C00F04EFBBD4680BD6E
:100C300010F0FF1F80B582B000AF364B1B6A181C46
:100C400000F014FE334B5B6A181C00F089FD314B39
:100C50009B6A181C00F0F6FC2E4BDB6A181C00F097
:100C60005FFC2C4B5B69181C00F01AFC294B9B693C
:100C7000181C00F035FBFFF72FFCFFF753FF031C98
:100C80001A1CFB1D12011A70FFF726FC214B9B69F1
:100C9000181C00F019FBFFF71FFC1E4B9B69181C6A
:100CA00000F01EFBFFF718FCFFF73CFF031C191CAC
:100CB000FB1DFA1D12780A431A70FFF70DFC154B45
:100CC0009B69181C00F000FBFB1D1B785BB2002B1E
:100CD00002DAFFF701FCC9E7C0460E4B5B69181C3E
:100CE00000F0D2FB0B4B1B6A181C00F0CFFD094B28
:100CF0005B6A181C00F044FD064B9B6A181C00F050
:100D0000B3FC044BDB6A181C00F01CFCBD4602B0AF
:100D100080BDC04610F0FF1F80B582B000AF021C3E
:100D2000FB1D1A70FFF786FFFB1D1B781B09DBB24A
:100D3000181CFFF72DFFFFF76BFF96235B00181CB5
:100D4000FFF7E0FBFB1D1A780F231340DBB2181CE2
:100D5000FFF71EFFFFF75CFF9623DB00181CFFF771
:100D6000D1FBBD4602B080BD80B500AF0120FFF7CA
:100D7000D3FFBD4680BDC04680B582B000AF021C27
:100D8000FB1D1A70FFF756FF144BDB69181C00F0AF
:100D90005DFAFB1D1B781B09DBB2181CFFF7F8FE80
:100DA000FFF736FF96235B00181CFFF7ABFBFB1D1C
:100DB0001A780F231340DBB2181CFFF7E9FEFFF788
:100DC00027FF9623DB00181CFFF79CFB034BDB6916
:100DD000181C00F02DFABD4602B080BD10F0FF1FB8
:100DE00080B582B000AF0A1CFB1D011C1970BB1D31
:100DF0001A70FB1D1B78012B01D1002300E040235A
:100E0000BA1D12789B18DBB27F33DBB2181CFFF7D8
:100E100083FFBD4602B080BD80B582B000AF786070
:100E200007E07B681B78181CFFF7A6FF7B6801337F
:100E30007B607B681B78002BF3D1BD4602B080BD80
:100E400080B584B000AF021C3960FB1D1A70FB1D19
:100E50001B78181C00F030F83B1C0F3300221A706E
:100E60000EE03B681B78181CFFF786FF3B1C0F3316
:100E70003A1C0F32127801321A703B6801333B6022
:100E80003B1C0F331B780F2B0ED83B681B78002BB5
:100E9000E7D109E02020FFF76FFF3B1C0F333A1C1E
:100EA0000F32127801321A703B1C0F331B780F2B54
:100EB000F0D9BD4604B080BD80B582B000AF021C41
:100EC000FB1D1A70FB1D1B78012B01D1802300E054
:100ED000C023181CFFF720FFBD4602B080BDC046EE
:100EE00080B500AF2B4B9B69181C00F0EDF9294B26
:100EF0005B69181C00F0C8FA264BDB69181C00F06F
:100F000097F90020FFF744FE224B1B6A181C00F0E3
:100F1000BDFC204B5B6A181C00F032FC1D4B9B6A29
:100F2000181C00F0A1FB1B4BDB6A181C00F00AFB2D
:100F30005020FFF727FB0320FFF72AFEFFF768FE8C
:100F40000520FFF71FFBFFF763FEFA23DB00181CE9
:100F5000FFF7D8FAFFF75CFEFA23DB00181CFFF757
:100F6000D1FA0220FFF714FEFFF752FEFA23DB004E
:100F7000181CFFF7C7FA2820FFF7CEFE0C20FFF75A
:100F8000CBFE0120FFF7C8FE0620FFF7C5FEBD46D9
:100F900080BDC04610F0FF1F80B500AF00F09AFE84
:100FA000BD4680BD80B500AFFFBEBD4680BDC0461A
:100FB00080B500AF364A3749374BD150374A88237E
:100FC0005B010021D150354A354BC0218902D150F7
:100FD000324A3249334BCB58F02149011943314B46
:100FE000D150314B9B78DBB21A1C0823134007D039
:100FF0002D4B2D4A9278D2B208210A43D2B29A7070
:10100000264A274B0021D150244A2449274BC9584E
:10101000274B1940254BD150204B204A1268C02144
:1010200009030A431A601D4A1C49204BC958214B29
:101030000B408021490419431C4BD1501E4B062202
:101040001A701D4B00225A701B4B1B4AD278D1B22A
:101050001F220A40D2B2DA70184B80221A70164B47
:1010600000221A71144B00225A71C046124B9B7910
:10107000DBB21A1C10231340F8D0C0460E4B9B79EC
:10108000DBB21A1C0C231340F8D1BD4680BDC0460C
:1010900000E000E000000000080D000000700440C7
:1010A000441000003810000000D007400410000079
:1010B000FFFFFEFFFFFFFFFC004006400050064020
:1010C00080B500AF394B394A5279D2B21F218A43D9
:1010D000D2B25A71354B354A1279D2B207218A43BE
:1010E000D2B21A71324B324A1278D2B2D2B27321D2
:1010F0008A43D2B250210A43D2B2D2B21A702C4BD8
:101100002B4A5278D2B2D2B263218A43D2B2402162
:101110000A43D2B2D2B25A70254B254A9278D2B243
:1011200019218A43D2B29A70224B00221A70224BA4
:10113000214A116D214A0A40E021C9000A431A657B
:101140001F4A1F49C1239B00C9581E4B1940C12388
:101150009B00D150FFF732FA002000F0DDFBFFF7D3
:10116000BDFC002000F010F9FFF7C4FC002000F0E7
:10117000C3F8FFF7CBFC002000F056F9002000F088
:1011800073F8002000F020F8002000F03FFB002062
:1011900000F0B6FA002000F021FA002000F08CF9EF
:1011A000FFF79EFE62B6BD4680BDC04600F0074018
:1011B00000D0074000E0074000900440FFF8FFFE29
:1011C00000E100E0FFFF00FF80B584B000AF786071
:1011D000114BFB60FB687A681A60104B0F4A52692A
:1011E000802189010A435A610C4B0C4A11680C4A50
:1011F0000A401A600B4B0B4A516B0B4A0A40802184
:1012000049000A435A63094BFA68DA61FB68181C03
:10121000BD4604B080BDC04640F0FF1F00F00F4047
:10122000FFDFFFFF00900440FFF8FFFE10F0FF1FFC
:1012300080B582B000AF7860034B802292019A6043
:10124000BD4602B080BDC04600F00FF880B582B048
:1012500000AF7860034B802292015A60BD4602B015
:1012600080BDC04600F00FF880B584B000AF786054
:10127000104BFB60FB687A681A600F4B0E4A52698C
:1012800001210A435A610C4B0B4A126801218A431F
:101290001A600A4B094A1168094A0A40802149002C
:1012A0000A431A60074BFA689A61FB68181CBD462E
:1012B00004B080BD44F0FF1FC0F00F4000C00440E8
:1012C000FFF8FFFE10F0FF1F80B582B000AF78601E
:1012D000024B01229A60BD4602B080BDC0F00FF8FB
:1012E00080B582B000AF7860024B01225A60BD46E3
:1012F00002B080BDC0F00FF880B584B000AF786058
:10130000104BFB60FB687A681A600F4B0E4A5269FB
:1013100002210A435A610C4B0B4A126802218A438C
:101320001A600A4B094A5168094A0A40802149005B
:101330000A435A60074BFA681A61FB68181CBD46DD
:1013400004B080BD48F0FF1FC0F00F4000C0044053
:10135000FFF8FFFE10F0FF1F80B582B000AF78608D
:10136000024B02229A60BD4602B080BDC0F00FF869
:1013700080B582B000AF7860024B02225A60BD4651
:1013800002B080BDC0F00FF880B584B000AF7860C7
:10139000114BFB60FB687A681A60104B0F4A526968
:1013A000802109030A435A610C4B0C4A11680C4A0C
:1013B0000A401A600B4B0B4AD16C0B4A0A40802141
:1013C00049000A43DA64094BFA68DA60FB68181CC2
:1013D000BD4604B080BDC0464CF0FF1F40F00F403A
:1013E000FFFFF7FF00A00440FFF8FFFE10F0FF1F13
:1013F00080B582B000AF7860034B802212039A6000
:10140000BD4602B080BDC04640F00FF880B582B046
:1014100000AF7860034B802212035A60BD4602B0D1
:1014200080BDC04640F00FF880B584B000AF786052
:10143000104BFB60FB687A681A600F4B0E4A5269CA
:1014400020210A435A610C4B0B4A126820218A431F
:101450001A600A4B094A5169094A0A408021490029
:101460000A435A61074BFA685A61FB68181CBD466B
:1014700004B080BD50F0FF1FC0F00F4000C004401A
:10148000FFF8FFFE10F0FF1F80B582B000AF78605C
:10149000024B20229A60BD4602B080BDC0F00FF81A
:1014A00080B582B000AF7860024B20225A60BD4602
:1014B00002B080BDC0F00FF880B584B000AF786096
:1014C000114BFB60FB687A681A60104B0F4A526937
:1014D000802189000A435A610C4B0C4A11680C4A5E
:1014E0000A401A600B4B0B4A516A0B4A0A40802192
:1014F00049000A435A62094BFA68DA62FB68181C11
:10150000BD4604B080BDC04654F0FF1F80F00F40C0
:10151000FFFDFFFF00B00440FFF8FFFE10F0FF1FCB
:1015200080B582B000AF7860044B044A5169044A28
:101530000A405A61BD4602B080BDC04680F00FF837
:10154000FFFDFFFF80B582B000AF7860044B044A16
:101550005269802189000A435A61BD4602B080BDAC
:1015600080F00FF880B584B000AF78600D4B5A69F9
:1015700080239B00134006D10A4B1A6980239B00ED
:101580001340FB6005E0074B1A6880239B00134063
:10159000FB60FB685A1E9341DBB2181CBD4604B0C9
:1015A00080BDC04680F00FF880B582B000AF786093
:1015B0000A1CFB1C1A70FB1C1B78002B04D0064B6A
:1015C000802292005A6003E0034B802292009A60CE
:1015D000BD4602B080BDC04680F00FF880B584B033
:1015E00000AF7860114BFB60FB687A681A60104BA3
:1015F0000F4A5269802149000A435A610C4B0C4A38
:1016000011680C4A0A401A600B4B0B4A116A0B4ACC
:101610000A40802149000A431A62094BFA689A621B
:10162000FB68181CBD4604B080BDC04658F0FF1FC3
:1016300080F00F40FFFEFFFF00B00440FFF8FFFE08
:1016400010F0FF1F80B582B000AF7860044B044AF1
:101650005169044A0A405A61BD4602B080BDC04685
:1016600080F00FF8FFFEFFFF80B582B000AF78601A
:10167000044B044A5269802149000A435A61BD461D
:1016800002B080BD80F00FF880B584B000AF786004
:101690000D4B5A6980235B00134006D10A4B1A692F
:1016A00080235B001340FB6005E0074B1A68802332
:1016B0005B001340FB60FB685A1E9341DBB2181CB1
:1016C000BD4604B080BDC04680F00FF880B582B042
:1016D00000AF78600A1CFB1C1A70FB1C1B78002BE7
:1016E00004D0064B802252005A6003E0034B802254
:1016F00052009A60BD4602B080BDC04680F00FF82F
:1017000080B584B000AF7860104BFB60FB687A68EE
:101710001A600F4B0E4A526920210A435A610C4B42
:101720000B4A126820218A431A600A4B094A516900
:10173000094A0A40802149000A435A61074BFA6866
:101740005A62FB68181CBD4604B080BD5CF0FF1FE8
:1017500000F00F4000900440FFF8FFFE10F0FF1F64
:1017600080B582B000AF7860044B044A52692021F2
:101770008A435A61BD4602B080BDC04600F00FF8F2
:1017800080B582B000AF7860044B044A52692021D2
:101790000A435A61BD4602B080BDC04600F00FF852
:1017A00080B584B000AF78600B4B5A69202313409A
:1017B00005D1094B1A6920231340FB6004E0064B56
:1017C0001A6820231340FB60FB685A1E9341DBB26A
:1017D000181CBD4604B080BD00F00FF880B582B083
:1017E00000AF78600A1CFB1C1A70FB1C1B78002BD6
:1017F00003D0054B20225A6002E0034B20229A605E
:10180000BD4602B080BDC04600F00FF880B584B080
:1018100000AF7860104BFB60FB687A681A600F4B72
:101820000E4A526910210A435A610C4B0B4A126846
:1018300010218A431A600A4B094A1169094A0A4071
:10184000802149000A431A61074BFA681A62FB6853
:10185000181CBD4604B080BD60F0FF1F00F00F40B3
:1018600000900440FFF8FFFE10F0FF1F80B582B02B
:1018700000AF7860044B044A526910218A435A61D0
:10188000BD4602B080BDC04600F00FF880B582B002
:1018900000AF7860044B044A526910210A435A6130
:1018A000BD4602B080BDC04600F00FF880B584B0E0
:1018B00000AF78600B4B5A691023134005D1094BD8
:1018C0001A6910231340FB6004E0064B1A681023CA
:1018D0001340FB60FB685A1E9341DBB2181CBD46E7
:1018E00004B080BD00F00FF880B582B000AF786022
:1018F0000A1CFB1C1A70FB1C1B78002B03D0054B29
:1019000010225A6002E0034B10229A60BD4602B0DA
:1019100080BDC04600F00FF880B584B000AF78609D
:10192000114BFB60FB687A681A60104B0F4A5269D2
:101930008021C9020A435A610C4B0C4A11680C4AB7
:101940000A401A600B4B0B4A916C0B4A0A408021EB
:1019500049000A439A64094BFA689A60FB68181CAC
:10196000BD4604B080BDC04664F0FF1F40F00F408C
:10197000FFFFFBFF00A00440FFF8FFFE10F0FF1F79
:1019800080B582B000AF7860034B8022D2029A60AB
:10199000BD4602B080BDC04640F00FF880B582B0B1
:1019A00000AF7860034B8022D2025A60BD4602B07D
:1019B00080BDC04640F00FF880B500AF054A064B29
:1019C000D31A054A101C00211A1C00F0CAF9BD46A2
:1019D00080BDC04694F0FF1F00F0FF1F01F0ACF97E
:1019E000FFF7E6FAFFF7E8FF01F0DAF901F058F93E
:1019F00001F0B0F9044B0020191C00F04FF9031C52
:101A0000181C00F083F9C04668F0FF1F80B582B053
:101A100000AF7860FEE7C04680B584B000AF786064
:101A20007B68FB60FB6803221A72BD4604B080BD70
:101A300080B584B000AF78607B68FB60FB681B7A80
:101A4000DBB2012B08D1FB685B68181CFEF760FF56
:101A5000FB6802221A7210E0FB681B7ADBB2022BD1
:101A60000BD1FB685A68FB680C33101C00211A1C50
:101A7000FEF75CFFFB6804221A72BD4604B080BD0D
:101A800080B584B000AF021CFB1D1A70FB1D1A78D4
:101A9000131C5B009B185B000A4A9B18FB60FB68E9
:101AA000181C6421FEF7C8FC031C1A1C131C1B0124
:101AB0009B1AFA68D31AFB60FB689BB2181CBD46E0
:101AC00004B080BDF10C000090B583B000AF0A1CDB
:101AD000BB1D011C19807B1D1A70BB1D1B88642255
:101AE000141C5C437B1D1B78181CFFF7C9FF031CEB
:101AF000201C191CFEF7A0FC031C5B089BB2181CE1
:101B0000BD4603B090BDC04680B582B000AF194B52
:101B10001B68181CFEF7D4FFC820FEF7F3FC154B1A
:101B200001221A72134B1B68181CFEF7BBFF09E059
:101B3000104B1B7ADBB2032B04D10E4B00221A721E
:101B4000002313E00B4B1B7ADBB2042BF0D1094BC3
:101B5000DB68FA2292005343181C0749FEF76CFC1D
:101B6000031C1A1CBB1D1A80BB1D1B88181CBD46FC
:101B700002B080BD6CF0FF1F3D0A000080B500AFD1
:101B80000A4B00221A72094B0022DA600020FEF78D
:101B900055FF021C054B1A60044B181CFEF742FE51
:101BA000021C024B5A60BD4680BDC0466CF0FF1F50
:101BB00090B587B002AF3C1C0E34FFF7A5FF031CA5
:101BC00023803A1D3B1C0E331B8805210091101CFD
:101BD00008211A1C2023FEF703FE01200521FFF730
:101BE000FFF83B1D181CFFF717F93C1C0C343B1C7D
:101BF0000E331B88181C1621FFF766FF031C238079
:101C00003A1D3B1C0C331B8805210091101C082138
:101C10001A1C2023FEF7E4FD02200521FFF7E0F85F
:101C20003B1D181CFFF7F8F83B1C0C331B88092BD5
:101C300005D8194B9B68181CFFF7A2FE04E0164B51
:101C40009B68181CFFF7AAFE3B1C0C331B88092B52
:101C50000AD93B1C0C331B88642B05D80E4B1B691F
:101C6000181CFFF779FB04E00B4B1B69181CFFF7EE
:101C70007FFB3B1C0C331B88642B05D9064BDB68B0
:101C8000181CFFF7B5FB04E0034BDB68181CFFF7DB
:101C9000BDFBBD4605B090BD10F0FF1F80B500AF85
:101CA000FFF70EFAFFF76AFFFFF75EF8074B012018
:101CB000191CFFF7C5F8064B0220191CFFF7C0F8E6
:101CC000FFF776FF3220FEF75DFCF9E7D42D000028
:101CD000DC2D000080B500AFBD4680BD80B582B070
:101CE00000AF78607B68181CFFF7A2FEBD4602B00B
:101CF00080BDC04680B582B000AF78607B68181C9C
:101D0000FFF78AFEBD4602B080BDC04638B5051C4F
:101D100001F004F800F0E8FF084C2368002B02D023
:101D2000984700202060064C2168002902D088478F
:101D300000222260281CFFF769FE38BD7CF0FF1FDF
:101D400080F0FF1F00B5C9B20378421C002B03D0FE
:101D50008B4205D0101CF7E74B42594149420840DD
:101D600000BD10B5041C00F002F8201C10BD30B5F9
:101D7000C9B2031C1F2A31D944420323234005D092
:101D8000D21AC51801700130A842FBD1002905D034
:101D90000D060C042C430B02214319435409031C68
:101DA000002C0ED0251C013D196059609960D96046
:101DB000196159619961D9612033002DF3D1630113
:101DC000C318D006400F07D0041C1D1C013C02C5DF
:101DD000002CFBD180001B18032422409D18002AF0
:101DE00003D019700133AB42FBD130BD00B5431EA7
:101DF00001331A78002AFBD1181A00BDF0B589B05A
:101E000001901F1C0EAB0391079202901A78081CD8
:101E100001990FAC01380026049225780670B14272
:101E200017D1119BB34214D1049B002B01D06F2D0D
:101E30002FD0642D02D0692D00D0A8E0022F02D14E
:101E4000039802389FE0012F00D0A0E003980238E9
:101E500094E0692D0ED004D8582D16D0642D1CD1D5
:101E600008E0752D04D0782D0FD06F2D15D110E01E
:101E7000002712E0019A002A0FDA80242606B242D7
:101E80000DD051420191029109E000273E1C10241F
:101E900007E000273E1C082403E0002600E001269E
:101EA0000A240090002006900298211CFEF708FBEF
:101EB00002980591211CFEF7BFFA059A0290092AA3
:101EC00001D8303205E0059A3732782D01D1059AD4
:101ED00057320098069B02990138D2B200900270E6
:101EE0000133002901D00693DEE7011C082C0BD139
:101EF0000498002808D0302A06D00B1C013B302261
:101F000000931A70069B0233079802280FD1002E07
:101F100001D1002F02D0109901391091109A11921D
:101F2000102C04D10498002801D0023A1192039990
:101F30000098119A091A8918164A914226DC0099CC
:101F4000CA181199121A8A4203DA01383022027033
:101F5000F5E7102C0AD1049C002C07D0019B002B24
:101F600004D0421E3021023815700170002E02D0BC
:101F700001382D2108E0012F02D101382B2103E087
:101F8000022F04D101382021017000E0002009B0A7
:101F9000F0BDC046FD010000F0B5B64C1E1CA544C6
:101FA0006B460A900B913E33202100201970089255
:101FB0000590089A1578002D00D1F9E1089825219F
:101FC000FFF7C0FE0C90002811D10898FFF70EFF14
:101FD0000599021C08180590002A00D1E8E10B9829
:101FE00008990A9EB047002800D0E1E1CEE00C9F9E
:101FF000089C05993A1B8B180593002A0CD10C9864
:102000000C9A437801321D1E252D0CD0002701218A
:10201000BC460D97069119E00B9808990A9DA847B0
:102020000028ECD1B2E00C9A00210232012408927F
:10203000079106943DE02B2B0BDC202B10D0232B9B
:1020400000D0BAE001239C46013213782B2BF2D149
:10205000ABE12D2B00D1A5E1302B00D0ADE004E0A9
:102060000D9D012DF0D00220A0E1069C002CEBD0AC
:1020700002200690E8E737680436FB43D80F9378D0
:1020800002321C1C683C0021042C00D8C1E0DDB2E7
:102090006E2B00D0C7E0013208926E2D00D149E1CD
:1020A00000D900E1632D00D159E107D8252D00D0DA
:1020B000F3E010AC25700996012619E0642D00D0DC
:1020C000EEE0321D09923068032900D0F6E007994E
:1020D0006646009601950291039790A9069A0D9B7A
:1020E000FFF78CFE041E00D13FE1634F6F443E1AA0
:1020F000069800283CD02023022800D130236F46C8
:102100003E373B7022782B2A04D02D2A02D0371C70
:10211000202A0BD1371C302B08D10B98211C01220F
:102120000A9B9847002831D00134771E069902296E
:102130000ED1612D01D0412D0AD1012F26DD0B9842
:10214000211C02220A9DA84700281FD0023F02340A
:10215000351C079EB54209DA69460B983E310122CB
:102160000A9B9847002811D00135F2E73E1C00E099
:10217000351C002E03D10698002819D115E0211C2A
:102180000B98321C0A9CA0470028F4D1012255422A
:1021900005950DE169463F3120240B9801220A9FE5
:1021A0000C70B8470028F1D00135079FBD42F1DB24
:1021B000059A53190593099EFBE6171C2A2B00D09C
:1021C000E1E0341D36680796002E03DA73420025DD
:1021D000079306957B780132261C284F0798B84252
:1021E00000DDC2E02E2B11D153782A2B00D142E71B
:1021F000013200271C1C303C092C05D80A214F4312
:1022000001323F191378F5E701203AE70027381C1F
:1022100037E71B4D295D1B4D2C57002C00D136E7AD
:102220005378013233E76E2B0ADC632B2CD002DCAF
:10223000582B30D115E0642B13D0692B2BD110E033
:10224000732B23D009DC6F2B0BD0702B23D10123F0
:102250007825082703219C461DE7752B01D0782B94
:1022600019D1002815D0069C022C00D013E70123B9
:10227000069310E7BCFDFFFF3F020000FD010000D8
:10228000F22D0000ED2D0000002804D1002902D11C
:1022900001E70127FFE6FF25FDE6582D65D116E091
:1022A000692D62D10DE7732D23D002D86F2D5CD13B
:1022B0000DE0752D0BD0782D57D108E0022901D102
:1022C00000B204E7012900D001E740B2FFE6341D67
:1022D00009943068032906D0022901D180B202E0B6
:1022E000012900D1C0B2079E624600920195029674
:1022F000F2E63468311D0991002C00D12F4C634661
:10230000002B07D026780134002800D1F0E6BE4229
:1023100037DCEDE6002808D0201C61463A1C00F0AE
:10232000B2FC00282DD0061BE2E6201CFFF75EFD64
:10233000061CDDE6351D09953468022907D00329FE
:102340000AD0002900D036E70598206033E76F46B1
:102350001421CB5B23802EE7059A22602BE733689C
:10236000301D10AC09902370A6E60C98FFF73EFDD7
:10237000059E021C35180595002819D00B980C995C
:102380002FE63E1CB4E600240794191C30390929B5
:1023900000D922E7079D0A236B43013258180790A2
:1023A0001378F2E7002706974EE601200D904BE6E2
:1023B00005989124A400A544F0BDC046EC2D000072
:1023C000F0B50027A9B0059006910F9309920D97DB
:1023D0000B9708970A970C970497099D2C78002C67
:1023E00000D103E3201C00F047FB002822D0099A0B
:1023F00001321078099200F03FFB0028F7D1002F3E
:1024000000D0F1E2002106980A1C059CA047061C9A
:1024100000F032FB002803D0049B01330493F1E762
:10242000701C04D12E98002800D1DFE20127069805
:10243000311CABE2252C1BD0002F19D1391C06987A
:102440003A1C059EB047C1B2A1420AD006980122AB
:10245000B0472E9F002F00D1C8E2099D0135099594
:10246000C2E2049B09990133013104930991B4E755
:102470001EAC201C00212822FFF773FC0998A54EF2
:1024800045786660281E25280CD1211C14A8282216
:10249000E57000F0EFFB099C0020023409940790DE
:1024A0000E90D7E02A2D02D0099C013405E00123CB
:1024B00009992370099C88780234021C303A092A51
:1024C0001FD800260A256E4330380134361820788C
:1024D000031C303B092BF5D91EAD6E60002E0ED1CA
:1024E00001235942E97014A8291C2822013400F064
:1024F000C1FB2B780994FF2507960E969DE00126D7
:102500006E701EA9682804D06C280CD10320887036
:1025100007E0637802228A70682B02D101258D7052
:102520006419607801341EABD8705838202871D8EF
:10253000FDF778FF7270702B70707070707070158E
:102540007270707070727070707072721170701939
:1025500070727070720003269E7078215BE09A782A
:10256000002A59D056E09978002901D0FF20D87070
:1025700000231EAAD518FF2601332E72202BF8D176
:10258000C121FE205172107346E09D78002D01D0CC
:10259000FF26DE7063785E2B02D00134002102E05A
:1025A000A378012102345D2B07D11EAB2020D87403
:1025B0006378013401E0E3780334002B00D139E281
:1025C0005D2B00D139E2DDB2EA081EAE0720B21859
:1025D000184001258540107A2E1C65780643167236
:1025E0002D2D14D1A278002A11D05D2A0FD00133ED
:1025F0009342E0DCDEB2F0081EAD281807251D402E
:102600000126AE40351C067A35430572EFE70134EA
:102610002B1CD2E7FF21D9701EAE311C282214A832
:1026200000F028FB6A467A327178107833780E9180
:102630000790F578013476680994002B06D1252D92
:1026400008D00F9A146804320F9200E000246E2D17
:1026500001D1ADE10024002F01D001270AE0069846
:10266000391C0222059B9847002803D02E9F002F7B
:10267000F3D1BBE1692D25D012D85B2D00D115E136
:1026800006D8252D00D1D3E0582D00D0AEE13EE094
:10269000632D00D17CE0642D00D0A7E10A2012E078
:1026A000732D00D1E6E007D86E2D00D180E16F2DAB
:1026B00000D09BE1082030E0752D2DD0782D00D082
:1026C00094E124E00020002F48D112A913AA11ADF3
:1026D00001910292311C0095059A069B00F0E3F9E6
:1026E000119E002E05D12E98002828D101240B948C
:1026F0007CE1049B129D9E190496002D05D080213B
:102700000A06904201D043422AE0031C28E0102030
:1027100003E0C046FFFFFF7F0A20002F1ED111AB50
:1027200013A912AD00930291069B311C0195059AE5
:1027300000F0B9F9119E031C002E03D1D3E7012745
:10274000331C0DE0049A129D90190490002D07D0BF
:1027500080210E06B34203D05B4201E00127002333
:10276000002C11D0079E032E09D8301CFDF75AFE0D
:1027700006020406237002E0238000E023600C9D23
:10278000794279416A180C920A9801300A906EE0F9
:102790000E98002800D10126002C33D00021119181
:1027A000A6198F4200D01FE1B44219D02E9A002AF8
:1027B00004D01198002811DA01230D930021069806
:1027C0000A1C059DA8470890013009D008AB1D7868
:1027D00025701199013401311191E5E700240D9420
:1027E000119E2E9A002E00D1A0E0002A03D00D9950
:1027F000002900D1F8E0049A0C9C9019013404904F
:102800000C94D1E01194013E701C0CD0002106986C
:102810000A1C059B9847013E0890013003D0119D8A
:1028200001351195F0E7119E002E00D0BCE0DDE0EF
:10283000002F00D0D5E0002106980A1C059EB04765
:10284000051C00F019F9002803D0049C01340494FD
:10285000F1E7252D08D001220698291CB0472E9AB1
:10286000002A00D142E7BCE004990131049101241F
:102870000B94B2E501230B93002F17D10698391C56
:102880003A1C059DA847051C00F0F6F8002806D064
:10289000049B00210133049306980A1CF1E70122EE
:1028A0000698291C059B984701220B92002C49D0C1
:1028B000002111918F4200D096E0013E351C711C21
:1028C00024D02E9A002A04D0119B002B1CDC01205E
:1028D0000D90002106980A1C059B9847089001302E
:1028E00014D008A90B7814A8DA08821808980721D0
:1028F0000140127A01208840104207D02370119DB8
:10290000013401351195D8E700260D96119B08AECC
:102910003178002B05D02E9800280AD00D9A002A75
:1029200007D101220698059FB8472E9A002A5DD04C
:102930005AE00020049E20700C9CF318013404938C
:102940000C942BE01194013E351C711C19D0002110
:1029500006980A1C059CA0470890013011D008A8D1
:10296000017814AACB080898D41807230340012142
:10297000247A9940013E214203D0119D01351195E1
:10298000E2E7119E002E05D1069808990122059BC9
:10299000984722E5049B089998190490002D03DBC1
:1029A00006980122059DA8470A9901310A9114E56C
:1029B000002C00D111E5079A032A00D90DE5101C5F
:1029C000FDF730FD070A02076D4610214A5B2280A1
:1029D00003E50498206000E568461026335C237008
:1029E000FBE401270B97F8E40127F6E400210698A1
:1029F0000222059DA8470A99002805D0002928D160
:102A0000012670420C9024E0002922D10B9A002A62
:102A10001FD00A9906980A1C059FB8470A99041CFA
:102A200002220698B8470028EAD10698211C012204
:102A3000B8470EE0FF211EABEDE5002900D1EBE524
:102A400020AD2A7828A8D6432E7001358542F8D1CA
:102A5000E2E50C9829B0F0BD8022031C00B50020EF
:102A600051008B4204D803480122C3185878104003
:102A700000BDC046F72D00008022031C00B50020D9
:102A800051008B4204D803481022C31858781040D4
:102A900000BDC046F72D0000031C613B00B5192B9B
:102AA00000D8203800BDF0B587B0059101930D998D
:102AB0000E9B009200220A60071C1A60904216DBEF
:102AC000012814D0242812DC0598904207DD009CD0
:102AD0000198111CA0470126041C351C02E0141C9F
:102AE000161C402500220392974209D002E0141CD4
:102AF000161C402501214842391CFDF79DFC03901E
:102B00000023029304930598864200DD9EE0621C38
:102B100000D19BE06022154200D097E0681E0F288C
:102B2000F1D8FDF775FC082EF03FF0F0F052F0F010
:102B3000F0F0F0F0F052201CFFF79EFF021E09D0CB
:102B40000021009C01980A1CA047041C0498013035
:102B50000490D8E72B2C07D1009D0198111CA847A1
:102B60000136041C0225CEE702252D2CCBD1111CE9
:102B70000198009B98470D9901220136041C0A60B8
:102B8000C1E7002F02D00825102FBCD10825302C1A
:102B9000B9D10021009C01980A1CA0470136041CF1
:102BA0000425B0E7582C01D0782C09D100210198D8
:102BB0000A1C009B98470136041C08251027A2E731
:102BC0001025002F9FD108279DE7002F00D10A274D
:102BD0000398002805D101225042391CFDF72CFC36
:102BE0000390201C3038092802D8B84211DB0BE0D2
:102BF000201CFFF731FF002806D0201CFFF74CFFF8
:102C0000011C3639B94203DD102D1DD120257AE78C
:102C10003738029D039C0123A54201D80E9B1B68F7
:102C2000029AC5B27A43D1438D4200D901230E9C4A
:102C30008018002123600290009D01980A1CA8477B
:102C40000136041C10255EE740255CE734273D4033
:102C500003D10C9B02951D6004E0049D013E0C997C
:102C600076190E60211C01980122009CA047029851
:102C700007B0F0BD10B50023934203D0CC5CC45420
:102C80000133F9E710BD00B5C9B28218904205D0F2
:102C9000037801308B42F9D1013800E0002000BDFB
:102CA00010B50B4C0B4B9C4202D001CC8047F9E78E
:102CB000094C0A48844202D008CC9847F9E7084CEE
:102CC00008498C4202D004CC9047F9E710BDC046B9
:102CD000F82E0000F82E0000F82E0000F82E00005C
:102CE000F82E0000F82E000010B5084C084B9C424E
:102CF00002D004CC9047F9E7064C0748844203D041
:102D0000043C21688847F8E710BDC046F82E000053
:102D1000F82E0000F82E0000F82E0000054B10B52C
:102D20001C68002C04D0A068616888472468F8E714
:102D300010BDC04684F0FF1F054B181C002805D0AD
:102D4000854681B00020C043009001B0F74670472F
:102D500000300020F746704700B588421FD0002A97
:102D60001DD00323194207D1184205D19A4203D935
:102D700008C9043A08C0F2E70123194209D11842F0
:102D800007D19A4205D90B88023A038002310230FA
:102D9000E5E70B78013A037001310130DFE700BD50
:102DA00038B50B4D002D11D000242B1919680029BE
:102DB00006D02B1958689A68FFF7CEFF0C34F4E759
:102DC0005A68002AF5D198680028F2D138BDC0466B
:102DD000F82E000075733A2000000000636D3A2061
:102DE00000000000040000000100000000010000DD
:102DF00000010200000003008080808080808080CD
:102E00008090909090908080808080808080808072
:102E1000808080808080808018040404040404047E
:102E20000404040404040404020202020202020272
:102E3000020204040404040404434343434343419F
:102E40004141414141414141414141414141414172
:102E500041414104040404040423232323232321A4
:102E60002121212121212121212121212121212152
:102E7000212121040404048000000000000000005F
:102E80000000000000000000000000000000000042
:102E90000000000000000000000000000000000032
:102EA0000000000000000000000000000000000022
:102EB0000000000000000000000000000000000012
:102EC0000000000000000000000000000000000002
:102ED00000000000000000000000000000000000F2
:102EE00000000000000000000000000000000000E2
:082EF0000000000000000000DA
:102EF800F82E000000F0FF1F000000000000000096
:082F08000000000000000000C1
:04000003000019DD03
:00000001FF
