:1000000000300020094C00008537000091370000C7
:1000100091370000913700009137000091370000C0
:1000200091370000913700009137000071280000DF
:10003000913700009137000071280000152800005A
:100040009137000091370000913700009137000090
:100050009137000091370000913700009137000080
:100060009137000091370000913700009137000070
:100070006946000091370000913700009137000079
:1000800091370000E53300001D36000055310000B7
:100090009137000091370000913700009137000040
:1000A0009137000091370000913700009137000030
:1000B0009137000091370000913700009137000020
:10040000FFFFFFFFFFFFFFFFFFFFFFFF7EFFFFFF7D
:1004100002B4714649084900095649008E4402BC9D
:100420007047C04602B4714649084900095C49005A
:100430008E4402BC7047C046002934D001230022FC
:1004400010B488422CD301242407A14204D2814253
:1004500002D209011B01F8E7E400A14204D2814263
:1004600002D249005B00F8E7884201D3401A1A43E0
:100470004C08A04202D3001B5C0822438C08A04217
:1004800002D3001B9C082243CC08A04202D3001BCD
:10049000DC082243002803D01B0901D00909E3E747
:1004A000101C10BC7047002801D00020C04307B4C6
:1004B000024802A14018029003BDC0461900000086
:1004C0000029F0D003B5FFF7B9FF0EBC4243891AEB
:1004D0001847C0467047C0468446081C6146FFE77F
:1004E0001FB500F017FA002801D40021C8421FBD33
:1004F00010B500F09FF94042013010BD10B500F07A
:1005000009FA002801DB002010BD012010BDC04603
:1005100010B500F0FFF9002801DD002010BD01201A
:1005200010BDC04610B500F0ADF9002801DC002078
:1005300010BD012010BDC04610B500F0A3F9002881
:1005400001DA002010BD012010BDC0469E2110B56B
:10055000C905041CFFF7F0FF002803D1201C00F0A0
:10056000F7FB10BD9E22201CD10500F01BFA00F005
:10057000EFFB80231C060019F3E7C04600000000D3
:1005800038B50E4B0C4A041C0D1C01F04FFB002823
:1005900004D1201C291C01F0A7FA38BD074B064ADC
:1005A000201C291C00F024FF01F09EFA802319066C
:1005B0004018F2E7C046C046000000000000E041DD
:1005C000F0B55F4656464D464446F0B445024400F9
:1005D00083B00E1C6D0A240EC70F002C07D1002D0E
:1005E00000D091E0042101228846924609E0FF2CC8
:1005F00055D08023180400210543ED007F3C884638
:100600008A46331C58007602D90F760A000E8B46B4
:100610004CD101229446002E00D081E05B467B4005
:100620006246414601930A430F2A50D9201A6901B4
:1006300081467501A94200D3B3E001225342994497
:100640001B2400260127621E381C10404B00760038
:10065000002900DAA9E09D4200D8A6E0013C002C68
:1006600000DCABE000280CD0191C76005B000029F0
:1006700001DB9D4201D85B1B3E43013C002C00DCAA
:100680009CE059007200002B01DB8D4201D8491B10
:100690003A43013C4B0056000029EADAEBE7002D13
:1006A0002DD10820022180468A46AAE7FF2820D0C3
:1006B0008022130400211E438C465B467B40624629
:1006C0004146F6007F3801930A430F2AAED85649B7
:1006D00092008A589746019BFF260025F005284383
:1006E000DE07304303B03CBC90469946A246AB4679
:1006F000F0BD331C5A1E934102339C468EE70C22F8
:10070000032390469A467CE7281C01F099FA76224A
:10071000441F5342A5401C1A00208046824670E7C1
:10072000301C01F08DFA7623411F8E405A42002181
:10073000101A8C4672E700233C4DFF26CEE75F4639
:10074000351C01976346022BC5D0032B63D0012BC8
:1007500043D049467F31002935DD0F272F40042F34
:1007600000D004352B0103D5314A4946154080316C
:10077000FE29B0DCA801450ACEB2019BAEE70026F7
:100780000025ABE78020C1030D4211D00E420FD1EE
:100790000E4373025D0AFF265B469FE701975346AF
:1007A000D1E7491B1A2401264CE75B1B3E4355E762
:1007B0000D436A02550A3B1CFF268FE71D1C6B1E6A
:1007C0009D413543C5E77E2467424A46B91A1B2935
:1007D00008DD019B0026002580E7019D00262B40B7
:1007E00000257BE74E469E36281CB5402B1C5D1E1F
:1007F000AB41C84003430F251D40042D00D00433F6
:100800005A0103D5019B0126002567E79C01650A73
:10081000019B002662E78027FC0325436E02750AD0
:10082000019BFF265AE7C04664790000FFFF7F0066
:10083000FFFFFFF74302420070B55C0AC60F130EBC
:1008400048024A00450A120EC90FFF2B05D0FF2AA5
:1008500008D0012093420BD070BD0120002CFBD1A9
:10086000FF2AF6D10120002DF6D101209342F3D1C9
:10087000AC42F1D18E4203D0002BEDD1002CEBD154
:100880000020E9E7F0B5430242004F00C60F4802DE
:100890005C0A450A130EC90F3A0EFF2B26D0FF2A19
:1008A00029D0002B0CD1604260418446002A0AD036
:1008B000002816D18E4221D0002E14D1012014E040
:1008C000002AF7D194466F426F416046002805D157
:1008D000002FEFD00120002E07D004E00020002FD1
:1008E00003D10029EAD101214842F0BD002CD6D025
:1008F00002225042F9E7002DD3D0F9E79342DBDC26
:1009000004DBAC42D8D80020AC42EED2002EEAD0B4
:100910000120EAE7F0B5430242004F00C60F48024B
:100920005C0A450A130EC90F3A0EFF2B26D0FF2A88
:1009300028D0002B0FD0002A14D194466F426F416B
:100940006046002814D00020002F03D100290DD1CB
:1009500001214842F0BD604260418446002AEDD04A
:100960000028F3D18E4211D0002EF1D10120F1E701
:10097000002FF7D00120002EECD0E9E70220002C58
:10098000E8D1D4E70220002DE4D1D2E79342EBDC9A
:1009900004DBAC42E8D80020AC42DBD2002ED7D03A
:1009A0000120D7E7F8B5430245004F024C00C20FC3
:1009B000980984462D0E200EC90FBF09FF2851D07B
:1009C000012671408A4238D02C1A002C00DC86E0C7
:1009D000002822D1002F48D16E1C2C1C6346151C08
:1009E0000F221A40042A00D0043301222A40580161
:1009F00006D5FF2E00D181E0B04D341C2B400136CE
:100A0000F6B2DD08012E62DD6802450AE4B2E405B3
:100A10002543281CD2071043F8BDFF2D51D080215B
:100A2000CB041F4301261B2C70DD67462C1CBB1B0F
:100A3000151C580122D4661CD2E72E1A002E76DD32
:100A4000002832D0FF2D3CD08024E1040F43012345
:100A50001B2E00DCD1E063442C1C58017AD4661CA8
:100A6000151CBDE7002FADD1AAE7013C002C6DD1CC
:100A700063462C1CDB1B151C5801DCD59A0196091A
:100A8000301C01F0DDF805388640844239DC001B5B
:100A90001F231A1A331C311C441C9340E1405E1E74
:100AA000B3410B43012600249AE7002F00D193E7BE
:100AB000013E002E03D164463B192C1CCDE7FF2DCF
:100AC000C5D1151C802263465600FF2488E7002DFF
:100AD0009CD0002C28D08027F9030D4394E7002CEC
:100AE00045D16B1CD8B2012800DC90E06446E61BBF
:100AF000730157D53E1B2C1C0D1CC1E7FF2400259C
:100B000085E76E4B241A3340661C69E7381C2021A8
:100B1000E0400C1BA7403E1C771EBE4106436746C3
:100B20002C1CBB1B151C84E76B025D0A6FE7002EB3
:100B300079D16C1CE0B201284BDDFF2C00D198E08C
:100B400061467F18AE1C7B08151C49E7FF2D00D0BD
:100B500068E7B6E7671CFF2F36D0584801211940D7
:100B600003405B08A61C0B433C1C151C38E766427F
:100B7000002D1ED0FF286FD080256246EB041A435B
:100B8000944601251B2E09DC62462023F240644670
:100B90009E1BB440251C6C1EA54115437B1B041CE9
:100BA0000D1C69E7002E0CD100220126042300242D
:100BB0001DE76446002C55D1461C3B1C041C0D1C33
:100BC0000EE72C1C151C5BE780235E00FF2404232A
:100BD0000DE7002D00D08CE06546002D00D1ACE083
:100BE000002F00D180E07B195C0100D47DE0334F01
:100BF000151C3B4002260124F2E6381C2023F0405D
:100C00009E1BB7403B1C5F1EBB41034323E7002DE7
:100C100015D16546002D47D1002FC5D03B1C0D1CBA
:100C200001260024DCE67642002D26D16546002D03
:100C300000D07CE0461C3B1C041C151CD0E665461D
:100C4000002D3FD1002F07D1802100224E001C4BE8
:100C5000FF24CCE6FF2894D180203B1C0D1C4600CD
:100C6000FF24BDE6013E002EF4D13B1B0D1C041CED
:100C700002E780256E000423B9E6FF2851D08024C6
:100C80006146E30419438C4601231B2E09DC202115
:100C90006446F44065468E1BB5402B1C591E8B41A3
:100CA0002343DB19041CD8E6002F1DD0EB1B580191
:100CB0004AD57B1B01260D1C002491E6FFFFFFFB9C
:100CC000FCFFFF03002F00D1FBE68020EB08C403EC
:100CD000234237D0FF08274234D13B1C0D1C802211
:100CE000DB005600FF247BE66346151C012600242A
:100CF00076E66446002C14D0002F00D1E1E6802374
:100D0000E608D803311C064203D0F908014200D09E
:100D1000311C151C8022CB005600FF2460E6FF2802
:100D2000B2D180203B1C151C4600FF2458E6013E32
:100D3000002EF4D17B19041C8FE63B1C151C0126E8
:100D400000244DE6151CCAE7002B00D12CE7CCE7A8
:100D500043024200590A00B5130EC20F00207E2B39
:100D60000DDD9D2B0CDC802000040143952B0ADC5B
:100D70009620C31AD9404842002A00D1081C00BD61
:100D800002495018FBE7963B9940F4E7FFFFFF7FCD
:100D900070B5041E3CD0C50F00D04442201C00F0AA
:100DA0004FFF9E21261C0B1A962B0ADC0838844024
:100DB00061024C0ADBB2DB051C43ED07201C284313
:100DC00070BD992B0ADD0522141A311CE140041C68
:100DD0001B34A6400A1C711E8E41164305281BDCDD
:100DE000144C0F2234401640042E00D0043462010B
:100DF00005D59F231B1AFF2B0CD00E4804405E1C08
:100E0000F1B2E40801290ADD6402640ADBB2D2E728
:100E1000002500230024CEE7411F8E40E0E7002C90
:100E2000F4D0002B03D08022D0030443ECE7660209
:100E3000740AC0E7FFFFFFFBF0B54D4644465F462E
:100E40005646F0B41D1C4B00141C0E035B0DCA0F5C
:100E500087B0071C360B98469146002B1DD1321CDB
:100E6000024300D181E1002E00D104E2301C00F0E9
:100E7000E7FE272800DDF8E12821031C083B0A1AB9
:100E8000391C9E40D1400E439F40C14B0021181A8F
:100E9000002280468A4600920FE0BE48834231D04D
:100EA00080214B031E43BC487A0FF600002100232B
:100EB0001643FF0080448A460093291C201C251CF1
:100EC0004A000C03CB0F240B520D9B4625D1211C4D
:100ED000014300D150E1002C00D1C2E1201C00F000
:100EE000AFFE272800DDB6E1031C2822083B291CA1
:100EF000121A9C40D1400C439D40A54B1A1A002069
:100F0000029019E0321C3A4300D029E1082702235D
:100F1000BA46002600270093CFE79E48824200D1C0
:100F200013E180214B031C439B49680FE40000231D
:100F30000443ED005218029348465B464340029832
:100F40005146019301430F2900D8DFE043469A1A26
:100F50000492A64200D86EE171087B08F60733437D
:100F6000FA07894698460292280E240204432D026D
:100F70002704390CAB46250C00914846291CFFF785
:100F80005BFA009F061C4743291C4846FFF798FA66
:100F9000434608041A0C1043874207D90019013E42
:100FA000844203D8874201D9013E0019C11B8A46F9
:100FB000081C291CFFF740FA009B071C4343291C0F
:100FC00050469946FFF77CFA424610040B04010C88
:100FD0000B43994504D91B19013F9C4200D864E199
:100FE00036043E435F464A46390C89469B1A5946A9
:100FF0003204170C0A0449467943120C03928C46BA
:101000000399300C7A4341434F4678438C44170C84
:101010006744B94202D9802149024018390C1204B0
:1010200040183F04110C7F18834200D227E100D101
:1010300041E102991B1ACF1BB942804141425A1A21
:101040009046A24200D15FE1101C291CFFF7F4F981
:10105000009B02904343291C40469A46FFF730FA12
:10106000380C090401438A450AD9029A0919013A40
:1010700002928C4204D88A4502D9013A0292091997
:101080005346C81A291C0590FFF7D6F9009A291C67
:101090004243804605989246FFF712FA3F040D043A
:1010A0003A0C2A43924509D901214B42121998441E
:1010B000944203D8924501D998441219029D43469F
:1010C0002F041F435046111A3804030C4D465D434C
:1010D0000398AC46039D3A0C584355434B465A433C
:1010E000AC44030C63449D4202D980256D02521921
:1010F0001D0C000452191B04050C5B19914200D20F
:10110000E6E000D13DE1012217435AE0890023487F
:101110008C46604401688F46019B1E4A00260027CA
:1011200000200021381C0F0D3C051D4D34431205D5
:10113000254015436E00DB077108194307B03CBC1E
:1011400090469946A246AB46F0BD211C0320294398
:10115000029000D0F0E60223002400250293EBE683
:101160000C20032182460091A7E604270123BA46FA
:10117000002600270093A0E601210024002502910B
:10118000DAE601270023074E7F42024AC8E7C0463D
:101190000DFCFFFFFF07000001FCFFFFA47900002A
:1011A000FFFF0F80FFFF0F002F1C5A46029D261CD9
:1011B0000192022DB0D0032D00D101E1012D00D10B
:1011C0009CE0049B82481A18002A00DC8CE00F2463
:1011D0003C40042C05D03B1DBB42BF417D427619EB
:1011E0001F1CF10105D57B4A04998020C4001640DC
:1011F0000A19794B9A4200DD8EE77507FF087602DF
:1012000051052F43360B4A0D019B89E7002200262A
:10121000002785E7802001030E4216D00C4214D12E
:101220000C432603360B5B462F1C6C4A78E74C4672
:101230000194009DBDE7A64243D00498B84601380A
:1012400000270490B14602978EE60E4333031E0B2F
:10125000624A4B4664E7041C283CA5402C1C002530
:101260004BE600F0EDFC20303BE6061C283EB74084
:101270003E1C002709E600F0E3FC2030F9E5029A65
:10128000013E111C59445945924152421219D3183A
:101290009C4204D298426BD816D01B1ACBE6A342CC
:1012A000FBD18B45F6D9231AC5E6994500D897E6B8
:1012B000013F1B1994E6029ABA42E0D30299002337
:1012C000B9E6AF42B9D947E68F4251D80023B2E61A
:1012D0000919013F58468C4219D9914200D012E7B2
:1012E000984200D00FE76CE73D4C049D631B382B00
:1012F0001CDD019B00220026002711E7019B002234
:101300002B40002600270BE701277F4259E78A423E
:1013100003D800D0F7E69842E2D25D46680058450F
:10132000AD416D422C19013F0919D6E71F2B34DC62
:10133000049C2C4A381CA518311CAF40D840A94049
:101340003C1C0143671EBC410F1C2743DE400F239A
:101350003B40042B05D03A1DBA42BF417D4276196D
:10136000171C320211D5019B012200260027D7E667
:1013700059445945924152421219D318013E1B1A41
:1013800059E6002BA4D10020AAE77007FF087102DC
:1013900007430E0B019B0022C2E61349049C301C3C
:1013A0000A1BD040051C202B08D0104BE1188E40A2
:1013B00037437B1E9F412F430026C8E70026F7E7EF
:1013C00080221003064331030E0B019B034AA7E65C
:1013D000FF030000FFFFFFFEFE070000FF07000005
:1013E00002FCFFFF1E040000E2FBFFFF3E040000C2
:1013F000F0B557464E464546E0B4071C0D034E0077
:10140000680ACC0F790F08438446111C18035A0050
:10141000FD00400ADF0F4B0F1843C74BC900760D84
:10142000520D8A469A4200D1DEE001235F40B94660
:10143000BC4200D1A6E0B71A002F00DC0BE1002A65
:1014400012D15246024300D1D2E0013F002F00D01A
:101450005BE151466F1ABD42AD4162466B42101AC4
:101460003D1CC31A371C24E0B34A964200D1DEE08B
:1014700080210B041843382F00DD1EE11F2F00DDF3
:1014800060E12021C91B021C53468A40FB401A43DD
:1014900053468B40191C4B1E9941031C0A43FB40C9
:1014A000AA1A67469542AD41F81A6B42C31A151C39
:1014B000371C1A0200D4C2E05E02710A8846424616
:1014C000002A00D1EBE0404600F0BAFB021C083ACB
:1014D0001F2A00DDECE02823181A2E1C4146C640C6
:1014E0009140331C0B439540974200DDA4E0D01B94
:1014F000411C1F2900DD0DE11F273A1A2E1C181C64
:10150000CE409040954030436A1E9541CB40054304
:10151000012100270F262E40042E00D170E02E1D41
:10152000AE42AD41684201221B181440180207D593
:10153000814FB94200D1AEE0804D0F1C2B400131EC
:10154000F20849055E073243DB08480D012800DC3C
:1015500077E01B037F051B0B7E0D002000210D0D86
:10156000101C2905764A0B4377057E081A40324342
:1015700053005D08291CE40721431CBC9046994692
:10158000A246F0BDB31A002B00DCA3E0002A3BD03A
:10159000694A96424BD080210F043843382B00DC37
:1015A00014E15346184300270022002800D00122EE
:1015B0005219AA42AD4167446B42FB18151C371CF7
:1015C0001E023CD55C487E1C864200D177E15B4917
:1015D00001222A400B406808151CD90705430D431A
:1015E0005B08B91C371C95E7014300D11DE71EE7D6
:1015F000711C371C0F2663462E40042E00D08EE748
:10160000012214402E1C91E752460243F0D0013BC8
:10161000002B09D157467919A9429241554260449D
:101620004319371C0D1CCBE743498E42B6D18020AD
:1016300063460101371C6DE7BF1A404A1340791C0D
:1016400068E7151C1D4300D120E2002F3ED0802604
:1016500031030B437DE7002F00D085E0721C51055C
:101660004B0D012B00DCEFE05746EA1B95429B41F6
:101670006746391A5B42C91A88460B0200D49CE0BF
:101680005446651BAA459241C01B5742C31B98464E
:10169000371C4C4613E70E1C002300225DE7281C74
:1016A00000F0CEFA2030021C083A1F2A00DC12E7B4
:1016B000283885402B1C002516E757463843002361
:1016C0000022002800D1EBE60122E9E61803030B13
:1016D000002642E7002B00D0D8E0771C79054A0DA0
:1016E000012A00DC94E0144B9F4200D1FDE05146FA
:1016F0004919A942AD4162466B428018C218490897
:10170000D5070D435308B11C04E70B498E4200D0A6
:10171000B1E68CE7061C1F3E1F1CF7403E1C20292B
:1017200072D03F22101A83401D436B1E9D413543EA
:10173000012100230027EDE6FF070000FFFF7FFFE8
:10174000FFFF0F803B1C203B011CD9400B1C202FAE
:101750005CD04022D71BB840021C50460243511EA9
:101760008A411A4300239BE67F42002E40D0CA4C98
:10177000A24200D11FE1802166460B041E43B446FD
:10178000382F00DDA9E01F2F00DD3DE12023DE1B07
:10179000291C6446B440F940B5406B1E9D4121436D
:1017A00063460D43FB4057467D1BC01AAA459B412B
:1017B0005F42C31B4C46171C7BE60D1C154320D112
:1017C00000240121002304260027AFE61F2B4ADC5A
:1017D0002021C91A071C52468F40DA403A43574627
:1017E0008F40391C4F1EB941D8400A43071CDFE621
:1017F00064462C4369D1511C031C5546171C4C46AA
:1018000088E6151C371C5AE600238DE70022A4E762
:1018100067462F43002E00D0D4E0002F00D126E1F0
:101820005346034300D1E4E051464F19AF42AD4166
:1018300060446E4283191E0200D44EE197483D1C5D
:1018400003400221012765E661462943002E29D184
:10185000002976D151460143B2D0031C55464C466F
:101860000121002756E61F1C203F011CF9400F1CD8
:10187000202B00D1C6E04022D31A9840021C5046CB
:101880000243531E9A413A43002791E65B42002EE1
:1018900030D167462F4300D0C8E0511C031C554689
:1018A000171C37E6002965D15746074300D1C8E029
:1018B000031C802055464C460101774F2AE68023C1
:1018C000371C19010426002330E6013F002F6ED19A
:1018D00054466146651B401A68E767463D4300234E
:1018E000002D00D15FE701255DE78026310100234F
:1018F00004261BE668498A4200D1C1E0802766467B
:1019000039040E43B446382B00DDA2E01F2B00DD66
:10191000D0E02021C91A2E1C67468F408D40DE4042
:101920003E43291C67464D1EA941DF40351C0D432F
:101930003E1C554455459B4130185E428319171C87
:101940003EE65646064354D05746EA1B6346954248
:10195000B641191A7342CB1A1E0200D4A2E07D1BB5
:101960006446AA45BF41001B7A42831A4C460121B6
:101970000027CFE5564606433FD0624680215707F1
:10198000ED08D3080A033D43134208D0C6081642A7
:1019900005D15546EC0845072543331C4C46680FD6
:1019A000DB0080260343ED0031013B4FB2E53A49AD
:1019B0008A4200D0E4E68026031C55464C4631019D
:1019C000171CA7E5002F4CD05346034315D06246A1
:1019D0008026ED085107D30837030D433B42DED084
:1019E000C2083A42DBD15546E9084507131C0D43AE
:1019F000D5E76346012100278CE58027390163463E
:101A0000254F87E500223AE73C1C203C6646E6402D
:101A1000331C202F5FD04024E71B6646BE40311C9C
:101A20000D43691E8D411D430023BCE6013B002B85
:101A300022D155445545BF417B426044C318171C11
:101A4000BEE58021042200240901154B5642124FA5
:101A50006CE563461D430026002D00D169E7012592
:101A600067E78022031C554611010B4F52E5031C0A
:101A70005546012100274DE507498A4200D042E73B
:101A80008021031C55460901171C43E57A05560DB4
:101A90000023002261E5C046FF070000FFFF7FFF33
:101AA000FFFF7F001D1C154300D189E6151C012195
:101AB00000272FE51F1C203F6146F940202B10D046
:101AC0004026F31A67469F403B1C1D436B1E9D41F9
:101AD0000D4300262DE70021A2E73D1C0121002730
:101AE00018E50023F1E7C046134A0B0330B5051C87
:101AF00048001C0BC90F430D0020934211DD0F4815
:101B000083420FDC802250030D4A0443D01A1F2861
:101B10000BDD0C4DEB1ADC40221C5042002900D199
:101B2000101C30BD084C0819FBE7C54007482A1CAB
:101B30001D18AC402243F0E7FE0300001D04000026
:101B40003304000013040000FFFFFF7FEDFBFFFFE5
:101B5000F8B5041E2DD0C50F00D04442201C00F063
:101B60006FF816490A1A0A2816DD0B388440570503
:101B700026037A0D360B002700200021381C0F0D9C
:101B80003B050F4C33431C401605344361004A08A3
:101B9000ED07111C2943F8BD0B26011C301A153125
:101BA000231CC4408B40520521031F1C0E0B520DF9
:101BB000E2E70025002200260027DDE71E040000E2
:101BC000FFFF0F808446101C62468C46191C63463A
:101BD00000E0C0461FB500F003F9002801D4002141
:101BE000C8421FBD10B500F049F84042013010BD99
:101BF00010B500F0F5F8002801DB002010BD012031
:101C000010BDC04610B500F0EBF8002801DD002043
:101C100010BD012010BDC04610B500F06DF80028C1
:101C200001DC002010BD012010BDC04610B500F041
:101C300063F8002801DA002010BD012010BDC04665
:101C40001C2101231B04984201D3000C10391B0AEC
:101C5000984201D3000A08391B09984201D30009B0
:101C6000043902A2105C40187047C0460403020207
:101C7000010101010000000000000000F0B59446E1
:101C800047461A03061C580080B4170B420D19482A
:101C90000D034C00DB0F2D0B640DC90F98468442D9
:101CA00008D0144882420DD00120944212D004BCC6
:101CB0009046F0BD2B1C33430120002BF7D10D487B
:101CC0008242F1D163463B430120002BEFD101203A
:101CD0009442ECD1BD42EAD16645E8D1414506D0F7
:101CE000002CE4D1281C3043451EA841DFE700202A
:101CF000DDE7C046FF070000F0B557464E464546B3
:101D0000E0B4041C4E000803C90F8A46171C590092
:101D10001A03050B700D160B4A0D3049DB0F9C465C
:101D2000884232D02D498A4235D000280FD1291C53
:101D300021434B424B419846002A0BD0002B1AD12D
:101D4000E2452CD05546002D18D1012018E0002A7C
:101D5000F6D19046311C39434B424B414146002954
:101D600006D1002BECD056460120002E08D005E00D
:101D70000020002B04D16746002FE6D101235842F2
:101D80001CBC90469946A246F0BD2B1C2343C9D0EB
:101D900002214842F4E7331C3B43C6D0F8E79042A7
:101DA00005DC09DA5246002AE8D00120E8E754466B
:101DB000002CE3D10120E3E7B542C3D807D00020CF
:101DC000B542DDD250460028D8D00120D8E7BC4229
:101DD000B8D80020BC42F5D3D2E7C046FF070000C8
:101DE000F0B544465F4656464D46F0B49446061C50
:101DF0001A035800170B420D2E480D034C00DB0F41
:101E00002D0B640DC90F9846844233D02948824275
:101E100036D0002C19D0002A20D1934663463B438C
:101E2000584258415B468246002B1DD05146002047
:101E3000002904D14246002A14D1012460423CBC4E
:101E400090469946A246AB46F0BD2B1C3343584200
:101E500043419B46002AE1D0002BEBD1414515D0F0
:101E60000029EAD10120EAE70028F7D00120002963
:101E7000E5D0E2E72B1C33430220002BDFD1C5E77E
:101E800063463B430220002BD9D1C2E79442E7DCF2
:101E900005DBBD42E4D806D00020BD42CFD20029E8
:101EA000CBD00120CBE76645DAD800206645F6D3D3
:101EB000C5E7C046FF07000090B58DB004AFF860DD
:101EC000B9603B60BB1D1A80BB1D1B889B00181CA2
:101ED00000F098FD031C7B617B69002B10D058201B
:101EE00000F090FD031CFB61FB69002B03D0FB6934
:101EF0007A691A6306E07B69181C00F0CDFD01E0E9
:101F00000023FB61FB69002B15D0BB1D1A88F86804
:101F1000B9683B683C6B00947C6B0194FC6902944B
:101F20000024039400F010F8FB69181C00F08EF8F0
:101F30000123BB6102E001235B42BB61BB69181C4A
:101F4000BD4609B090BDC04680B586B000AFF86010
:101F5000B9607A603B60BB6A1A6B7B689B00101C9F
:101F6000A5211A1C04F09AFBBB6A1A6B7B68013B23
:101F70009B00D3183B613B69072293433B613A695D
:101F80000723134001D072B6FEE7BB6A3A695A6470
:101F900000237B6112E0BA687B69D3181A78B86AAB
:101FA000302379694118CB181A71BA687B69D31844
:101FB0001B78002B06D07B6901337B617B690E2B7C
:101FC000E9D900E0C046BA6A42230021D1543B6AF5
:101FD000052B01D905233B62BB6A3A6ADA62BB6A08
:101FE0003A6A9A64BB6A0022DA64BB6A0433181C3A
:101FF00000F07EFCBB6A1833181C00F079FCBB6A49
:10200000BA6A1A613B6A0622D21ABB6A9A61BB6A33
:10201000BA6A5A62BB6A00221A65BA6A542300215E
:10202000D1543969FA683B68081C111C1A1C00F06D
:102030004BFB021CBB6A1A607B6A002B02D07B6AD6
:10204000BA6A1A60BD4606B080BDC04680B582B08F
:1020500000AF786000F0B0FB274B1B685A1C264B82
:102060001A60264B1B68002B09D1244B7A681A6032
:10207000214B1B68012B10D100F06EFA0DE0204BB4
:102080001B68002B09D11D4B1B68DA6A7B68DB6A71
:102090009A4202D8194B7A681A601A4B1B685A1C6C
:1020A000184B1A607B68DA6A174B1B689A4203D98F
:1020B0007B68DA6A144B1A607B68DA6A131C9B002F
:1020C0009B189B00114A9A187B680433101C191C3A
:1020D00000F018FC00F080FB094B1B68002B08D0B7
:1020E000064B1B68DA6A7B68DB6A9A4201D200F011
:1020F00083FBBD4602B080BDFCF0FF1F28F0FF1F30
:1021000008F1FF1F18F1FF1F04F1FF1F2CF0FF1F44
:1021100080B584B000AF78600023FB607B68002B43
:1021200010D00C4B1B68002B01D072B6FEE700F0FC
:1021300049F87B68181C002100F072FA00F04EF894
:10214000031CFB60FB68002B01D100F055FBBD4672
:1021500004B080BD24F1FF1F80B584B002AF134AE4
:10216000134B0021009113490191101C191C64228A
:102170000023FFF7A1FE031C7B607B68012B0DD1C0
:1021800072B60D4B012252421A600C4B01221A60AA
:102190000B4B00221A6000F0F5FA04E07B68013373
:1021A00001D172B6FEE7BD4602B080BD3525000004
:1021B000BC75000020F1FF1F1CF1FF1F08F1FF1F7D
:1021C00000F1FF1F80B500AF034B1B685A1C024B88
:1021D0001A60BD4680BDC04624F1FF1F80B584B0A3
:1021E00000AF0023FB600023BB603A4B1B68002B51
:1021F00001D172B6FEE700F0DFFA364B1B685A1EBB
:10220000344B1A60334B1B68002B5CD1324B1B687C
:10221000002B58D02FE0314BDB68DB68FB60FB689C
:102220001833181C00F0C6FBFB680433181C00F0C0
:10223000C1FBFB68DA6A2A4B1B689A4203D9FB6828
:10224000DA6A274B1A60FB68DA6A131C9B009B183A
:102250009B00244A9A18FB680433101C191C00F0D8
:1022600051FBFB68DA6A204B1B68DB6A9A4202D397
:102270001E4B01221A60194B1B68002BCBD1FB6847
:10228000002B01D000F0AAF9194B1B687B607B681A
:10229000002B10D000F02EF8031C002B02D0134BA3
:1022A00001221A607B68013B7B607B68002BF1D1C7
:1022B0000F4B00221A600D4B1B68002B03D001232B
:1022C000BB6000F099FA00F087FABB68181CBD46A5
:1022D00004B080BD24F1FF1FFCF0FF1FD4F0FF1FEE
:1022E00004F1FF1F2CF0FF1F28F0FF1F10F1FF1F4C
:1022F0000CF1FF1F80B586B000AF00237B61514B0E
:102300001B68002B00D08BE04F4B1B6801333B61F7
:102310004D4B3A691A603B69002B17D14B4B1B6838
:102320001B68002B01D072B6FEE7484B1B68FB60B0
:10233000474B1A68454B1A60454BFA681A60454B83
:102340001B685A1C434B1A6000F048F9424B1B684B
:102350003A699A4250D300E0C0463C4B1B681B6868
:10236000002B01D1012300E00023002B04D03A4BC5
:10237000012252421A603FE0344B1B68DB68DB6885
:10238000BB60BB685B687B603A697B689A4203D23A
:10239000314B7A681A602FE0BB680433181C00F0D8
:1023A00009FBBB689B6A002B04D0BB681833181C60
:1023B00000F000FBBB68DA6A284B1B689A4203D91D
:1023C000BB68DA6A254B1A60BB68DA6A131C9B008B
:1023D0009B189B00224A9A18BB680433101C191CD6
:1023E00000F090FABB68DA6A1E4B1B68DB6A9A42FF
:1023F000B2D301237B61AFE71A4B1B68DA6A184935
:10240000131C9B009B189B005B58012B01D90123D7
:102410007B61154B1B68002B09D103F07DFE06E0A4
:10242000114B1B685A1C104B1A6003F075FE0F4BC2
:102430001B68002B01D001237B617B69181CBD4602
:1024400006B080BD24F1FF1F00F1FF1FCCF0FF1F7D
:10245000D0F0FF1F14F1FF1F1CF1FF1F04F1FF1F3D
:102460002CF0FF1F28F0FF1F0CF1FF1F10F1FF1FC2
:1024700080B582B000AF2A4B1B68002B03D0294BDC
:1024800001221A6048E0274B00221A60264B1B6885
:102490001A68254B1B681B6B9A4208D8224B1A6896
:1024A000214B1B683433101C191C03F02DFE1F4BED
:1024B0001B687B6007E07B68002B01D172B6FEE7EA
:1024C0007B68013B7B601A497A68131C9B009B1850
:1024D0009B005B58002BEED07A68131C9B009B1866
:1024E0009B00134A9B183B603B685B685A683B68DB
:1024F0005A603B685A683B6808339A4204D13B688B
:102500005B685A683B685A603B685B68DA68064BF0
:102510001A60064B7A681A60BD4602B080BDC0469C
:1025200024F1FF1F10F1FF1F28F0FF1F04F1FF1F10
:102530002CF0FF1F80B582B000AF786000F04AF841
:10254000044B1B68012B01D900F056F903F0E8FD9C
:10255000F4E7C0462CF0FF1F80B582B000AF002327
:102560007B600CE07A68131C9B009B189B00124A4E
:102570009B18181C00F09EF97B6801337B607B6818
:10258000052BEFD90D4B181C00F094F90C4B181CBF
:1025900000F090F90B4B181C00F08CF90A4B181C3A
:1025A00000F088F9094B054A1A60094B044A1A6081
:1025B000BD4602B080BDC0462CF0FF1FA4F0FF1F37
:1025C000B8F0FF1FD4F0FF1FE8F0FF1FCCF0FF1F93
:1025D000D0F0FF1F80B500AFBD4680BD80B582B092
:1025E00000AF0D4B1B681B68002B01D1012300E0DD
:1025F0000023002B04D0094B012252421A6008E04C
:10260000054B1B68DB68DB687B607B685A68034BA3
:102610001A60BD4602B080BDCCF0FF1F1CF1FF1F49
:1026200080B584B000AF78603960214B1B68FB60D7
:10263000204B1B680433181C00F0BCF97B68013385
:102640000BD13B68002B08D01A4B1B6804331A4A85
:10265000101C191C00F056F926E0FA687B68D318A4
:10266000BB60144B1B68BA685A60BA68FB689A4230
:1026700009D2124B1A680F4B1B680433101C191C2B
:1026800000F062F910E00E4B1A680A4B1B68043325
:10269000101C191C00F058F90A4B1B68BA689A42C2
:1026A00002D2084BBA681A60BD4604B080BDC0466D
:1026B00000F1FF1F28F0FF1FE8F0FF1FD0F0FF1F01
:1026C000CCF0FF1F1CF1FF1F80B584B000AFF86095
:1026D000B9607A60FB68043BFB60FB6880225204AF
:1026E0001A60FB68043BFB60BA68FB681A60FB6811
:1026F000043BFB60FB6800221A60FB68143BFB6034
:102700007A68FB681A60FB68203BFB60FB68181C5A
:10271000BD4604B080BDC04680B500AF0A4B0A4A32
:102720001268C02109060A431A60084B06221A6083
:10273000074B084A1A60084B00221A60034B072215
:102740001A60BD4680BDC04620ED00E010E000E00C
:1027500014E000E03233030018E000E080B500AF81
:10276000024B07221A60BD4680BDC04610E000E063
:1027700080B500AF024B06221A60BD4680BDC04640
:1027800010E000E080B500AF094B094A1268F02163
:1027900089040A431A60074B00221A60FFF7BCFF46
:1027A000FFF7DCFF00F044F80023181CBD4680BD95
:1027B00020ED00E000F0FF1F80B500AF72B6054BC2
:1027C0001B685A1C034B1A60BFF34F8FBFF36F8F08
:1027D000BD4680BD00F0FF1F80B500AF054B1B68F4
:1027E0005A1E044B1A60034B1B68002B00D162B6C3
:1027F000BD4680BD00F0FF1F80B500AF044B8022B6
:1028000052051A60BFF34F8FBFF36F8FBD4680BD77
:1028100004ED00E080B500AF72B6FFF76BFD031C5E
:10282000002B01D0FFF7E8FF62B6BD4680BDC04671
:1028300080B500AF0A4A13681868203080F3098811
:10284000022080F31488BFF36F8F3FBCAE4608BCF4
:1028500004BC62B61847C046C046C046C046C04623
:1028600028F0FF1FBD4680BDC046C046C046C046DA
:10287000EFF309800E4B1A6820381060F0C0444610
:102880004D4656465F46F0C008B572B6FFF7F0FDFC
:1028900062B60CBC116808681030F0C8A046A946A2
:1028A000B246BB4680F309882038F0C81847C046B6
:1028B00028F0FF1F80B582B000AF78607B681A1CDB
:1028C00008327B685A607B68012252429A607B68BA
:1028D0001A1C08327B68DA607B681A1C08327B6835
:1028E0001A617B6800221A60BD4602B080BDC046F6
:1028F00080B582B000AF78607B6800221A61BD4667
:1029000002B080BD80B584B000AF786039607B686C
:102910005B68FB603B68FA685A60FB689A683B68D2
:102920009A60FB689B683A685A60FB683A689A60EC
:102930003B687A681A617B681B685A1C7B681A605E
:10294000BD4604B080BDC04680B584B000AF78609D
:1029500039603B681B68BB60BB68013303D17B688F
:102960001B69FB600CE07B680833FB6002E0FB68DE
:102970005B68FB60FB685B681A68BB689A42F6D9C3
:10298000FB685A683B685A603B685B683A689A60C3
:102990003B68FA689A60FB683A685A603B687A68F4
:1029A0001A617B681B685A1C7B681A60BD4604B0BC
:1029B00080BDC04680B584B000AF78607B681B697D
:1029C000FB607B685B687A6892689A607B689B684A
:1029D0007A6852685A60FB685A687B689A4203D1E9
:1029E0007B689A68FB685A607B6800221A61FB6802
:1029F0001B685A1EFB681A60FB681B68181CBD46E2
:102A000004B080BD80B584B000AF78600023FB6067
:102A10007A680723134004D07B6807229343083366
:102A20007B60FFF7CFFB184B1B68002B05D1174BC2
:102A3000072293431A1C144B1A60154B1A687B68C3
:102A4000D218144B9A4213D8114B1A687B68D218CB
:102A50000F4B1B689A420BD90B4B1A680C4B1B6827
:102A6000D318FB600A4B1A687B68D218084B1A60AF
:102A7000FFF7B4FBFB68002B01D103F055FBFB68AB
:102A8000181CBD4604B080BD780E002030F1FF1F39
:102A9000740E0020431D000080B582B000AF786046
:102AA0007B68002B01D072B6FEE7BD4602B080BD48
:102AB000C046C046C046704701B40020C046C0466C
:102AC000C046C04601300928F8D9C046C046C046B5
:102AD000C046C046C046C04601BC704780B582B003
:102AE00000AF021CBB1D1A8006E0FFF7E5FFBB1D0F
:102AF000BA1D1288643A1A80BB1D1B88642BF4D857
:102B000006E0FFF7D5FFBB1DBA1D12880A3A1A80EE
:102B1000BB1D1B880A2BF4D8BD4602B080BDC04641
:102B200080B582B000AF786007E00A4B181CFFF751
:102B3000D5FF7B68084A9B187B607A68054B9A42F0
:102B4000F3D87B689BB2181CFFF7C8FFBD4602B0E4
:102B500080BDC04660EA0000A015FFFF80B584B0CC
:102B600000AF021CBB1D1A80094BFB6008E0FB682C
:102B7000181CFFF7D5FFBB1DBA1D1288013A1A8039
:102B8000BB1D1B88002BF2D1BD4604B080BDC046E2
:102B9000EB51000080B500AFBD4680BD90B589B057
:102BA00000AFF860B960BB1D1A80FB68BB613B1CBD
:102BB0001F3300221A70BB68013BBB60BB1D1B8822
:102BC000002B38D1BB68002B35D03B1C1F331B7842
:102BD000BA69D31830221A703B1C1F333A1C1F32BB
:102BE000127801321A70BB68013BBB6023E03B1CCA
:102BF0001F331B78BA69D418BB1D1B88181C0A2107
:102C0000FDF75EFC0B1C9BB2DBB23033DBB22370F2
:102C10003B1C1F333A1C1F32127801321A70BB68FA
:102C2000013BBB60BC1DBB1D1B88181C0A21FDF7A6
:102C300003FC031C2380BB1D1B88002B02D0BB6838
:102C4000002BD4D13B1C1E3300221A702EE03B1CFB
:102C50001E331B78BA69D2183B1C173312781A70CE
:102C60003B1C1E331B78BA69D3183A1C1F321178EB
:102C70003A1C1E3212788A1A013AB9698A181278F7
:102C80001A703B1C1F331A783B1C1E331B78D31A57
:102C9000013BBA69D3183A1C173212781A703B1CE0
:102CA0001E333A1C1E32127801321A703B1C1F333D
:102CB0001B785B08DBB23A1C1E3212789A42C6D3EC
:102CC0003B1C1F331B78BA69D31800221A70BD460B
:102CD00009B090BD80B584B000AF7860FB1C19705E
:102CE000BB1C1A703B1C0E3300221A7006E03B1C02
:102CF0000E333A1C0E32127801321A703B1C0E331E
:102D00001B785BB27A68D3181B78002BEFD13B1C81
:102D10000F33BA1C12781A703A1C0F323B1C0E3358
:102D2000127852B21B785BB29A4241D03A1C0F32F1
:102D30003B1C0E33127852B21B785BB29A4237DDDD
:102D40001BE03B1C0F331B785BB27A68D3183A1C2C
:102D50000E32127852B279688A1812781A703B1CB7
:102D60000F333A1C0F321278013A1A703B1C0E33A3
:102D70003A1C0E321278013A1A703B1C0E331B7843
:102D80007F2BDED90FE03B1C0F331B785BB27A68D8
:102D9000D318FA1C12781A703B1C0F333A1C0F32EE
:102DA0001278013A1A703B1C0F331B787F2BEAD93B
:102DB000BD4604B080BDC04680B584B000AFF860A9
:102DC000B960111C1A1CBB1D19807B1D1A70F96893
:102DD000BA68BB1D1B88081C111C1A1CFFF7DEFEFD
:102DE000F9687B1D1A783B1C18331B78081C111CD2
:102DF0001A1CFFF76FFFBD4604B080BD80B584B0DC
:102E000000AFF860B9607A601A1CFB1C1A70F96890
:102E1000BA687B68081C111C1A1C00F00FF8F968CE
:102E2000FB1C1A783B1C18331B78081C111C1A1C3D
:102E3000FFF750FFBD4604B080BDC04690B589B0D5
:102E400000AFF860B9607A60FB68BB613B1C1F3360
:102E500000221A70BB68013BBB607B68002B34D139
:102E6000BB68002B31D03B1C1F331B78BA69D318C9
:102E700030221A703B1C1F333A1C1F321278013269
:102E80001A70BB68013BBB601FE03B1C1F331B7803
:102E9000BA69D4187B68181C0A21FDF711FB0B1CBA
:102EA000DBB23033DBB223703B1C1F333A1C1F32C2
:102EB000127801321A70BB68013BBB607B68181C3A
:102EC0000A21FDF7B9FA031C7B607B68002B02D056
:102ED000BB68002BD9D13B1C1E3300221A702EE098
:102EE0003B1C1E331B78BA69D2183B1C173312786F
:102EF0001A703B1C1E331B78BA69D3183A1C1F3258
:102F000011783A1C1E3212788A1A013AB9698A1865
:102F100012781A703B1C1F331A783B1C1E331B7827
:102F2000D31A013BBA69D3183A1C173212781A70B7
:102F30003B1C1E333A1C1E32127801321A703B1CA5
:102F40001F331B785B08DBB23A1C1E3212789A42A0
:102F5000C6D33B1C1F331B78BA69D31800221A70E2
:102F6000BD4609B090BDC04680B584B000AF786062
:102F7000114BFB60FB687A681A60104B0F4A52696C
:102F8000802189020A435A610C4B0C4A11680C4A91
:102F90000A401A600B4B0B4A516C0B4A0A408021C5
:102FA00049000A435A64094BFA68DA60FB68181C46
:102FB000BD4604B080BDC0467C0E002000F00F402E
:102FC000FFFFFDFF00900440FFF8FFFEB40E00205D
:102FD00080B582B000AF7860034B802292029A6085
:102FE000BD4602B080BDC04600F00FF880B582B08B
:102FF00000AF7860034B802292025A60BD4602B057
:1030000080BDC04600F00FF880B584B000AF786096
:10301000264BFB60FB687A685A60254BFA681A6099
:10302000244A2449244BCB588021C9041943224BFC
:10303000D150224B00221A60204B00225A601F4BB5
:103040000022DA601D4B00225A611C4B1C4A9A6018
:103050001A4B4C22DA601B4B1A4A916D1A4A0A40ED
:10306000C02189000A439A65FB68184A1A60184A09
:103070001749C4239B00CB581B021B0A8021090659
:103080001943C4239B00D150114B114A126880216F
:1030900009030A431A60094B4B221A600D4BFA6868
:1030A0001A61FB68181CBD4604B080BD800E00206C
:1030B000880E0020007004403C10000000A0034077
:1030C000FFFF000000D00440FFF8FFFE01010000F8
:1030D00000E100E0B40E002080B582B000AF78605F
:1030E000034B00225A600023181CBD4602B080BD6D
:1030F00000A0034080B584B000AFF8607A603B1C4C
:103100000B330A1C1A703B1C0B331B78002B01D0AD
:10311000822315E03B1C0B331B780B4AD35C012B3D
:1031200001D009230CE0094A3B1C0B331B780849EA
:10313000CB5C0133DB00D3189A687B681A600023EC
:10314000181CBD4604B080BDE879000000A0034013
:10315000E479000080B582B000AF274B1B683B606C
:1031600000237B60254B1A688023134004D07B68C2
:103170008022520013437B60204A214B1B7801338D
:10318000DB00D3185A688023134003D07B680122E8
:1031900013437B603B681A687B6813407B607A68E6
:1031A00080235B0013400AD0144B144A126880211C
:1031B0000A431A603B685B68181C02F0B9FF7A6822
:1031C0000123134015D00D490D4B1B78181C0B4AD9
:1031D0000B4B1B780133DB00D3185B6880221A434A
:1031E000431CDB00CB185A603B685B68181C02F07C
:1031F000ABFFBD4602B080BD880E002000A003409A
:10320000E479000080B584B000AF7860324BFB6099
:10321000FB687A68DA60314BFA681A60304A3049E4
:10322000304BCB588021490419432E4BD1502E4BA3
:1032300000221A602C4B00225A602B4B0022DA60CD
:10324000294B00225A61284B0022DA61264B0022CA
:103250005A62254B0022DA62234B00225A63224B2A
:10326000224A9A60204B2C22DA611F4B204A1A62B4
:10327000204B204A516F204A0A40C02189000A434E
:103280005A67FB681D4A9A80FB68194A1A80FB68D6
:103290001B4A5A80FB6808229A601A4A1949C423BB
:1032A0009B00C958184B0B40802109021943C423C5
:1032B0009B00D150134B134A1268802189020A43A4
:1032C0001A60094B48221A60104BFA689A62FB6830
:1032D000181CBD4604B080BD8C0E00209C0E002042
:1032E000007004403C10000000800340CCCC000083
:1032F0001904000000D00440FFF8FFFE1F05000085
:10330000CCCCFFFF00E100E0FF00FFFFB40E002087
:1033100080B584B000AF78607B68FB60074B074ADC
:1033200012689821101C8843011CFA6892680A43AD
:103330001A600023181CBD4604B080BD0080034005
:1033400080B582B000AF7860064B064A12689821BB
:103350008A431A60034B00225A600023181CBD46A2
:1033600002B080BD0080034080B584B000AF7860BB
:103370000A1CBB1C1A807B68FB60BB1C1A88164B9E
:103380009A4201D8862323E0BB1C1B88181CFDF73A
:10339000FFFC031C1148191CFDF712F9031CBB604C
:1033A000B8680F49FDF7BEF8031C002B04D0FB687A
:1033B000012252425A8006E0B868FDF7C7F8031CA4
:1033C0009AB2FB685A807B68181C00F023F800232F
:1033D000181CBD4604B080BD3F0100000000A04B9A
:1033E00000FF7F4780B582B000AF084B1B687B6051
:1033F000074B074A126880210A431A607B68DB6822
:10340000181C00F0B5F9BD4602B080BD9C0E00202E
:103410000080034080B584B000AF78607B68FB60BB
:10342000FB685B880133FA6892885343802212025A
:103430009B181B0C9AB2FB681A80054BFA6812881D
:103440001A62034BFA6852889A60BD4604B080BD88
:103450000080034080B584B000AF78602C4BFB60E7
:10346000FB687A68DA602B4BFA681A602A4A2A49A4
:103470002A4BCB58802189041943284BD150284B23
:1034800000221A60264B00225A60254B0022DA6087
:10349000234B00225A61224B224A9A60204B2C2255
:1034A000DA601F4B204A1A61204B204A116D204AD6
:1034B0000A40C02189000A431A65FB681D4A9A80A8
:1034C000FB68194A1A80FB681B4A5A80FB6808226D
:1034D0009A601A4A1949C4239B00C958184B0B40DB
:1034E000802109041943C4239B00D150134B134A74
:1034F00012688021C9020A431A60094B48221A60E7
:10350000104BFA685A62FB68181CBD4604B080BDB7
:10351000A00E0020B00E0020007004403C100000FF
:1035200000900340CCCC00001904000000D00440FF
:10353000FFF8FFFE1F050000CCCCFFFF00E100E01C
:10354000FFFF00FFB40E002080B584B000AF7860AC
:103550007B68FB60074B074A12689821101C884360
:10356000011CFA6892680A431A600023181CBD46C1
:1035700004B080BD0090034080B582B000AF786099
:10358000064B064A126898218A431A60034B0022B0
:103590005A600023181CBD4602B080BD0090034055
:1035A00080B584B000AF78600A1CBB1C1A807B68B1
:1035B000FB60BB1C1A88164B9A4201D8862323E075
:1035C000BB1C1B88181CFDF7E3FB031C1148191CCE
:1035D000FCF7F6FF031CBB60B8680F49FCF7A2FFBD
:1035E000031C002B04D0FB68012252425A8006E0E3
:1035F000B868FCF7ABFF031C9AB2FB685A807B6883
:10360000181C00F023F80023181CBD4604B080BD30
:103610003F0100000000A04B00FF7F4780B582B053
:1036200000AF084B1B687B60074B074A126880217C
:103630000A431A607B68DB68181C00F04BF8BD4633
:1036400002B080BDB00E00200090034080B584B071
:1036500000AF78607B68FB60FB685B880133FA68C9
:1036600092885343802212029B181B0C9AB2FB686B
:103670001A80054BFA6812881A61034BFA6852885F
:103680009A60BD4604B080BD0090034090B585B0FF
:1036900000AF021CBB1D1A800D4B5A6A3C1C0E3435
:1036A000BB1D1B88101C191CFFF77AFF031C23800D
:1036B0003B1C0E331B88862B01D1022303E03B1CED
:1036C0000E331B88DBB2181CBD4605B090BDC0464A
:1036D000B40E002080B582B000AF786002F046FDE5
:1036E000BD4602B080BDC04680B500AF034B5B68ED
:1036F000181C00F0A5FDBD4680BDC046B40E0020DC
:1037000080B500AF034B9B68181C00F08FFCBD46D2
:1037100080BDC046B40E002080B500AF72B6FFF782
:1037200027F8BD4680BDC04690B585B000AF021CED
:10373000BB1D1A800D4B9A6A3C1C0E34BB1D1B88A6
:10374000101C191CFFF710FE031C23803B1C0E33BA
:103750001B88862B01D1022303E03B1C0E331B8800
:10376000DBB2181CBD4605B090BDC046B40E0020AB
:1037700080B582B000AF786002F0F2FCBD4602B0C6
:1037800080BDC04680B500AF02F0BAFCBD4680BD2A
:1037900080B500AFFFBEBD4680BDC04680B500AF5E
:1037A000364A3749374BD150374A88235B010021CD
:1037B000D150354A354BC0218902D150324A324965
:1037C000334BCB58B82189011943314BD150314B80
:1037D0009B78DBB21A1C0823134007D02D4B2D4ACF
:1037E0009278D2B208210A43D2B29A70264A274B65
:1037F0000021D150244A2449274BC958274B19404E
:10380000254BD150204B204A1268C02109030A439E
:103810001A601D4A1C49204BC958214B0B4080217E
:10382000490419431C4BD1501E4B06221A701D4BE4
:1038300000225A701B4B1B4AD278D1B21F220A4079
:10384000D2B2DA70184B80221A70164B00221A710D
:10385000144B00225A71C046124B9B79DBB21A1CE2
:1038600010231340F8D0C0460E4B9B79DBB21A1CD4
:103870000C231340F8D1BD4680BDC04600E000E0F7
:1038800000000000080D000000700440441000001B
:103890003810000000D0074004100000FFFFFEFFBA
:1038A000FFFFFFFC004006400050064080B500AF1F
:1038B000FFF732FF4A4B4A4A11694A4A0A40E0215F
:1038C000C9000A431A61484B474A5279D2B21F21B4
:1038D0008A43D2B25A71444B434A1279D2B2072179
:1038E0008A43D2B21A71414B404A1278D2B2D2B254
:1038F00073218A43D2B250210A43D2B2D2B21A7093
:103900003A4B3A4A5278D2B2D2B263218A43D2B207
:1039100040210A43D2B2D2B25A70344B334A927821
:10392000D2B219218A43D2B29A70314B00221A7056
:103930002B4B2B4A116D2B4A0A40E021C9000A4348
:103940001A652C4A2B49C1239B00C9582A4B1940A0
:10395000C1239B00D150294A2849294BCB581B022F
:10396000190A274BD150254A2449D2231B01C95893
:10397000214B1940D2231B01D150FFF70BF901F065
:1039800023F800F02DF9002000F004FCFFF7ACFE56
:10399000002000F0F5FAFFF7B3FE002000F0BCFABB
:1039A000002000F085FA002000F040FA002000F02E
:1039B000EDF90020FFF74EFD0020FFF723FC00206B
:1039C00000F0B4F9002000F081F9002000F036F991
:1039D000002000F097FB002000F044FBBD4680BDB6
:1039E00000900440FFF8FFFE00F0074000D00740C1
:1039F00000E0074000E100E0FFFF00FF00E000E022
:103A00001C0D000080B582B000AF786039603B6863
:103A1000002B09D10DE07B681A787B6801337B604D
:103A20003B68101C984700E0C0467B681B78002B61
:103A3000F1D1BD4602B080BD80B584B000AFB960A1
:103A40007A603B603B1C0F33021C1A703B680022FB
:103A50001A700023181CBD4604B080BD80B586B026
:103A600000AFF860B9607A603B603B68DB689847FC
:103A7000031C002B00D168E000E0C0463B1C17335C
:103A800000221A703B681B683A1C1732101C9847BA
:103A90003B1C17331B78002B51D03B1C17331B7872
:103AA000082B04D03B1C17331B787F2B0DD1BA6831
:103AB000FB689A4242D9BB68013BBB60BB680022ED
:103AC0001A707B6801337B6038E03B1C1733187831
:103AD000BA68FB68D31A1A1CF9683B1C1633FFF747
:103AE000ABFF031C002B10D009E03B1C1733002256
:103AF0001A703B681B683A1C1732101C98473B1C15
:103B000017331B78002BF0D118E03B1C17331A78C1
:103B1000BB681A70BB680133BB607B68013B7B608C
:103B20003B1C17331B780D2B0AD03B1C17331B781B
:103B30000A2B05D07B68012B9FD801E09DE7C0468A
:103B4000BB6800221A70012300E00023181CBD4648
:103B500006B080BD80B500AF024B1B68181CBD4687
:103B600080BDC04604F0FF1F90B585B000AF7860FF
:103B70003C1C0F347B68181C00F032FE031C2370C1
:103B80003B1C0F331B780A2B02D17B6800221A7072
:103B9000BD4605B090BDC04680B582B000AF021CE6
:103BA000FB1D1A70FB1D1A78034B101C191C00F02A
:103BB0001BF8BD4602B080BDC948000080B582B088
:103BC00000AF00F0F7FE031C5A1E9341DBB21A1C33
:103BD000FB1D1A70FB1D1B78181CBD4602B080BD72
:103BE00080B500AFBD4680BD90B585B000AF021C6A
:103BF0003960FB1D1A700523FB603C1C0B34FB1D58
:103C00001A783B68101C9847031C23703B1C0B332D
:103C10001B780B2B02D10120FEF7A0FFFB68002BC5
:103C200008DDFB68053BFB603B1C0B331B780B2B53
:103C3000E3D000E0C046BD4605B090BD80B584B07D
:103C400000AF7860104BFB60FB687A681A600F4B1E
:103C50000E4A526910210A435A610C4B0B4A1268F2
:103C600010218A431A600A4B094A1169094A0A401D
:103C7000802149000A431A61074BFA685A63FB68BE
:103C8000181CBD4604B080BDF80E002000F10F40A6
:103C900000D00440FFF8FFFEB40E002080B582B0D3
:103CA00000AF7860024B10229A60BD4602B080BD22
:103CB00000F10FF880B582B000AF7860024B10229F
:103CC0005A60BD4602B080BD00F10FF880B584B0E7
:103CD00000AF7860104BFB60FB687A681A600F4B8E
:103CE0000E4A526908210A435A610C4B0B4A12686A
:103CF00008218A431A600A4B094AD168094A0A40D6
:103D0000802149000A43DA60074BFA681A63FB68AE
:103D1000181CBD4604B080BDFC0E002000F10F4011
:103D200000D00440FFF8FFFEB40E002080B584B040
:103D300000AF7860104BFB60FB687A681A600F4B2D
:103D40000E4A526904210A435A610C4B0B4A12680D
:103D500004218A431A600A4B094A9168094A0A40B9
:103D6000802149000A439A60074BFA68DA62FB68CF
:103D7000181CBD4604B080BD000F002000F10F40AC
:103D800000D00440FFF8FFFEB40E002080B584B0E0
:103D900000AF7860114BFB60FB687A681A60104BCB
:103DA0000F4A5269802109010A435A610C4B0C4A9F
:103DB00011680C4A0A401A600B4B0B4AD16A0B4A35
:103DC0000A40802149000A43DA62094BFA681A6204
:103DD000FB68181CBD4604B080BDC046040F00201F
:103DE00040F00F40FFF7FFFF00A00440FFF8FFFE88
:103DF000B40E002080B582B000AF7860034B802203
:103E000012019A60BD4602B080BDC04640F00FF876
:103E100080B582B000AF7860034B802212015A60F7
:103E2000BD4602B080BDC04640F00FF880B584B0FA
:103E300000AF7860114BFB60FB687A681A60104B2A
:103E40000F4A52698021C9000A435A610C4B0C4A3F
:103E500011680C4A0A401A600B4B0B4A916A0B4AD4
:103E60000A40802149000A439A62094BFA68DA61E4
:103E7000FB68181CBD4604B080BDC046080F00207A
:103E800040F00F40FFFBFFFF00A00440FFF8FFFEE3
:103E9000B40E002080B582B000AF7860034B802262
:103EA000D2009A60BD4602B080BDC04640F00FF817
:103EB00080B584B000AF7860114BFB60FB687A6816
:103EC0001A60104B0F4A5269802189000A435A61D7
:103ED0000C4B0C4A11680C4A0A401A600B4B0B4AF7
:103EE000516A0B4A0A40802149000A435A62094B31
:103EF000FA689A61FB68181CBD4604B080BDC046D4
:103F00000C0F002040F00F40FFFDFFFF00A0044019
:103F1000FFF8FFFEB40E002080B584B000AF7860DB
:103F2000114BFB60FB687A681A60104B0F4A5269AC
:103F3000802149000A435A610C4B0C4A11680C4A13
:103F40000A401A600B4B0B4A116A0B4A0A40802147
:103F500049000A431A62094BFA685A61FB68181C47
:103F6000BD4604B080BDC046100F002040F00F4099
:103F7000FFFEFFFF00A00440FFF8FFFEB40E00208C
:103F800080B584B000AF7860114BFB60FB687A6845
:103F90001A60104B0F4A5269802109030A435A6183
:103FA0000C4B0C4A11680C4A0A401A600B4B0B4A26
:103FB000D16C0B4A0A40802149000A43DA64094B5C
:103FC000FA689A60FB68181CBD4604B080BDC04604
:103FD000140F002040F00F40FFFFF7FF00A0044047
:103FE000FFF8FFFEB40E002080B584B000AF78600B
:103FF000064B1A6880231B031340FB60FB685A1EA4
:104000009341DBB2181CBD4604B080BD40F00FF8F0
:1040100080B582B000AF7860034B802212039A60B3
:10402000BD4602B080BDC04640F00FF880B582B0FA
:1040300000AF7860034B802212035A60BD4602B085
:1040400080BDC04640F00FF880B582B000AF786008
:10405000034B80221203DA60BD4602B080BDC04629
:1040600040F00FF880B584B000AF7860114BFB6072
:10407000FB687A681A60104B0F4A526980218902E6
:104080000A435A610C4B0C4A11680C4A0A401A60E8
:104090000B4B0B4A516C0B4A0A40802149000A43E2
:1040A0005A64094BFA68DA63FB68181CBD4604B011
:1040B00080BDC046180F002080F00F40FFFFFDFFBD
:1040C00000B00440FFF8FFFEB40E002080B582B0BF
:1040D00000AF7860034B802292029A60BD4602B026
:1040E00080BDC04680F00FF880B582B000AF786028
:1040F000034B802292025A60BD4602B080BDC0468A
:1041000080F00FF880B584B000AF7860104BFB6092
:10411000FB687A681A600F4B0E4A526920210A43E5
:104120005A610C4B0B4A126820218A431A600A4BD1
:10413000094A5169094A0A40802149000A435A61E3
:10414000074BFA689A63FB68181CBD4604B080BD33
:104150001C0F002000F10F4000D00440FFF8FFFECC
:10416000B40E002080B582B000AF7860024B2022F0
:104170009A60BD4602B080BD00F10FF880B582B0F4
:1041800000AF7860024B20225A60BD4602B080BD6D
:1041900000F10FF880B584B000AF7860114BFB6080
:1041A000FB687A681A60104B0F4A52698021C90275
:1041B0000A435A610C4B0C4A11680C4A0A401A60B7
:1041C0000B4B0B4A916C0B4A0A40802149000A4371
:1041D0009A64094BFA685A60FB68181CBD4604B023
:1041E00080BDC046200F002040F00F40FFFFFBFFC6
:1041F00000A00440FFF8FFFEB40E002080B584B09C
:1042000000AF7860064B1A688023DB021340FB6026
:10421000FB685A1E9341DBB2181CBD4604B080BD3A
:1042200040F00FF880B582B000AF7860034B802279
:10423000D2029A60BD4602B080BDC04640F00FF881
:1042400080B582B000AF7860034B8022D2025A6002
:10425000BD4602B080BDC04640F00FF880B582B0C8
:1042600000AF7860034B8022D202DA60BD4602B014
:1042700080BDC04640F00FF880B584B000AF7860D4
:10428000614BFB60FB6800221A81FB6800221A82E6
:10429000FB680022DA60FB6800225A82FB68002279
:1042A0001A83FB6800225A61FB687A68DA61574B0F
:1042B000FA681A60564A5649564BCB588021C900B5
:1042C0001943544BD150544B534A5168534A0A40F6
:1042D000802189000A435A604F4B4F4A91684F4AE8
:1042E0000A40802189000A439A604D4A4C49C32301
:1042F0009B00CB58FF218B4380211943C3239B0094
:10430000D150474B464A1268802149010A431A603E
:10431000444B444AD278D2B208218A43D2B2DA70EE
:10432000404B404AD278D2B204218A43D2B2DA70EA
:10433000FB6800221A80FB6800225A60394B002279
:104340009A70384B00229A71364B00229A72354B84
:1043500000225A712E4A2E49334BC958334B0B4019
:104360008021C9041943304BD1502E4B2D4A12786D
:10437000D2B21F218A43D2B21A702A4B89225A70B4
:10438000284B284A927AD2B2D2B21F218A43D2B2A3
:1043900003210A43D2B2D2B29A72224B214AD27A74
:1043A000D2B2D2B202210A43D2B2D2B2DA721D4BD9
:1043B0001C4AD278D2B2D2B208210A43D2B2D2B2C7
:1043C000DA70184B174AD278D2B2D2B204210A431B
:1043D000D2B2D2B2DA70134B124AD278D2B22021C2
:1043E0000A43D2B2DA700F4B0E4A9279D2B20F2141
:1043F0000A43D2B29A710E4BFA681A60FB68181C15
:10440000BD4604B080BDC046240F0020440F0020EC
:10441000007004403410000000900440FFF8FFFEDC
:1044200000E100E000A0064004100000FFFFFFF3E1
:10443000B40E002080B586B000AFF860B960BB1D37
:104440001A80FB687B61BB1D1B88002B01D1842374
:1044500033E07B691B8A002B01D008232DE03B1C35
:104460001333EFF3108072B61870164B1B78DBB263
:104470000133DBB2134A191C1170012B04D13B1C10
:1044800013331A78104B1A707B69BA68DA607B694B
:10449000BA1D12881A827B6900221A81094B1B7887
:1044A000DBB2013BDBB2074A191C1170002B03D1B0
:1044B000054B187880F310880023181CBD4606B001
:1044C00080BDC046F40E00202410002080B586B0C8
:1044D00000AFF860B960BB1D1A80FB687B61BB1D33
:1044E0001B88002B01D1842348E07B691B8B002BA8
:1044F00001D0082342E03B1C1333EFF3108072B667
:104500001870204B1B78DBB20133DBB21D4A191C3B
:104510001170012B04D13B1C13331A781A4B1A70FB
:104520007B69BA685A617B69BA1D12881A837B69F4
:1045300000225A827B691B88012213439AB27B694D
:104540001A80124B114AD278D2B2802149420A43D2
:10455000D2B2DA700D4B0D4A9279D2B29A71094BF0
:104560001B78DBB2013BDBB2064A191C1170002B31
:1045700003D1054B187880F310880023181CBD4622
:1045800006B080BDF40E00202410002000A00640DC
:1045900090B583B000AF7860124BDB79DBB21C1CA6
:1045A0007B681B8A002B1AD07B68DB68E2B21A702A
:1045B0005A1C7B68DA607B681B8901339AB27B687E
:1045C0001A817B681A897B681B8A9A4207D17B68AB
:1045D00000221A827B68DB69181C00F027FABD46AE
:1045E00003B090BD00A0064080B582B000AF7860F7
:1045F0007B685A8A7B681B8B9A421CD2194A7B685B
:104600005B691978D1715A1C7B685A617B685B8A37
:1046100001339AB27B685A827B685A8A7B681B8B0B
:104620009A421CD17B6800221A837B68DB69181CC4
:1046300000F03CFA13E00B4B0A4AD278D1B27F2249
:104640000A40D2B2DA70074B064A9279D2B29A7116
:104650007B681B88012293439AB27B681A80BD460F
:1046600002B080BD00A00640F0B5474680B482B0DD
:1046700000AF344B1B687B60334B1B79DBB21C1CD7
:10468000002500260F23234043D02F4B0F221A7101
:104690002D4BDB79DBB298460223234012D0202336
:1046A00023400CD04346002B09D1731CDEB27B683B
:1046B0001B88022213439AB27B681A8002E004230B
:1046C0002B439DB20823234002D001232B439DB2EC
:1046D0000123234002D002232B439DB20423234015
:1046E00002D008232B439DB27B685A682B1C1A43C7
:1046F0007B685A6020239C43002E05D07B68DB69D1
:10470000181C00F05FFA04E07B68DB69181C00F0FD
:1047100011FA2023234003D07B68181CFFF738FFD1
:104720007B681B881A1C0123134006D0802323407A
:1047300003D07B68181CFFF757FFBD4602B004BCCE
:104740009046F0BD440F002000A0064080B584B024
:1047500000AF786039607B68FB603B1C0B33EFF384
:10476000108072B61870144B1B78DBB20133DBB2C9
:10477000114A191C1170012B04D13B1C0B331A7800
:104780000E4B1A70FB685A683B681A60FB6800227F
:104790005A60094B1B78DBB2013BDBB2064A191C9D
:1047A0001170002B03D1054B187880F3108800237B
:1047B000181CBD4604B080BDF40E0020241000205B
:1047C00080B500AF044B1A68044B101C191C012261
:1047D000FFF730FEBD4680BD28100020900F00205E
:1047E00080B584B000AF78603B1C0F3300221A7094
:1047F0002D4B1B88002B4ED03B1C0E33EFF310804B
:1048000072B61870294B1B78DBB20133DBB2274A32
:10481000191C1170012B04D13B1C0E331A78244B48
:104820001A70214B1B88013B9AB21F4B1A80214BF7
:104830001B881A1C2049895C7A68117001339AB26E
:104840001C4B1A801B4B1B883F2B02D9194B002293
:104850001A801A4B1B881A1C194B134001D01923BC
:1048600000E000233A1C0F321370144B1A88154BCA
:1048700013409AB2114B1A800C4B1B78DBB2013BF0
:10488000DBB20A4A191C1170002B06D1084B1878AC
:1048900080F3108801E00A2302E03B1C0F331B78F1
:1048A000181CBD4604B080BD4A0F0020F40E002045
:1048B000241000204C0F0020500F0020480F002033
:1048C00041080000B6F7FFFF80B584B000AF021CBE
:1048D000FB1D1A702F4B1B88402B01D10B2354E07A
:1048E0003B1C0F33EFF3108072B618702A4B1B7805
:1048F000DBB20133DBB2284A191C1170012B04D141
:104900003B1C0F331A78254B1A70224B1B8801333E
:104910009AB2204B1A80224B1B881A1C2149F81D81
:104920000078885401339AB21D4B1A801C4B1B88A7
:104930003F2B02D91A4B00221A801B4B1B881A1CD2
:104940002023134012D1184B1B88202213439AB204
:10495000154B1A80154B1A68154B1B88191C114BE7
:10496000CB18101C191C0122FFF7B0FD0A4B1B7855
:10497000DBB2013BDBB2084A191C1170002B03D1DA
:10498000064B187880F310880023181CBD4604B02D
:1049900080BDC046920F0020F40E0020241000209D
:1049A000960F0020980F0020480F002028100020AC
:1049B000940F002080B500AF024B1B88181CBD4629
:1049C00080BDC0464A0F002080B500AF0F4B0022CB
:1049D0001A800F4B00221A800E4B00221A800E4BB9
:1049E00000221A800D4B00221A800D4B00221A80E3
:1049F0000C4B00221A800020FFF73EFC021C0A4BE1
:104A00001A60FFF7DDFEBD4680BDC046480F00209E
:104A10004A0F00204C0F00204E0F0020920F002064
:104A2000940F0020960F00202810002080B582B03F
:104A300000AF7860174B1B883F2B18D8154B1B888D
:104A400001339AB2134B1A80134B1B881A1C13495B
:104A500008781349885401339AB20F4B1A800E4BD1
:104A60001B883F2B0AD90C4B00221A8006E00D4B05
:104A70001B88402213439AB20A4B1A800A4B1A68C9
:104A8000064B101C191C0122FFF7D4FCBD4602B0D6
:104A900080BDC0464A0F00204E0F0020900F00201E
:104AA000500F0020480F00202810002080B582B051
:104AB00000AF78601A4B1B8801339AB2184B1A80EA
:104AC000174B1B883F2B02D9154B00221A80154B20
:104AD0001B88013B9AB2134B1A80124B1B88002B88
:104AE00013D0114B1B88202213439AB20E4B1A800D
:104AF0000E4B1A680A4B1B88191C0D4BCB18101C47
:104B0000191C0122FFF7E2FC06E0074B1A88DF239D
:104B100013409AB2044B1A80BD4602B080BDC04615
:104B2000940F0020920F0020480F00202810002032
:104B3000980F002080B584B000AF78601F4B1A68D2
:104B40003B1C0C33101C191CFFF700FEFB68002BEC
:104B500031D0FA680223134001D0042300E000237F
:104B6000174A128813439AB2154B1A80FA68082321
:104B7000134001D0802300E00023114A1288134320
:104B80009AB20F4B1A80FB689AB2012313409AB273
:104B90000B4B1B8813439AB2094B1A80FA68042303
:104BA000134001D0022300E00023054A128813437A
:104BB0009AB2034B1A80BD4604B080BD2810002075
:104BC000480F002080B582B000AF7860044B1B888E
:104BD000022213439AB2024B1A80BD4602B080BD36
:104BE000480F002080B500AF054A064BD31A054A8E
:104BF000101C00211A1C01F051FDBD4680BDC046AD
:104C00007810002028F0FF1F02F08AFCFEF7C6FD96
:104C1000FFF7E8FF02F0B8FC02F036FC02F08EFC71
:104C2000044B0020191C00F00DF8031C181C01F0A7
:104C3000E5FBC046D80F002080B582B000AF786099
:104C4000FEE7C04680B500AFFEF730FE01F0A2FBE4
:104C5000FCE7C04680B584B000AF021CFB1D1A7093
:104C6000FB1D1A78131C5B009B185B000A4A9B18FB
:104C7000FB60FB68181C6421FBF7DEFB031C1A1C9D
:104C8000131C1B019B1AFA68D31AFB60FB689BB2CA
:104C9000181CBD4604B080BDF10C000080B500AF0B
:104CA0000D4B00221A720C4B0022DA600020FEF736
:104CB0005BF9021C084B1A60074B181CFEF7A4F99D
:104CC000021C054B5A60044B00221A82024B002240
:104CD0005A82BD4680BDC0462C10002080B584B0ED
:104CE00000AF78607B68FB60FB6803221A72BD46E8
:104CF00004B080BD80B584B000AF78607B68FB6095
:104D0000FB681B7ADBB2012B08D1FB685B68181CBF
:104D1000FEF7E2F9FB6802221A7210E0FB681B7AC8
:104D2000DBB2022B0BD1FB685A68FB680C33101CFA
:104D300000211A1CFEF7DEF9FB6804221A72BD4638
:104D400004B080BD90B583B000AF0A1CBB1D011C30
:104D500019807B1D1A70BB1D1B886422141C5C43C8
:104D60007B1D1B78181CFFF775FF031C201C191CEA
:104D7000FBF762FB031C5B089BB2181CBD4603B02B
:104D800090BDC04680B500AF184B1B68181CFEF7DD
:104D90002DF9C820FDF7A2FE144B01221A72134B05
:104DA0001B68181CFEF714F909E0104B1B7ADBB2E4
:104DB000032B04D10D4B00221A721B2313E00B4B63
:104DC0001B7ADBB2042BF0D1084BDB68FA2292008D
:104DD0005343181C0649FBF72FFB031C9AB2034BE5
:104DE0005A82024B5B8A181CBD4680BD2C100020E5
:104DF0003D0A000080B590B002AF78603B1C3733AD
:104E000000221A707A68444B101C191C01F0A5FC92
:104E1000031C002B5CD1FEF79DFE031C5B683F4A20
:104E2000101C191CFEF7EEFDFEF794FE031C5B68D8
:104E30003B4A101C191CFEF7E5FD3A4B1B8A3A1C35
:104E400020320A210091101C14211A1C2023FDF786
:104E5000B3FFFEF77FFE031C5B683A1C2032101C78
:104E6000191CFEF7CFFDFEF775FE031C5B682E4A8A
:104E7000101C191CFEF7C6FDFEF76CFE031C5B68D8
:104E80002A4A101C191CFEF7BDFD264B5B8A3A1CF2
:104E90000C320A210091101C14211A1C2023FDF74A
:104EA0008BFFFEF757FE031C5B683A1C0C32101C8C
:104EB000191CFEF7A7FDFEF74DFE031C5B681C4A9C
:104EC000101C191CFEF79EFD3B1C37331B781EE09F
:104ED0007A68184B101C191C01F03FFC031C002BB6
:104EE0000ED1FFF74FFF031C181C1321FFF72AFFF9
:104EF000031C1A1C0B4B1A823B1C37331B7806E031
:104F00003B1C37331B221A703B1C37331B78181C91
:104F1000BD460EB080BDC046C4750000D07500000F
:104F2000E47500002C100020F0750000F8750000FA
:104F3000047600000C76000080B500AF454B9B6AFC
:104F4000181CFEF7FDF9444B01221A70414B9B6B74
:104F5000181CFFF707F9404B00229A723D4B5B6B20
:104F6000181CFEF7A7FE3C4B00225A803A4BC82281
:104F700052009A80384BC8225200DA80364B002209
:104F8000DA60354B00221A74344B00221A70344B0D
:104F900000221A70334B00221A70334B00221A7011
:104FA000324B00221A60324B00221A60314B002231
:104FB0001A60314B00221A60304B00221A70304BBD
:104FC00000221A80234B5B6A181CFEF7D5FA2D4B82
:104FD00001221A701F4B1B6A181CFEF719FF294B80
:104FE00001229A721B4BDB69181CFEF753FF254BFD
:104FF00000225A80234BC82252009A80214BC8229B
:105000005200DA801F4B0022DA601E4B00221A7415
:105010001D4B00221A701D4B00221A701C4B0022DF
:105020001A701C4B00221A701B4B00221A601B4B7B
:1050300000221A601A4B00221A601A4B00221A60D2
:10504000194B00221A70194B00221A800023181CD9
:10505000BD4680BDB40E002040100020F50F00209A
:10506000F40F0020F60F0020F70F0020FC0F0020A7
:10507000F80F00200010002004100020081000206D
:105080000A10002054100020DD0F0020DC0F00204B
:10509000DE0F0020DF0F0020E40F0020E00F0020D3
:1050A000E80F0020EC0F0020F00F0020F20F00208E
:1050B00080B500AF0D4B01221A700D4B1B7C032BEA
:1050C00006D00B4B1B7C002B02D0094B03221A7419
:1050D000FEF740FD031C5B68064A101C191CFEF716
:1050E00091FC0023181CBD4680BDC046F60F002071
:1050F0004010002018760000B0B584B000AF021C4C
:10510000FB1D1A703B1C0F3300221A70FB1D1B780D
:10511000C822D2005343181CFCF71AFD031C0C1CB8
:10512000181C211C3D4B3C4AFBF786FE031C0C1C43
:105130003D1C0C35181C211CFBF722FA031C2B808C
:10514000374B1B685A00374B1B68D318BB60364B74
:105150001B7C022B03D0344B1B7C042B49D1324BDC
:105160009B883A1C0C3212889A4203D92E4B01229A
:105170001A7409E02C4B9B883A1C0C3212889A4214
:1051800002D2294B03221A74274B3A1C0C32128884
:105190009A80FB1D1B789AB2234B5A80234B012225
:1051A0001A70214B9B88913BFF3B002B00DA0133A7
:1051B0005B101A1C1A4B1A60194B1B685B00BA680B
:1051C000D21A184B1A60184BDB689BB2C8225201E6
:1051D0009B189AB2164B1A80FEF7BCFC031C5B6846
:1051E000144A101C191CFEF70DFC3B1C0F331B78D6
:1051F0000BE0FEF7AFFC031C5B680F4A101C191C88
:10520000FEF700FC3B1C0F331B78181CBD4604B096
:10521000B0BDC046C046C0462779976A90DD1540AC
:10522000F80F0020FC0F0020401000200810002084
:105230000A1000201876000020760000C046C04604
:1052400080B584B000AF021CBB1D1A80474B484A92
:105250009A80464B14225A80464B00221A60464BD5
:1052600000221A60454B00221A60BB1D00215B5EC4
:10527000002B10DABB1D00215A5E131C1B079B1A62
:105280001B01FB60394B00221A703D4B9B6B181CB5
:10529000FEF774FF0CE0BB1D00229B5E1B01FB6050
:1052A000324B01221A70364B9B6B181CFEF75AFFCB
:1052B000FA68C8235B019A4207D8304B00221A6073
:1052C000FB685A082C4B1A6011E0284B9B88913BD5
:1052D000FF3B002B00DA01335B101A1C264B1A60CF
:1052E000254B1B685B00FA68D21A244B1A601F4BCF
:1052F0001B78002B10D1FB681A091C4BDB689A4203
:105300000AD9FEF727FC031C5B681E4A101C191CF7
:10531000FEF778FB1B2324E01B4B00221A701B4B6B
:1053200000221A70114B01221A74104B01229A723A
:10533000134B5B6B181CFEF7B1FC0C4BDB88181C85
:10534000FEF7F2F90E4B9B6A181CFDF7E1FFFEF722
:1053500001FC031C5B680E4A101C191CFEF752FB73
:105360000023181CBD4604B080BDC046401000207C
:10537000DD16000004100020F80F0020FC0F0020B4
:10538000B40E002020760000F50F0020F70F00205B
:105390001876000080B500AF754B1B7C042B00D93C
:1053A000BFE09A00734BD3181B689F46704BDA8896
:1053B0006F4B9B889A420AD26D4BDB8802339AB2BC
:1053C0006B4BDA806A4BDB88181CFEF7ADF96A4B31
:1053D0001A686A4B1B689A4207D3694B1B78002BEB
:1053E00003D1634B02221A7492E0664B1B881A1C8D
:1053F000614B1B689A4200D98AE0614B1B78002BF5
:1054000000D185E05A4B02221A745D4B00221A70BB
:105410007EE05D4B1A68594B1B68D218564B1B68CF
:105420009A4200D976E0524B03221A7472E0544B30
:105430001B78002B2BD14E4BDA88C8235B009A4295
:105440000AD94B4BDB88023B9AB2494BDA80484B76
:10545000DB88181CFEF768F9484B1B685A004A4B5A
:105460001B68D218444B1B689A4209D9404BDA8812
:10547000C8235B009A424FD8444B1B78002B4BD07B
:105480003B4B00221A74424B01221A7044E0384B05
:10549000DA88374B9B889A420AD9354BDB88023B26
:1054A0009AB2334BDA80324BDB88181CFEF73CF99A
:1054B000344B1B881A1C304B1B689A422CD8304B3B
:1054C00000221A702A4B02221A7425E02F4B1B78F7
:1054D000002B23D0264B03221A741FE02C4B1B7881
:1054E000002B1DD02A4B00221A702A4B01221A7061
:1054F000264B00221A70284B9B6A181CFDF720FFD0
:105500001B4BC8225200DA80194B00225A8007E058
:10551000C04606E0C04604E0C04602E0C04600E0E7
:10552000C046134B1B7C002B04D0134B1B685A1C2A
:10553000114B1A600E4B1B7C002B09D00C4B1B78B7
:10554000002B05D00A4BDB685A1C094BDA600CE0D3
:10555000074B1B7C002B08D0054B1B78002B04D17C
:10556000034BDB685A1E024BDA60BD4680BDC04665
:1055700040100020FC79000004100020F80F0020EB
:10558000081000200A100020FC0F0020F60F002059
:10559000F50F0020F70F0020B40E002080B584B076
:1055A00000AF021CBB1D1A80474B484A9A80464BED
:1055B00028225A80464B00221A60464B00221A606D
:1055C000454B00221A60BB1D00215B5E002B10DAE8
:1055D0003D4B00221A70414B1B6A181CFEF70AFC57
:1055E000BB1D00215A5E131C5B079B1ADB00FB608E
:1055F0000CE0354B01221A70384B1B6A181CFEF761
:1056000007FCBB1D00229B5EDB00FB60FA68C82321
:105610001B019A4207D8304B00221A60FB685A08D7
:105620002C4B1A6011E0284B9B88913BFF3B002BD1
:1056300000DA01335B101A1C264B1A60254B1B68DD
:105640005B00FA68D21A244B1A601F4B1B78002BA0
:1056500010D1FB68DA081C4BDB689A420AD9FEF7C6
:1056600079FA031C5B681E4A101C191CFEF7CAF964
:105670001B2324E01B4B00221A701B4B00221A70C4
:10568000114B01221A74104B01229A72134BDB69E1
:10569000181CFEF7FFFB0C4BDB88181CFDF7F6FF10
:1056A0000E4B5B6A181CFDF74FFFFEF753FA031C05
:1056B0005B680E4A101C191CFEF7A4F90023181C85
:1056C000BD4604B080BDC04654100020934F00007A
:1056D000EC0F0020E00F0020E40F0020B40E0020AB
:1056E00020760000DD0F0020DF0F0020187600007C
:1056F00080B500AF0D4B01221A700D4B1B7C032BA4
:1057000006D00B4B1B7C002B02D0094B03221A74D2
:10571000FEF720FA031C5B68064A101C191CFEF7F2
:1057200071F90023181CBD4680BDC046DE0F002065
:10573000541000201876000080B500AF574B1B7C3A
:10574000042B00D983E09A00554BD3181B689F4661
:10575000524BDA88514B9B889A420AD24F4BDB88D6
:1057600002339AB24D4BDA804C4BDB88181CFDF7A4
:105770008DFF4C4B1A684C4B1B689A425ED1474BCD
:1057800002221A745AE0494B1A68474B1B68D21818
:10579000444B1B689A4253D8404B03221A744FE083
:1057A0003E4BDA88C8235B009A420AD93B4BDB8820
:1057B000023B9AB2394BDA80384BDB88181CFDF774
:1057C00065FF394B1B685A00384B1B68D218354BA4
:1057D0001B689A4209D9314BDA88C8235B009A4288
:1057E00030D8334B1B78002B2CD02C4B00221A7452
:1057F000304B01221A7025E02D4B1B78002B23D053
:10580000264B03221A741FE02A4B1B78002B1DD055
:10581000284B00221A70284B01221A70244B0022B8
:105820001A70264B5B6A181CFDF7A6FE1B4BC8229C
:105830005200DA80194B00225A8007E0C04606E089
:10584000C04604E0C04602E0C04600E0C046134B3C
:105850001B7C002B04D0134B1B685A1C114B1A6085
:105860000E4B1B7C002B09D00C4B1B78002B05D05A
:105870000A4BDB685A1C094BDA600CE0074B1B7CB7
:10588000002B08D0054B1B78002B04D1034BDB68A1
:105890005A1E024BDA60BD4680BDC046541000203F
:1058A000107A0000EC0F0020E00F0020E40F002031
:1058B000DE0F0020DD0F0020DF0F0020B40E0020DF
:1058C00080B590B002AF78603B1C373300221A706D
:1058D0007A688D4B101C191C00F03FFF031C002B35
:1058E0003ED1FEF737F9031C5B68884A101C191C6F
:1058F000FEF788F8864BDB683A1C203200210091C5
:10590000101C14211A1C2023FDF778FAFEF722F947
:10591000031C5B683A1C2032101C191CFEF772F83D
:10592000FEF718F9031C5B687A4A101C191CFEF775
:1059300069F8774B5B883A1C0C3200210091101CEF
:1059400014211A1C2023FDF737FAFEF703F9031C74
:105950005B683A1C0C32101C191CFEF753F844E02B
:105960007A686D4B101C191C052200F09DFE031C6B
:10597000002B11D17B680633181C00F093FD021C2C
:105980003B1C34331A803B1C34331B881BB2181C5D
:10599000FFF756FC031CB3E07A68604B101C191C1F
:1059A00000F0DBFE031C002B04D10A20FFF7A4FB50
:1059B000031CA5E07A685A4B101C191C00F0CDFEA0
:1059C000031C002B04D11E20FFF796FB031C97E05D
:1059D0007A68544B101C191C00F0BFFE031C002BEE
:1059E00003D1FFF765FB031C8AE07A684E4B101C5D
:1059F000191C00F0B2FE031C002B3FD1FEF7AAF8E1
:105A0000031C5B68494A101C191CFDF7FBFF484B3F
:105A1000DB689BB23A1C203200210091101C14213B
:105A20001A1C2023FDF7C8F9FEF794F8031C5B68E5
:105A30003A1C2032101C191CFDF7E4FFFEF78AF80F
:105A4000031C5B68334A101C191CFDF7DBFF384B45
:105A50005B883A1C0C3200210091101C14211A1C86
:105A60002023FDF7A9F9FEF775F8031C5B683A1CC3
:105A70000C32101C191CFDF7C5FF3AE07A682D4B5B
:105A8000101C191C052200F00FFE031C002B11D165
:105A90007B680633181C00F005FD021C3B1C3433E8
:105AA0001A803B1C34331B881BB2181CFFF776FD91
:105AB000031C25E07A68204B101C191C00F04DFED9
:105AC000031C002B15D07A681C4B101C191C00F00D
:105AD00044FE031C002B0CD07A68194B101C191CB7
:105AE00000F03BFE031C002B03D1FFF701FE031C5B
:105AF00006E03B1C37331B221A703B1C37331B78E4
:105B0000181CBD460EB080BD28760000347600001B
:105B100040100020387600003C76000044760000FB
:105B2000507600005C760000687600007476000015
:105B30005410002078760000807600008C760000FB
:105B40009876000090B583B000AFFEF703F8031C11
:105B50005B680E4A101C191CFDF754FF00237B6084
:105B60000EE00B4B7A689200D458FDF7F3FF031C4C
:105B70005B68201C191CFDF745FF7B6801337B60C7
:105B80007B68072BEDD9BD4603B090BD6877000058
:105B900008F0FF1F90B585B000AF78603B1C0F3355
:105BA00000221A707A68574B101C191C00F0D5FDA2
:105BB000031C002B05D1FFF7C5FF3B1C0F331B78DF
:105BC0009BE07A68504B101C191C032200F06CFDFE
:105BD000031C002B08D13C1C0F347B68181C00F000
:105BE00093F9031C237085E07A68484B101C191C3C
:105BF000022200F059FD031C002B08D13C1C0F347D
:105C00007B68181CFFF7F6F8031C237072E07A68B3
:105C10003F4B101C191C032200F046FD031C002BF7
:105C200009D07A683B4B101C191C032200F03CFD84
:105C3000031C002B08D13C1C0F347B68181CFFF799
:105C40003FFE031C237055E07A68334B101C191C6F
:105C5000032200F029FD031C002B08D13C1C0F344B
:105C60007B68181C00F09AFA031C237042E07A68E3
:105C70002A4B101C191C052200F016FD031C002BDA
:105C800038D07A68264B101C191C042200F00CFD39
:105C9000031C002B2ED07A68224B101C191C0F22DB
:105CA00000F002FD031C002B24D07A681E4B101C50
:105CB000191C082200F0F8FC031C002B1AD07A688B
:105CC0001A4B101C191C0D2200F0EEFC031C002BBB
:105CD00010D0FDF73FFF031C5B68154A101C191C10
:105CE000FDF790FE3B1C0F331B221A703B1C0F3339
:105CF0001B7802E03B1C0F331B78181CBD4605B017
:105D000090BDC0468C770000947700009877000023
:105D10009C770000A0770000A4770000A87700001F
:105D2000B0770000B8770000C8770000D477000093
:105D3000E477000080B586B000AFF860B9607A60A3
:105D40003B1C173300221A707B68002B01D11B23E8
:105D500068E0FB68181C00F00EFD031C3B61FA684C
:105D60003B69D118BA683B69D21AF8687B68FDF7BD
:105D700075FE031C002B52D0FB68181C00F0FBFCC6
:105D8000031C3B613B69002B01D11B234AE03B69AB
:105D9000012B0AD1FB681B780A2B03D0FB681B7808
:105DA0000D2B02D1FB6800221A70BB685A1E3B699A
:105DB0009A4210D8FDF7CEFE031C5B681B4A101CEC
:105DC000191CFDF71FFEFB6800221A703B1C1733DD
:105DD00004221A7023E03B69013BFA68D3181B7850
:105DE0000A2B06D03B69013BFA68D3181B780D2BB0
:105DF00015D13B69013BFA68D31800221A70FB6881
:105E0000181CFFF7C7FEFDF7A5FE031C5B68084AD8
:105E1000101C191CFDF7F6FDFB6800221A703B1CD4
