:1000000000300020ED210000FD1100000912000069
:100010000912000009120000091200000912000074
:10002000091200000912000009120000910E0000E0
:100030000912000009120000910E0000350E0000A8
:100040000912000009120000091200000912000044
:100050000912000009120000091200000912000034
:100060000912000009120000091200000912000024
:100070004D1C0000091200000912000009120000C6
:100080000912000009120000091200000912000004
:1000900009120000091200000912000009120000F4
:1000A00009120000091200000912000009120000E4
:1000B00009120000091200000912000009120000D4
:10040000FFFFFFFFFFFFFFFFFFFFFFFF7EFFFFFF7D
:1004100002B4714649084900095649008E4402BC9D
:100420007047C04602B4714649084900095C49005A
:100430008E4402BC7047C046002934D001230022FC
:1004400010B488422CD301242407A14204D2814253
:1004500002D209011B01F8E7E400A14204D2814263
:1004600002D249005B00F8E7884201D3401A1A43E0
:100470004C08A04202D3001B5C0822438C08A04217
:1004800002D3001B9C082243CC08A04202D3001BCD
:10049000DC082243002803D01B0901D00909E3E747
:1004A000101C10BC7047002801D00020C04307B4C6
:1004B000024802A14018029003BDC0461900000086
:1004C0000029F0D003B5FFF7B9FF0EBC4243891AEB
:1004D0001847C0467047C04690B58DB004AFF8606D
:1004E000B9603B60BB1D1A80BB1D1B889B00181C9C
:1004F00000F098FD031C7B617B69002B10D0582015
:1005000000F090FD031CFB61FB69002B03D0FB692D
:100510007A691A6306E07B69181C00F0CDFD01E0E2
:100520000023FB61FB69002B15D0BB1D1A88F868FE
:10053000B9683B683C6B00947C6B0194FC69029445
:100540000024039400F010F8FB69181C00F08EF8EA
:100550000123BB6102E001235B42BB61BB69181C44
:10056000BD4609B090BDC04680B586B000AFF8600A
:10057000B9607A603B60BB6A1A6B7B689B00101C99
:10058000A5211A1C02F0E5F8BB6A1A6B7B68013BD7
:100590009B00D3183B613B69072293433B613A6957
:1005A0000723134001D072B6FEE7BB6A3A695A646A
:1005B00000237B6112E0BA687B69D3181A78B86AA5
:1005C000302379694118CB181A71BA687B69D3183E
:1005D0001B78002B06D07B6901337B617B690E2B76
:1005E000E9D900E0C046BA6A42230021D1543B6AEF
:1005F000052B01D905233B62BB6A3A6ADA62BB6A02
:100600003A6A9A64BB6A0022DA64BB6A0433181C33
:1006100000F07EFCBB6A1833181C00F079FCBB6A42
:10062000BA6A1A613B6A0622D21ABB6A9A61BB6A2D
:10063000BA6A5A62BB6A00221A65BA6A5423002158
:10064000D1543969FA683B68081C111C1A1C00F067
:100650004BFB021CBB6A1A607B6A002B02D07B6AD0
:10066000BA6A1A60BD4606B080BDC04680B582B089
:1006700000AF786000F0B0FB274B1B685A1C264B7C
:100680001A60264B1B68002B09D1244B7A681A602C
:10069000214B1B68012B10D100F06EFA0DE0204BAE
:1006A0001B68002B09D11D4B1B68DA6A7B68DB6A6B
:1006B0009A4202D8194B7A681A601A4B1B685A1C66
:1006C000184B1A607B68DA6A174B1B689A4203D989
:1006D0007B68DA6A144B1A607B68DA6A131C9B0029
:1006E0009B189B00114A9A187B680433101C191C34
:1006F00000F018FC00F080FB094B1B68002B08D0B1
:10070000064B1B68DA6A7B68DB6A9A4201D200F00A
:1007100083FBBD4602B080BDF4F0FF1F20F0FF1F39
:1007200000F1FF1F10F1FF1FFCF0FF1F24F0FF1F5F
:1007300080B584B000AF78600023FB607B68002B3D
:1007400010D00C4B1B68002B01D072B6FEE700F0F6
:1007500049F87B68181C002100F072FA00F04EF88E
:10076000031CFB60FB68002B01D100F055FBBD466C
:1007700004B080BD1CF1FF1F80B584B002AF134AE6
:10078000134B0021009113490191101C191C642284
:100790000023FFF7A1FE031C7B607B68012B0DD1BA
:1007A00072B60D4B012252421A600C4B01221A60A4
:1007B0000B4B00221A6000F0F5FA04E07B6801336D
:1007C00001D172B6FEE7BD4602B080BD550B0000F8
:1007D0000438000018F1FF1F14F1FF1F00F1FF1F84
:1007E000F8F0FF1F80B500AF034B1B685A1C024B8B
:1007F0001A60BD4680BDC0461CF1FF1F80B584B0A5
:1008000000AF0023FB600023BB603A4B1B68002B4A
:1008100001D172B6FEE700F0DFFA364B1B685A1EB4
:10082000344B1A60334B1B68002B5CD1324B1B6876
:10083000002B58D02FE0314BDB68DB68FB60FB6896
:100840001833181C00F0C6FBFB680433181C00F0BA
:10085000C1FBFB68DA6A2A4B1B689A4203D9FB6822
:10086000DA6A274B1A60FB68DA6A131C9B009B1834
:100870009B00244A9A18FB680433101C191C00F0D2
:1008800051FBFB68DA6A204B1B68DB6A9A4202D391
:100890001E4B01221A60194B1B68002BCBD1FB6841
:1008A000002B01D000F0AAF9194B1B687B607B6814
:1008B000002B10D000F02EF8031C002B02D0134B9D
:1008C00001221A607B68013B7B607B68002BF1D1C1
:1008D0000F4B00221A600D4B1B68002B03D0012325
:1008E000BB6000F099FA00F087FABB68181CBD469F
:1008F00004B080BD1CF1FF1FF4F0FF1FCCF0FF1F00
:10090000FCF0FF1F24F0FF1F20F0FF1F08F1FF1F66
:1009100004F1FF1F80B586B000AF00237B61514B0F
:100920001B68002B00D08BE04F4B1B6801333B61F1
:100930004D4B3A691A603B69002B17D14B4B1B6832
:100940001B68002B01D072B6FEE7484B1B68FB60AA
:10095000474B1A68454B1A60454BFA681A60454B7D
:100960001B685A1C434B1A6000F048F9424B1B6845
:100970003A699A4250D300E0C0463C4B1B681B6862
:10098000002B01D1012300E00023002B04D03A4BBF
:10099000012252421A603FE0344B1B68DB68DB687F
:1009A000BB60BB685B687B603A697B689A4203D234
:1009B000314B7A681A602FE0BB680433181C00F0D2
:1009C00009FBBB689B6A002B04D0BB681833181C5A
:1009D00000F000FBBB68DA6A284B1B689A4203D917
:1009E000BB68DA6A254B1A60BB68DA6A131C9B0085
:1009F0009B189B00224A9A18BB680433101C191CD0
:100A000000F090FABB68DA6A1E4B1B68DB6A9A42F8
:100A1000B2D301237B61AFE71A4B1B68DA6A18492E
:100A2000131C9B009B189B005B58012B01D90123D1
:100A30007B61154B1B68002B09D101F02DFE06E0F0
:100A4000114B1B685A1C104B1A6001F025FE0F4B0E
:100A50001B68002B01D001237B617B69181CBD46FC
:100A600006B080BD1CF1FF1FF8F0FF1FC4F0FF1F90
:100A7000C8F0FF1F0CF1FF1F14F1FF1FFCF0FF1F58
:100A800024F0FF1F20F0FF1F04F1FF1F08F1FF1FDC
:100A900080B582B000AF2A4B1B68002B03D0294BD6
:100AA00001221A6048E0274B00221A60264B1B687F
:100AB0001A68254B1B681B6B9A4208D8224B1A6890
:100AC000214B1B683433101C191C01F0DDFD1F4B3A
:100AD0001B687B6007E07B68002B01D172B6FEE7E4
:100AE0007B68013B7B601A497A68131C9B009B184A
:100AF0009B005B58002BEED07A68131C9B009B1860
:100B00009B00134A9B183B603B685B685A683B68D4
:100B10005A603B685A683B6808339A4204D13B6884
:100B20005B685A683B685A603B685B68DA68064BEA
:100B30001A60064B7A681A60BD4602B080BDC04696
:100B40001CF1FF1F08F1FF1F20F0FF1FFCF0FF1F2B
:100B500024F0FF1F80B582B000AF786000F04AF843
:100B6000044B1B68012B01D900F056F901F098FDE8
:100B7000F4E7C04624F0FF1F80B582B000AF002329
:100B80007B600CE07A68131C9B009B189B00124A48
:100B90009B18181C00F09EF97B6801337B607B6812
:100BA000052BEFD90D4B181C00F094F90C4B181CB9
:100BB00000F090F90B4B181C00F08CF90A4B181C34
:100BC00000F088F9094B054A1A60094B044A1A607B
:100BD000BD4602B080BDC04624F0FF1F9CF0FF1F41
:100BE000B0F0FF1FCCF0FF1FE0F0FF1FC4F0FF1FAD
:100BF000C8F0FF1F80B500AFBD4680BD80B582B094
:100C000000AF0D4B1B681B68002B01D1012300E0D6
:100C10000023002B04D0094B012252421A6008E045
:100C2000054B1B68DB68DB687B607B685A68034B9D
:100C30001A60BD4602B080BDC4F0FF1F14F1FF1F53
:100C400080B584B000AF78603960214B1B68FB60D1
:100C5000204B1B680433181C00F0BCF97B6801337F
:100C60000BD13B68002B08D01A4B1B6804331A4A7F
:100C7000101C191C00F056F926E0FA687B68D3189E
:100C8000BB60144B1B68BA685A60BA68FB689A422A
:100C900009D2124B1A680F4B1B680433101C191C25
:100CA00000F062F910E00E4B1A680A4B1B6804331F
:100CB000101C191C00F058F90A4B1B68BA689A42BC
:100CC00002D2084BBA681A60BD4604B080BDC04667
:100CD000F8F0FF1F20F0FF1FE0F0FF1FC8F0FF1F1C
:100CE000C4F0FF1F14F1FF1F80B584B000AFF8609F
:100CF000B9607A60FB68043BFB60FB6880225204A9
:100D00001A60FB68043BFB60BA68FB681A60FB680A
:100D1000043BFB60FB6800221A60FB68143BFB602D
:100D20007A68FB681A60FB68203BFB60FB68181C54
:100D3000BD4604B080BDC04680B500AF0A4B0A4A2C
:100D40001268C02109060A431A60084B06221A607D
:100D5000074B084A1A60084B00221A60034B07220F
:100D60001A60BD4680BDC04620ED00E010E000E006
:100D700014E000E03233030018E000E080B500AF7B
:100D8000024B07221A60BD4680BDC04610E000E05D
:100D900080B500AF024B06221A60BD4680BDC0463A
:100DA00010E000E080B500AF094B094A1268F0215D
:100DB00089040A431A60074B00221A60FFF7BCFF40
:100DC000FFF7DCFF00F044F80023181CBD4680BD8F
:100DD00020ED00E000F0FF1F80B500AF72B6054BBC
:100DE0001B685A1C034B1A60BFF34F8FBFF36F8F02
:100DF000BD4680BD00F0FF1F80B500AF054B1B68EE
:100E00005A1E044B1A60034B1B68002B00D162B6BC
:100E1000BD4680BD00F0FF1F80B500AF044B8022AF
:100E200052051A60BFF34F8FBFF36F8FBD4680BD71
:100E300004ED00E080B500AF72B6FFF76BFD031C58
:100E4000002B01D0FFF7E8FF62B6BD4680BDC0466B
:100E500080B500AF0A4A13681868203080F309880B
:100E6000022080F31488BFF36F8F3FBCAE4608BCEE
:100E700004BC62B61847C046C046C046C046C0461D
:100E800020F0FF1FBD4680BDC046C046C046C046DC
:100E9000EFF309800E4B1A6820381060F0C044460A
:100EA0004D4656465F46F0C008B572B6FFF7F0FDF6
:100EB00062B60CBC116808681030F0C8A046A9469C
:100EC000B246BB4680F309882038F0C81847C046B0
:100ED00020F0FF1F80B582B000AF78607B681A1CDD
:100EE00008327B685A607B68012252429A607B68B4
:100EF0001A1C08327B68DA607B681A1C08327B682F
:100F00001A617B6800221A60BD4602B080BDC046EF
:100F100080B582B000AF78607B6800221A61BD4660
:100F200002B080BD80B584B000AF786039607B6866
:100F30005B68FB603B68FA685A60FB689A683B68CC
:100F40009A60FB689B683A685A60FB683A689A60E6
:100F50003B687A681A617B681B685A1C7B681A6058
:100F6000BD4604B080BDC04680B584B000AF786097
:100F700039603B681B68BB60BB68013303D17B6889
:100F80001B69FB600CE07B680833FB6002E0FB68D8
:100F90005B68FB60FB685B681A68BB689A42F6D9BD
:100FA000FB685A683B685A603B685B683A689A60BD
:100FB0003B68FA689A60FB683A685A603B687A68EE
:100FC0001A617B681B685A1C7B681A60BD4604B0B6
:100FD00080BDC04680B584B000AF78607B681B6977
:100FE000FB607B685B687A6892689A607B689B6844
:100FF0007A6852685A60FB685A687B689A4203D1E3
:101000007B689A68FB685A607B6800221A61FB68FB
:101010001B685A1EFB681A60FB681B68181CBD46DB
:1010200004B080BD80B584B000AF78600023FB6061
:101030007A680723134004D07B6807229343083360
:101040007B60FFF7CFFB184B1B68002B05D1174BBC
:10105000072293431A1C144B1A60154B1A687B68BD
:10106000D218144B9A4213D8114B1A687B68D218C5
:101070000F4B1B689A420BD90B4B1A680C4B1B6821
:10108000D318FB600A4B1A687B68D218084B1A60A9
:10109000FFF7B4FBFB68002B01D101F005FBFB68F7
:1010A000181CBD4604B080BD700E002028F1FF1F43
:1010B0006C0E0020431D000080B582B000AF786048
:1010C0007B68002B01D072B6FEE7BD4602B080BD42
:1010D000C046C046C046704701B40020C046C04666
:1010E000C046C04601300928F8D9C046C046C046AF
:1010F000C046C046C046C04601BC704780B582B0FD
:1011000000AF021CBB1D1A8006E0FFF7E5FFBB1D08
:10111000BA1D1288643A1A80BB1D1B88642BF4D850
:1011200006E0FFF7D5FFBB1DBA1D12880A3A1A80E8
:10113000BB1D1B880A2BF4D8BD4602B080BDC0463B
:1011400080B582B000AF786007E00A4B181CFFF74B
:10115000D5FF7B68084A9B187B607A68054B9A42EA
:10116000F3D87B689BB2181CFFF7C8FFBD4602B0DE
:1011700080BDC04660EA0000A015FFFF80B584B0C6
:1011800000AF021CBB1D1A80094BFB6008E0FB6826
:10119000181CFFF7D5FFBB1DBA1D1288013A1A8033
:1011A000BB1D1B88002BF2D1BD4604B080BDC046DC
:1011B000EB51000080B500AFBD4680BD80B500AFEB
:1011C000034B5B68181C00F02DFBBD4680BDC0467C
:1011D000740E002080B500AF034B9B68181C00F014
:1011E000AFFABD4680BDC046740E002080B500AF8A
:1011F00072B6FFF7CDFDBD4680BDC04680B500AFDD
:1012000001F03EFABD4680BD80B500AFFFBEBD46D1
:1012100080BDC04680B500AF364A3749374BD15004
:10122000374A88235B010021D150354A354BC02114
:101230008902D150324A3249334BCB58C021C900C0
:101240001943314BD150314B9B78DBB21A1C082328
:10125000134007D02D4B2D4A9278D2B208210A4371
:10126000D2B29A70264A274B0021D150244A2449F1
:10127000274BC958274B1940254BD150204B204AAA
:101280001268C02109030A431A601D4A1C49204BF9
:10129000C958214B0B408021490419431C4BD150A4
:1012A0001E4B06221A701D4B00225A701B4B1B4A04
:1012B000D278D1B21F220A40D2B2DA70184B802203
:1012C0001A70164B00221A71144B00225A71C04634
:1012D000124B9B79DBB21A1C10231340F8D0C04686
:1012E0000E4B9B79DBB21A1C0C231340F8D1BD4680
:1012F00080BDC04600E000E000000000080D0000D6
:1013000000700440441000003810000000D0074076
:1013100004100000FFFFFEFFFFFFFFFC004006403F
:101320000050064080B500AFFFF760FF3A4B3A4AE5
:1013300011693A4A0A40E021C9000A431A61384B50
:10134000374A5279D2B21F218A43D2B25A71344BF2
:10135000334A1279D2B207218A43D2B21A71314B81
:10136000304A1278D2B2D2B273218A43D2B250211B
:101370000A43D2B2D2B21A702A4B2A4A5278D2B257
:10138000D2B263218A43D2B240210A43D2B2D2B24E
:101390005A70244B234A9278D2B219218A43D2B28E
:1013A0009A70214B00221A701B4B1B4A116D1B4A6D
:1013B0000A40E021C9000A431A651C4A1B49C1239F
:1013C0009B00C9581A4B1940C1239B00D150194AA0
:1013D0001849194BCB581B02190A174BD150154A03
:1013E0001449D2231B01C958114B1940D2231B01A8
:1013F000D150FFF7DFFE00F0D9FD00F01DF900200D
:1014000000F0BAF9FFF7DAFE002000F043F9FFF729
:10141000E1FEBD4680BDC04600900440FFF8FFFEDF
:1014200000F0074000D0074000E0074000E100E086
:10143000FFFF00FF00E000E01C0D000080B582B05F
:1014400000AF786039603B68002B09D10DE07B6804
:101450001A787B6801337B603B68101C984700E07A
:10146000C0467B681B78002BF1D1BD4602B080BD21
:1014700080B582B000AF78607B685B68034A101C5F
:10148000191CFFF7DBFFBD4602B080BDE438000049
:1014900080B584B000AFB9607A603B603B1C0F330D
:1014A000021C1A703B6800221A700023181CBD46EB
:1014B00004B080BD80B586B000AFF860B9607A60D6
:1014C0003B603B68DB689847031C002B00D168E059
:1014D00000E0C0463B1C173300221A703B681B68B3
:1014E0003A1C1732101C98473B1C17331B78002BF3
:1014F00051D03B1C17331B78082B04D03B1C1733EF
:101500001B787F2B0DD1BA68FB689A4242D9BB6821
:10151000013BBB60BB6800221A707B6801337B60B3
:1015200038E03B1C17331878BA68FB68D31A1A1CCA
:10153000F9683B1C1633FFF7ABFF031C002B10D0E0
:1015400009E03B1C173300221A703B681B683A1CE9
:101550001732101C98473B1C17331B78002BF0D117
:1015600018E03B1C17331A78BB681A70BB6801334C
:10157000BB607B68013B7B603B1C17331B780D2BEA
:101580000AD03B1C17331B780A2B05D07B68012B34
:101590009FD801E09DE7C046BB6800221A70012376
:1015A00000E00023181CBD4606B080BD80B500AF2A
:1015B000024B1B68181CBD4680BDC04604F0FF1FCF
:1015C00090B585B000AF78603C1C0F347B68181C68
:1015D00000F0F8FB031C23703B1C0F331B780A2B15
:1015E00002D17B6800221A70BD4605B090BDC0468E
:1015F00080B582B000AF021CFB1D1A70FB1D1A786B
:10160000034B101C191C00F01BF8BD4602B080BD36
:10161000AD1E000080B582B000AF00F0BDFC031C21
:101620005A1E9341DBB21A1CFB1D1A70FB1D1B785E
:10163000181CBD4602B080BD80B500AFBD4680BD60
:1016400090B585B000AF021C3960FB1D1A700523F0
:10165000FB603C1C0B34FB1D1A783B68101C984740
:10166000031C23703B1C0B331B780B2B02D1012076
:10167000FFF784FDFB68002B08DDFB68053BFB6082
:101680003B1C0B331B780B2BE3D000E0C046BD4660
:1016900005B090BD80B584B000AF7860114BFB60A1
:1016A000FB687A681A60104B0F4A5269802109035F
:1016B0000A435A610C4B0C4A11680C4A0A401A60E2
:1016C0000B4B0B4AD16C0B4A0A40802149000A435C
:1016D000DA64094BFA689A60FB68181CBD4604B0CE
:1016E00080BDC046840E002040F00F40FFFFF7FF92
:1016F00000A00440FFF8FFFE740E002080B584B007
:1017000000AF7860064B1A6880231B031340FB6010
:10171000FB685A1E9341DBB2181CBD4604B080BD65
:1017200040F00FF880B582B000AF7860034B8022A4
:1017300012039A60BD4602B080BDC04640F00FF86B
:1017400080B582B000AF7860034B802212035A60EC
:10175000BD4602B080BDC04640F00FF880B582B0F3
:1017600000AF7860034B80221203DA60BD4602B0FE
:1017700080BDC04640F00FF880B584B000AF7860FF
:10178000114BFB60FB687A681A60104B0F4A526974
:101790008021C9020A435A610C4B0C4A11680C4A59
:1017A0000A401A600B4B0B4A916C0B4A0A4080218D
:1017B00049000A439A64094BFA685A60FB68181C8E
:1017C000BD4604B080BDC046880E002040F00F40EA
:1017D000FFFFFBFF00A00440FFF8FFFE740E002097
:1017E00080B584B000AF7860064B1A688023DB02B6
:1017F0001340FB60FB685A1E9341DBB2181CBD46C8
:1018000004B080BD40F00FF880B582B000AF7860C2
:10181000034B8022D2029A60BD4602B080BDC04612
:1018200040F00FF880B582B000AF7860034B8022A3
:10183000D2025A60BD4602B080BDC04640F00FF8EB
:1018400080B582B000AF7860034B8022D202DA60AC
:10185000BD4602B080BDC04640F00FF880B584B0F0
:1018600000AF7860614BFB60FB6800221A81FB6867
:1018700000221A82FB680022DA60FB6800225A828A
:10188000FB6800221A83FB6800225A61FB687A68B1
:10189000DA61574BFA681A60564A5649564BCB588C
:1018A0008021C9001943544BD150544B534A5168BD
:1018B000534A0A40802189000A435A604F4B4F4ADD
:1018C00091684F4A0A40802189000A439A604D4A34
:1018D0004C49C3239B00CB58FF218B4380211943E4
:1018E000C3239B00D150474B464A126880214901CF
:1018F0000A431A60444B444AD278D2B208218A4340
:10190000D2B2DA70404B404AD278D2B204218A4334
:10191000D2B2DA70FB6800221A80FB6800225A609B
:10192000394B00229A70384B00229A71364B0022B4
:101930009A72354B00225A712E4A2E49334BC958A0
:10194000334B0B408021C9041943304BD1502E4BEF
:101950002D4A1278D2B21F218A43D2B21A702A4B72
:1019600089225A70284B284A927AD2B2D2B21F21C9
:101970008A43D2B203210A43D2B2D2B29A72224B24
:10198000214AD27AD2B2D2B202210A43D2B2D2B220
:10199000DA721D4B1C4AD278D2B2D2B208210A4365
:1019A000D2B2D2B2DA70184B174AD278D2B2D2B2CF
:1019B00004210A43D2B2D2B2DA70134B124AD2785F
:1019C000D2B220210A43D2B2DA700F4B0E4A92797A
:1019D000D2B20F210A43D2B29A710E4BFA681A6042
:1019E000FB68181CBD4604B080BDC0468C0E0020AC
:1019F000AC0E002000700440341000000090044041
:101A0000FFF8FFFE00E100E000A006400410000027
:101A1000FFFFFFF3740E002080B586B000AFF860C2
:101A2000B960BB1D1A80FB687B61BB1D1B88002B46
:101A300001D1842333E07B691B8A002B01D008236A
:101A40002DE03B1C1333EFF3108072B61870164B69
:101A50001B78DBB20133DBB2134A191C1170012B66
:101A600004D13B1C13331A78104B1A707B69BA6887
:101A7000DA607B69BA1D12881A827B6900221A819A
:101A8000094B1B78DBB2013BDBB2074A191C117012
:101A9000002B03D1054B187880F310880023181C05
:101AA000BD4606B080BDC046800E00205C0F002001
:101AB00080B586B000AFF860B960BB1D1A80FB68C6
:101AC0007B61BB1D1B88002B01D1842348E07B690F
:101AD0001B8B002B01D0082342E03B1C1333EFF398
:101AE000108072B61870204B1B78DBB20133DBB26A
:101AF0001D4A191C1170012B04D13B1C13331A7899
:101B00001A4B1A707B69BA685A617B69BA1D1288D0
:101B10001A837B6900225A827B691B880122134346
:101B20009AB27B691A80124B114AD278D2B28021C4
:101B300049420A43D2B2DA700D4B0D4A9279D2B2C1
:101B40009A71094B1B78DBB2013BDBB2064A191CC8
:101B50001170002B03D1054B187880F310880023F7
:101B6000181CBD4606B080BD800E00205C0F002012
:101B700000A0064090B583B000AF7860124BDB79CF
:101B8000DBB21C1C7B681B8A002B1AD07B68DB68CD
:101B9000E2B21A705A1C7B68DA607B681B890133D9
:101BA0009AB27B681A817B681A897B681B8A9A4281
:101BB00007D17B6800221A827B68DB69181C00F061
:101BC00027FABD4603B090BD00A0064080B582B0A4
:101BD00000AF78607B685A8A7B681B8B9A421CD264
:101BE000194A7B685B691978D1715A1C7B685A6104
:101BF0007B685B8A01339AB27B685A827B685A8A17
:101C00007B681B8B9A421CD17B6800221A837B68FD
:101C1000DB69181C00F03CFA13E00B4B0A4AD2783F
:101C2000D1B27F220A40D2B2DA70074B064A9279CB
:101C3000D2B29A717B681B88012293439AB27B6867
:101C40001A80BD4602B080BD00A00640F0B54746F0
:101C500080B482B000AF344B1B687B60334B1B7980
:101C6000DBB21C1C002500260F23234043D02F4B42
:101C70000F221A712D4BDB79DBB2984602232340E9
:101C800012D0202323400CD04346002B09D1731CD3
:101C9000DEB27B681B88022213439AB27B681A80EB
:101CA00002E004232B439DB20823234002D00123EA
:101CB0002B439DB20123234002D002232B439DB22C
:101CC0000423234002D008232B439DB27B685A682B
:101CD0002B1C1A437B685A6020239C43002E05D09E
:101CE0007B68DB69181C00F05FFA04E07B68DB6945
:101CF000181C00F011FA2023234003D07B68181C25
:101D0000FFF738FF7B681B881A1C0123134006D09D
:101D10008023234003D07B68181CFFF757FFBD4684
:101D200002B004BC9046F0BDAC0E002000A00640FE
:101D300080B584B000AF786039607B68FB603B1C85
:101D40000B33EFF3108072B61870144B1B78DBB2B4
:101D50000133DBB2114A191C1170012B04D13B1C59
:101D60000B331A780E4B1A70FB685A683B681A607E
:101D7000FB6800225A60094B1B78DBB2013BDBB2E7
:101D8000064A191C1170002B03D1054B187880F3FB
:101D900010880023181CBD4604B080BD800E0020B2
:101DA0005C0F002080B500AF044B1A68044B101C78
:101DB000191C0122FFF730FEBD4680BD600F0020D8
:101DC000F80E002080B584B000AF78603B1C0F3364
:101DD00000221A702D4B1B88002B4ED03B1C0E335B
:101DE000EFF3108072B61870294B1B78DBB2013309
:101DF000DBB2274A191C1170012B04D13B1C0E3396
:101E00001A78244B1A70214B1B88013B9AB21F4B46
:101E10001A80214B1B881A1C2049895C7A68117032
:101E200001339AB21C4B1A801B4B1B883F2B02D9E3
:101E3000194B00221A801A4B1B881A1C194B13408D
:101E400001D0192300E000233A1C0F321370144B09
:101E50001A88154B13409AB2114B1A800C4B1B7801
:101E6000DBB2013BDBB20A4A191C1170002B06D110
:101E7000084B187880F3108801E00A2302E03B1C2D
:101E80000F331B78181CBD4604B080BDB20E002075
:101E9000800E00205C0F0020B40E0020B80E002041
:101EA000B00E002041080000B6F7FFFF80B584B0F7
:101EB00000AF021CFB1D1A702F4B1B88402B01D159
:101EC0000B2354E03B1C0F33EFF3108072B61870F5
:101ED0002A4B1B78DBB20133DBB2284A191C117084
:101EE000012B04D13B1C0F331A78254B1A70224B5F
:101EF0001B8801339AB2204B1A80224B1B881A1C74
:101F00002149F81D0078885401339AB21D4B1A807C
:101F10001C4B1B883F2B02D91A4B00221A801B4BEB
:101F20001B881A1C2023134012D1184B1B88202217
:101F300013439AB2154B1A80154B1A68154B1B8820
:101F4000191C114BCB18101C191C0122FFF7B0FDF6
:101F50000A4B1B78DBB2013BDBB2084A191C11703B
:101F6000002B03D1064B187880F310880023181C2F
:101F7000BD4604B080BDC046FA0E0020800E002091
:101F80005C0F0020FE0E0020000F0020B00E00208D
:101F9000600F0020FC0E002080B500AF024B1B88B4
:101FA000181CBD4680BDC046B20E002080B500AFF3
:101FB0000F4B00221A800F4B00221A800E4B00227A
:101FC0001A800E4B00221A800D4B00221A800D4BF6
:101FD00000221A800C4B00221A800020FFF73EFCE2
:101FE000021C0A4B1A60FFF7DDFEBD4680BDC046ED
:101FF000B00E0020B20E0020B40E0020B60E00205D
:10200000FA0E0020FC0E0020FE0E0020600F0020C3
:1020100080B582B000AF7860174B1B883F2B18D873
:10202000154B1B8801339AB2134B1A80134B1B8834
:102030001A1C134908781349885401339AB20F4B7C
:102040001A800E4B1B883F2B0AD90C4B00221A809A
:1020500006E00D4B1B88402213439AB20A4B1A80AC
:102060000A4B1A68064B101C191C0122FFF7D4FCFE
:10207000BD4602B080BDC046B20E0020B60E0020A4
:10208000F80E0020B80E0020B00E0020600F0020D7
:1020900080B582B000AF78601A4B1B8801339AB2CA
:1020A000184B1A80174B1B883F2B02D9154B002267
:1020B0001A80154B1B88013B9AB2134B1A80124BA6
:1020C0001B88002B13D0114B1B88202213439AB27C
:1020D0000E4B1A800E4B1A680A4B1B88191C0D4BAD
:1020E000CB18101C191C0122FFF7E2FC06E0074B7D
:1020F0001A88DF2313409AB2044B1A80BD4602B0FF
:1021000080BDC046FC0E0020FA0E0020B00E00205C
:10211000600F0020000F002080B584B000AF786011
:102120001F4B1A683B1C0C33101C191CFFF700FED8
:10213000FB68002B31D0FA680223134001D004233E
:1021400000E00023174A128813439AB2154B1A80F5
:10215000FA680823134001D0802300E00023114ACD
:10216000128813439AB20F4B1A80FB689AB201236C
:1021700013409AB20B4B1B8813439AB2094B1A8037
:10218000FA680423134001D0022300E00023054A2B
:10219000128813439AB2034B1A80BD4604B080BD27
:1021A000600F0020B00E002080B582B000AF7860D4
:1021B000044B1B88022213439AB2024B1A80BD467D
:1021C00002B080BDB00E002080B500AF054A064BBE
:1021D000D31A054A101C00211A1C00F0BAFABD4699
:1021E00080BDC046640F002020F0FF1F01F0BCFA44
:1021F000FFF710F8FFF7E8FF01F0EAFA01F068FADC
:1022000001F0C0FA044B0020191C00F00DF8031C6B
:10221000181C00F073FAC046400F002080B582B051
:1022200000AF7860FEE7C04680B500AFFFF77AF8F0
:1022300000F046FAFCE7C04690B583B000AFFFF768
:10224000B5F9031C5B680E4A101C191CFFF7F6F861
:1022500000237B600EE00B4B7A689200D458FFF7A6
:10226000A5F9031C5B68201C191CFFF7E7F87B68C5
:1022700001337B607B68052BEDD9BD4603B090BD73
:10228000E039000008F0FF1F90B585B000AF78601E
:102290003B1C0F3300221A707A681C4B101C191C4F
:1022A00000F0B6FA031C002B05D1FFF7C5FF3B1C5D
:1022B0000F331B7825E07A68154B101C191C03227C
:1022C00000F04DFA031C002B0BD13C1C0F347B6833
:1022D000181C00F0D9F8031C23703B1C0F331B782B
:1022E0000FE0FFF763F9031C5B680A4A101C191C16
:1022F000FFF7A4F83B1C0F331B221A703B1C0F3353
:102300001B78181CBD4605B090BDC046043A0000BD
:102310000C3A0000103A000080B586B000AFF860BB
:10232000B9607A603B1C173300221A707B68002B5F
:1023300001D11B2365E0FB68181C00F077FA031C31
:102340003B61FA683B69D118BA683B69D21AF868F0
:102350007B68FFF7AFF8031C002B4FD0FB68181CFD
:1023600000F064FA031C3B613B69002B01D11B2385
:1023700047E03B69012B0AD1FB681B780A2B03D08D
:10238000FB681B780D2B02D1FB6800221A70BB681A
:102390005A1E3B699A4210D8FFF708F9031C5B6884
:1023A0001A4A101C191CFFF749F8FB6800221A7022
:1023B0003B1C173304221A7020E03B69013BFA688A
:1023C000D3181B780A2B06D03B69013BFA68D31857
:1023D0001B780D2B12D13B69013BFA68D318002200
:1023E0001A70FB68181CFFF74FFFFFF7DFF8031C9C
:1023F000181CFFF73DF8FB6800221A703B1C1733CE
:102400001B78181CBD4606B080BDC046203A0000AF
:1024100090B591B000AF78603B1C0C3300221A706D
:10242000FFF70AFFFFF7C2F8031C181CFFF720F89C
:10243000FFF7BCF8031C3C1C3F343A1C0C32101C48
:1024400030211A1CFFF768FF031C23700520FEF7DC
:102450006FF9EDE780B582B002AF094A094B01215F
:10246000009100210191101C191C64220023FEF729
:1024700033F8031C012B00D0FEE7BD4680BDC046EB
:10248000112400002C3A000080B584B000AF7860C1
:102490003B1C0F3300221A707A686C4B101C191CFD
:1024A00000F0B6F9031C002B27D1FFF77FF8031CBF
:1024B0005B68674A101C191CFEF7C0FF654B5B6820
:1024C000181CFFF78DF9031C002B09D1FFF76EF8DC
:1024D000031C5B68604A101C191CFEF7AFFF08E084
:1024E000FFF764F8031C5B685C4A101C191CFEF7BC
:1024F000A5FF3B1C0F331B78A3E07A68584B101CD8
:10250000191C00F085F9031C002B08D1514B5B68A6
:10251000181CFFF779F93B1C0F331B7891E07A68A0
:10252000504B101C191C00F073F9031C002B08D130
:10253000484B5B68181CFFF775F93B1C0F331B7881
:102540007FE07A68484B101C191C00F061F9031CED
:10255000002B08D13F4B5B68181CFFF771F93B1C3F
:102560000F331B786DE07A68404B101C191C00F08B
:102570004FF9031C002B27D1FFF718F8031C5B68E9
:102580003B4A101C191CFEF759FF324B9B68181C64
:10259000FFF7B4F8031C002B09D1FFF707F8031C61
:1025A0005B682D4A101C191CFEF748FF08E0FEF777
:1025B000FDFF031C5B68294A101C191CFEF73EFF37
:1025C0003B1C0F331B783CE07A682A4B101C191C0B
:1025D00000F01EF9031C002B08D11E4B9B68181C31
:1025E000FFF7A0F83B1C0F331B782AE07A68224BD8
:1025F000101C191C00F00CF9031C002B08D1154B02
:102600009B68181CFFF79CF83B1C0F331B7818E0E5
:102610007A681A4B101C191C00F0FAF8031C002BE6
:1026200008D10C4B9B68181CFFF798F83B1C0F3324
:102630001B7806E03B1C0F331B221A703B1C0F3328
:102640001B78181CBD4604B080BDC046343A00005B
:102650004C3A0000740E0020643A00006C3A00000E
:10266000743A0000883A00009C3A0000B03A00003A
:10267000CC3A0000E83A0000003B0000183B0000A4
:1026800080B500AFBD4680BD80B582B000AF786038
:10269000396072B6FEE7C04680B500AFBD4680BD6A
:1026A00080B500AFBD4680BD80B500AF72B6FEE715
:1026B00080B582B000AF78606420FEF739F8FBE7A0
:1026C00080B582B002AFFFF7C5FE0A4A0A4B00216F
:1026D000009100210191101C191C64220023FDF7B8
:1026E000FBFE031C012B00D0FEE7FEF745F8BD46BC
:1026F00080BDC046B1260000303B000038B5051C47
:1027000001F024F801F008F8084C2368002B02D0EF
:10271000984700202060064C2168002902D0884795
:1027200000222260281CFFF779FD38BD440F0020ED
:10273000480F002000B5C9B20378421C002B03D01B
:102740008B4205D0101CF7E74B42594149420840E3
:1027500000BD10B5041C00F013F8201C10BD30B5EE
:10276000002393420AD0C45CCD5CAC4201D0601B14
:1027700005E00133002CF4D1201C00E0002030BD26
:1027800030B5C9B2031C1F2A31D944420323234068
:1027900005D0D21AC51801700130A842FBD100291A
:1027A00005D00D060C042C430B0221431943540998
:1027B000031C002C0ED0251C013D19605960996046
:1027C000D960196159619961D9612033002DF3D124
:1027D0006301C318D006400F07D0041C1D1C013C28
:1027E00002C5002CFBD180001B18032422409D1839
:1027F000002A03D019700133AB42FBD130BD10B5B4
:102800000023934203D0CC5CC4540133F9E710BDDC
:1028100000B503780A78934204D1002B04D001302C
:102820000131F6E7981A00E0181C00BD00B5431E00
:1028300001331A78002AFBD1181A00BDF0B589B00F
:1028400001901F1C0EAB0391079202901A78081C8E
:1028500001990FAC01380026049225780670B14228
:1028600017D1119BB34214D1049B002B01D06F2DC3
:102870002FD0642D02D0692D00D0A8E0022F02D104
:10288000039802389FE0012F00D0A0E0039802389F
:1028900094E0692D0ED004D8582D16D0642D1CD18B
:1028A00008E0752D04D0782D0FD06F2D15D110E0D4
:1028B000002712E0019A002A0FDA80242606B2428D
:1028C0000DD051420191029109E000273E1C1024D5
:1028D00007E000273E1C082403E0002600E0012654
:1028E0000A240090002006900298211CFDF7E8FDC4
:1028F00002980591211CFDF79FFD059A0290092A77
:1029000001D8303205E0059A3732782D01D1059A89
:1029100057320098069B02990138D2B2009002709B
:102920000133002901D00693DEE7011C082C0BD1EE
:102930000498002808D0302A06D00B1C013B302216
:1029400000931A70069B0233079802280FD1002EBD
:1029500001D1002F02D0109901391091109A1192D3
:10296000102C04D10498002801D0023A1192039946
:102970000098119A091A8918164A914226DC009982
:10298000CA181199121A8A4203DA013830220270E9
:10299000F5E7102C0AD1049C002C07D0019B002BDA
:1029A00004D0421E3021023815700170002E02D072
:1029B00001382D2108E0012F02D101382B2103E03D
:1029C000022F04D101382021017000E0002009B05D
:1029D000F0BDC046FD010000F0B5B64C1E1CA5447C
:1029E0006B460A900B913E3320210020197008920B
:1029F0000590089A1578002D00D1F9E10898252155
:102A0000FFF798FE0C90002811D10898FFF70EFFF1
:102A10000599021C08180590002A00D1E8E10B98DE
:102A200008990A9EB047002800D0E1E1CEE00C9F53
:102A3000089C05993A1B8B180593002A0CD10C9819
:102A40000C9A437801321D1E252D0CD00027012140
:102A5000BC460D97069119E00B9808990A9DA84766
:102A60000028ECD1B2E00C9A002102320124089235
:102A7000079106943DE02B2B0BDC202B10D0232B51
:102A800000D0BAE001239C46013213782B2BF2D1FF
:102A9000ABE12D2B00D1A5E1302B00D0ADE004E05F
:102AA0000D9D012DF0D00220A0E1069C002CEBD062
:102AB00002200690E8E737680436FB43D80F937886
:102AC00002321C1C683C0021042C00D8C1E0DDB29D
:102AD0006E2B00D0C7E0013208926E2D00D149E183
:102AE00000D900E1632D00D159E107D8252D00D090
:102AF000F3E010AC25700996012619E0642D00D092
:102B0000EEE0321D09923068032900D0F6E0079903
:102B10006646009601950291039790A9069A0D9B2F
:102B2000FFF78CFE041E00D13FE1634F6F443E1A55
:102B3000069800283CD02023022800D130236F467D
:102B40003E373B7022782B2A04D02D2A02D0371C26
:102B5000202A0BD1371C302B08D10B98211C0122C5
:102B60000A9B9847002831D00134771E0699022924
:102B70000ED1612D01D0412D0AD1012F26DD0B98F8
:102B8000211C02220A9DA84700281FD0023F0234C0
:102B9000351C079EB54209DA69460B983E31012281
:102BA0000A9B9847002811D00135F2E73E1C00E04F
:102BB000351C002E03D10698002819D115E0211CE0
:102BC0000B98321C0A9CA0470028F4D101225542E0
:102BD00005950DE169463F3120240B9801220A9F9B
:102BE0000C70B8470028F1D00135079FBD42F1DBDA
:102BF000059A53190593099EFBE6171C2A2B00D052
:102C0000E1E0341D36680796002E03DA7342002592
:102C1000079306957B780132261C284F0798B84207
:102C200000DDC2E02E2B11D153782A2B00D142E7D0
:102C3000013200271C1C303C092C05D80A214F43C7
:102C400001323F191378F5E701203AE70027381CD5
:102C500037E71B4D295D1B4D2C57002C00D136E763
:102C60005378013233E76E2B0ADC632B2CD002DC65
:102C7000582B30D115E0642B13D0692B2BD110E0E9
:102C8000732B23D009DC6F2B0BD0702B23D10123A6
:102C90007825082703219C461DE7752B01D0782B4A
:102CA00019D1002815D0069C022C00D013E701236F
:102CB000069310E7BCFDFFFF3F020000FD0100008E
:102CC0004E3B0000493B0000002804D1002902D1FE
:102CD00001E70127FFE6FF25FDE6582D65D116E047
:102CE000692D62D10DE7732D23D002D86F2D5CD1F1
:102CF0000DE0752D0BD0782D57D108E0022901D1B8
:102D000000B204E7012900D001E740B2FFE6341D1C
:102D100009943068032906D0022901D180B202E06B
:102D2000012900D1C0B2079E624600920195029629
:102D3000F2E63468311D0991002C00D12F4C634616
:102D4000002B07D026780134002800D1F0E6BE42DF
:102D500037DCEDE6002808D0201C61463A1C00F064
:102D6000A9FC00282DD0061BE2E6201CFFF75EFD23
:102D7000061CDDE6351D09953468022907D00329B4
:102D80000AD0002900D036E70598206033E76F4667
:102D90001421CB5B23802EE7059A22602BE7336852
:102DA000301D10AC09902370A6E60C98FFF73EFD8D
:102DB000059E021C35180595002819D00B980C9912
:102DC0002FE63E1CB4E600240794191C303909296B
:102DD00000D922E7079D0A236B4301325818079058
:102DE0001378F2E7002706974EE601200D904BE698
:102DF00005989124A400A544F0BDC046483B0000BE
:102E0000F0B50027A9B0059006910F9309920D9790
:102E10000B9708970A970C970497099D2C78002C1C
:102E200000D103E3201C00F047FB002822D0099AC0
:102E300001321078099200F03FFB0028F7D1002FF3
:102E400000D0F1E2002106980A1C059CA047061C50
:102E500000F032FB002803D0049B01330493F1E718
:102E6000701C04D12E98002800D1DFE201270698BB
:102E7000311CABE2252C1BD0002F19D1391C069830
:102E80003A1C059EB047C1B2A1420AD00698012261
:102E9000B0472E9F002F00D1C8E2099D013509954A
:102EA000C2E2049B09990133013104930991B4E70B
:102EB0001EAC201C00212822FFF74BFC0998A54ED0
:102EC00045786660281E25280CD1211C14A82822CC
:102ED000E570FFF794FC099C0020023409940790E8
:102EE0000E90D7E02A2D02D0099C013405E0012381
:102EF00009992370099C88780234021C303A092A07
:102F00001FD800260A256E43303801343618207841
:102F1000031C303B092BF5D91EAD6E60002E0ED17F
:102F200001235942E97014A8291C28220134FFF713
:102F300066FC2B780994FF2507960E969DE00126E6
:102F40006E701EA9682804D06C280CD103208870EC
:102F500007E0637802228A70682B02D101258D7008
:102F60006419607801341EABD8705838202871D8A5
:102F7000FDF758FA7270702B707070707070701569
:102F800072707070707270707070727211707019EF
:102F900070727070720003269E7078215BE09A78E0
:102FA000002A59D056E09978002901D0FF20D87026
:102FB00000231EAAD518FF2601332E72202BF8D12C
:102FC000C121FE205172107346E09D78002D01D082
:102FD000FF26DE7063785E2B02D00134002102E010
:102FE000A378012102345D2B07D11EAB2020D874B9
:102FF0006378013401E0E3780334002B00D139E237
:103000005D2B00D139E2DDB2EA081EAE0720B2180E
:10301000184001258540107A2E1C657806431672EB
:103020002D2D14D1A278002A11D05D2A0FD00133A2
:103030009342E0DCDEB2F0081EAD281807251D40E3
:103040000126AE40351C067A35430572EFE70134A0
:103050002B1CD2E7FF21D9701EAE311C282214A8E8
:10306000FFF7CDFB6A467A327178107833780E918B
:103070000790F578013476680994002B06D1252D48
:1030800008D00F9A146804320F9200E000246E2DCD
:1030900001D1ADE10024002F01D001270AE00698FC
:1030A000391C0222059B9847002803D02E9F002F31
:1030B000F3D1BBE1692D25D012D85B2D00D115E1EC
:1030C00006D8252D00D1D3E0582D00D0AEE13EE04A
:1030D000632D00D17CE0642D00D0A7E10A2012E02E
:1030E000732D00D1E6E007D86E2D00D180E16F2D61
:1030F00000D09BE1082030E0752D2DD0782D00D038
:1031000094E124E00020002F48D112A913AA11ADA8
:1031100001910292311C0095059A069B00F0E3F99B
:10312000119E002E05D12E98002828D101240B9441
:103130007CE1049B129D9E190496002D05D08021F0
:103140000A06904201D043422AE0031C28E01020E6
:1031500003E0C046FFFFFF7F0A20002F1ED111AB06
:1031600013A912AD00930291069B311C0195059A9B
:1031700000F0B9F9119E031C002E03D1D3E70127FB
:10318000331C0DE0049A129D90190490002D07D075
:1031900080210E06B34203D05B4201E001270023E9
:1031A000002C11D0079E032E09D8301CFDF73AF9E8
:1031B00006020406237002E0238000E023600C9DD9
:1031C000794279416A180C920A9801300A906EE0AF
:1031D0000E98002800D10126002C33D00021119137
:1031E000A6198F4200D01FE1B44219D02E9A002AAE
:1031F00004D01198002811DA01230D9300210698BC
:103200000A1C059DA8470890013009D008AB1D781D
:1032100025701199013401311191E5E700240D94D5
:10322000119E2E9A002E00D1A0E0002A03D00D9905
:10323000002900D1F8E0049A0C9C90190134049004
:103240000C94D1E01194013E701C0CD00021069822
:103250000A1C059B9847013E0890013003D0119D40
:1032600001351195F0E7119E002E00D0BCE0DDE0A5
:10327000002F00D0D5E0002106980A1C059EB0471B
:10328000051C00F019F9002803D0049C01340494B3
:10329000F1E7252D08D001220698291CB0472E9A67
:1032A000002A00D142E7BCE00499013104910124D5
:1032B0000B94B2E501230B93002F17D10698391C0C
:1032C0003A1C059DA847051C00F0F6F8002806D01A
:1032D000049B00210133049306980A1CF1E70122A4
:1032E0000698291C059B984701220B92002C49D077
:1032F000002111918F4200D096E0013E351C711CD7
:1033000024D02E9A002A04D0119B002B1CDC012013
:103310000D90002106980A1C059B984708900130E3
:1033200014D008A90B7814A8DA0882180898072185
:103330000140127A01208840104207D02370119D6D
:10334000013401351195D8E700260D96119B08AE82
:103350003178002B05D02E9800280AD00D9A002A2B
:1033600007D101220698059FB8472E9A002A5DD002
:103370005AE00020049E20700C9CF3180134049342
:103380000C942BE01194013E351C711C19D00021C6
:1033900006980A1C059CA0470890013011D008A887
:1033A000017814AACB080898D418072303400121F8
:1033B000247A9940013E214203D0119D0135119597
:1033C000E2E7119E002E05D1069808990122059B7F
:1033D000984722E5049B089998190490002D03DB77
:1033E00006980122059DA8470A9901310A9114E522
:1033F000002C00D111E5079A032A00D90DE5101C15
:10340000FDF710F8070A02076D4610214A5B22807B
:1034100003E50498206000E568461026335C2370BD
:10342000FBE401270B97F8E40127F6E40021069856
:103430000222059DA8470A99002805D0002928D115
:10344000012670420C9024E0002922D10B9A002A18
:103450001FD00A9906980A1C059FB8470A99041CB0
:1034600002220698B8470028EAD10698211C0122BA
:10347000B8470EE0FF211EABEDE5002900D1EBE5DA
:1034800020AD2A7828A8D6432E7001358542F8D180
:10349000E2E50C9829B0F0BD8022031C00B50020A5
:1034A00051008B4204D803480122C31858781040B9
:1034B00000BDC046533B00008022031C00B5002025
:1034C00051008B4204D803481022C318587810408A
:1034D00000BDC046533B0000031C613B00B5192BE7
:1034E00000D8203800BDF0B587B0059101930D9943
:1034F0000E9B009200220A60071C1A60904216DBA5
:10350000012814D0242812DC0598904207DD009C85
:103510000198111CA0470126041C351C02E0141C54
:10352000161C402500220392974209D002E0141C89
:10353000161C402501214842391CFCF77DFF0390F1
:103540000023029304930598864200DD9EE0621CEE
:1035500000D19BE06022154200D097E0681E0F2842
:10356000F1D8FCF755FF082EF03FF0F0F052F0F0E4
:10357000F0F0F0F0F052201CFFF79EFF021E09D081
:103580000021009C01980A1CA047041C04980130EB
:103590000490D8E72B2C07D1009D0198111CA84757
:1035A0000136041C0225CEE702252D2CCBD1111C9F
:1035B0000198009B98470D9901220136041C0A606E
:1035C000C1E7002F02D00825102FBCD10825302CD0
:1035D000B9D10021009C01980A1CA0470136041CA7
:1035E0000425B0E7582C01D0782C09D1002101988E
:1035F0000A1C009B98470136041C08251027A2E7E7
:103600001025002F9FD108279DE7002F00D10A2702
:103610000398002805D101225042391CFCF70CFF09
:103620000390201C3038092802D8B84211DB0BE087
:10363000201CFFF731FF002806D0201CFFF74CFFAD
:10364000011C3639B94203DD102D1DD120257AE742
:103650003738029D039C0123A54201D80E9B1B68AD
:10366000029AC5B27A43D1438D4200D901230E9C00
:103670008018002123600290009D01980A1CA84731
:103680000136041C10255EE740255CE734273D40E9
:1036900003D10C9B02951D6004E0049D013E0C9932
:1036A00076190E60211C01980122009CA047029807
:1036B00007B0F0BD00B5C9B28218904205D00378BA
:1036C00001308B42F9D1013800E0002000BD00003C
:1036D00010B50B4C0B4B9C4202D001CC8047F9E754
:1036E000094C0A48844202D008CC9847F9E7084CB4
:1036F00008498C4202D004CC9047F9E710BDC0467F
:10370000543C0000543C0000543C0000543C000079
:10371000543C0000543C000010B5084C084B9C423F
:1037200002D004CC9047F9E7064C0748844203D006
:10373000043C21688847F8E710BDC046543C0000AF
:10374000543C0000543C0000543C0000054B10B5B4
:103750001C68002C04D0A068616888472468F8E7DA
:1037600010BDC0464C0F0020054B181C002805D08A
:10377000854681B00020C043009001B0F7467047F5
:1037800000300020F746704700B588421FD0002A5D
:103790001DD00323194207D1184205D19A4203D9FB
:1037A00008C9043A08C0F2E70123194209D11842B6
:1037B00007D19A4205D90B88023A038002310230C0
:1037C000E5E70B78013A037001310130DFE700BD16
:1037D00038B50B4D002D11D000242B191968002984
:1037E00006D02B1958689A68FFF7CEFF0C34F4E71F
:1037F0005A68002AF5D198680028F2D138BDC04631
:10380000743C000049444C450000000068656C7041
:1038100000000000434C53312068656C70000000CC
:103820000D0A00002D2D2D2D2D2D2D2D2D2D2D2D65
:103830002D2D2D2D2D2D2D2D2D2D2D2D2D2D2D2DB8
:103840002D2D2D2D2D2D2D2D2D2D2D2D2D2D2D2DA8
:103850002D2D2D2D2D2D2D2D2D2D2D2D2D2D2D2D98
:103860002D2D000057616C6B696E672043617420D9
:103870005368656C6C000000434C5331000000003D
:1038800047726F7570206F6620434C533120636F11
:103890006D6D616E64730D0A000000002020686584
:1038A0006C707C7374617475730000005072696E83
:1038B000742068656C70206F722073746174757306
:1038C00020696E666F726D6174696F6E0D0A00001B
:1038D0007374617475730000434C533120737461C9
:1038E00074757300434D443E200000002020427553
:1038F000696C64004D61722020372032303138000D
:103900002000000031313A33393A333300000000EF
:103910002A2A2A204661696C6564206F7220756EC0
:103920006B6E6F776E20636F6D6D616E643A200011
:103930002A2A2A20547970652000000020746F2004
:103940006765742061206C697374206F66206176EE
:1039500061696C61626C6520636F6D6D616E64732B
:103960000D0A0000092068656C700A0009204C45AA
:10397000445F4F6E626F6172645F52207374617452
:1039800075730A0009204C45445F4F6E626F617287
:10399000645F52206F6E7C6F66667C6E65670A009E
:1039A00009204C45445F4F6E626F6172645F4772DD
:1039B00065656E207374617475730A0009204C4547
:1039C000445F4F6E626F6172645F477265656E201F
:1039D0006F6E7C6F66667C6E65670A000A00000089
:1039E00057616C6B696E67204361742C205465616C
:1039F0006D3333205465726D696E616C203B290A0A
:103A00000000000068656C70000000004C45440038
:103A1000556E6B6E6F776E20434D44210A00000097
:103A20004F766572666C6F770A0000005368656CAC
:103A30006C0000004C45445F4F6E626F6172645FC2
:103A40005220737461747573000000004C45445F2C
:103A50004F6E626F6172645F52207374617475732C
:103A60003A00000009206F6E0A00000009206F660E
:103A7000660A00004C45445F4F6E626F6172645F7E
:103A800052206F6E000000004C45445F4F6E626F25
:103A90006172645F52206F66660000004C45445FAF
:103AA0004F6E626F6172645F52206E656700000046
:103AB0004C45445F4F6E626F6172645F477265652B
:103AC0006E20737461747573000000004C45445F90
:103AD0004F6E626F6172645F477265656E207374CA
:103AE000617475733A0000004C45445F4F6E626F1D
:103AF0006172645F477265656E206F6E0000000042
:103B00004C45445F4F6E626F6172645F47726565DA
:103B10006E206F66660000004C45445F4F6E626F1A
:103B20006172645F477265656E206E6567000000B4
:103B30005461736B31000000C1150000F1150000E5
:103B4000F115000015160000000100000001020040
:103B50000000030080808080808080808090909032
:103B60009090808080808080808080808080808035
:103B70008080808018040404040404040404040401
:103B80000404040402020202020202020202040409
:103B9000040404040443434343434341414141413A
:103BA0004141414141414141414141414141410442
:103BB000040404040423232323232321212121217A
:103BC0002121212121212121212121212121210402
:103BD0000404048000000000000000000000000059
:103BE00000000000000000000000000000000000D5
:103BF00000000000000000000000000000000000C5
:103C000000000000000000000000000000000000B4
:103C100000000000000000000000000000000000A4
:103C20000000000000000000000000000000000094
:103C30000000000000000000000000000000000084
:103C40000000000000000000000000000000000074
:043C50000000000070
:103C5400AAAAAAAA383B0000643900006C39000003
:103C640084390000A0390000BC390000DC390000B0
:103C7400543C000000F0FF1F200000000000000082
:083C8400000000000000000038
:04000003000021EDEB
:00000001FF
