:1000000000300020713F0000052B0000112B000084
:10001000112B0000112B0000112B0000112B0000F0
:10002000112B0000112B0000112B0000F117000014
:10003000112B0000112B0000F11700008D1700009C
:10004000112B0000112B0000112B0000112B0000C0
:10005000112B0000112B0000112B0000112B0000B0
:10006000112B000099260000112B0000112B00001D
:10007000D1390000112B0000112B0000112B0000C2
:10008000112B0000652300009D250000D5200000F5
:10009000112B0000112B0000112B0000112B000070
:1000A000112B0000112B0000112B0000112B000060
:1000B000112B0000112B0000112B0000112B000050
:10040000FFFFFFFFFFFFFFFFFFFFFFFF7EFFFFFF7D
:1004100002B4714649084900095649008E4402BC9D
:100420007047C04602B4714649084900095C49005A
:100430008E4402BC7047C046002934D001230022FC
:1004400010B488422CD301242407A14204D2814253
:1004500002D209011B01F8E7E400A14204D2814263
:1004600002D249005B00F8E7884201D3401A1A43E0
:100470004C08A04202D3001B5C0822438C08A04217
:1004800002D3001B9C082243CC08A04202D3001BCD
:10049000DC082243002803D01B0901D00909E3E747
:1004A000101C10BC7047002801D00020C04307B4C6
:1004B000024802A14018029003BDC0461900000086
:1004C0000029F0D003B5FFF7B9FF0EBC4243891AEB
:1004D0001847C0467047C0468446081C6146FFE77F
:1004E0001FB500F0F5F9002801D40021C8421FBD56
:1004F00010B500F07DF94042013010BD10B500F09C
:10050000E7F9002801DB002010BD012010BDC04626
:1005100010B500F0DDF9002801DD002010BD01203C
:1005200010BDC04610B500F08BF9002801DC00209A
:1005300010BD012010BDC04610B500F081F90028A3
:1005400001DA002010BD012010BDC0469E2110B56B
:10055000C905041CFFF7F0FF002803D1201C00F0A0
:10056000D5FB10BD9E22201CD10500F0F9F900F04A
:10057000CDFB80231C060019F3E7C046F0B55F46AB
:1005800056464D464446F0B44502440083B00E1C26
:100590006D0A240EC70F002C07D1002D00D091E06A
:1005A000042101228846924609E0FF2C55D0802381
:1005B000180400210543ED007F3C88468A46331C21
:1005C00058007602D90F760A000E8B464CD10122D4
:1005D0009446002E00D081E05B467B406246414657
:1005E00001930A430F2A50D9201A690181467501E7
:1005F000A94200D3B3E00122534299441B240026B0
:100600000127621E381C10404B007600002900DADA
:10061000A9E09D4200D8A6E0013C002C00DCABE044
:1006200000280CD0191C76005B00002901DB9D42DC
:1006300001D85B1B3E43013C002C00DC9CE05900D0
:100640007200002B01DB8D4201D8491B3A43013C6B
:100650004B0056000029EADAEBE7002D2DD10820E7
:10066000022180468A46AAE7FF2820D08022130470
:1006700000211E438C465B467B4062464146F600A5
:100680007F3801930A430F2AAED8564992008A5800
:100690009746019BFF260025F0052843DE073043DF
:1006A00003B03CBC90469946A246AB46F0BD331C15
:1006B0005A1E934102339C468EE70C220323904638
:1006C0009A467CE7281C00F095FB7622441F534293
:1006D000A5401C1A00208046824670E7301C00F0BE
:1006E00089FB7623411F8E405A420021101A8C4606
:1006F00072E700233C4DFF26CEE75F46351C01978D
:100700006346022BC5D0032B63D0012B43D049464F
:100710007F31002935DD0F272F40042F00D004350D
:100720002B0103D5314A494615408031FE29B0DC02
:10073000A801450ACEB2019BAEE700260025ABE733
:100740008020C1030D4211D00E420FD10E4373021F
:100750005D0AFF265B469FE701975346D1E7491B99
:100760001A2401264CE75B1B3E4355E70D436A0202
:10077000550A3B1CFF268FE71D1C6B1E9D41354310
:10078000C5E77E2467424A46B91A1B2908DD019B4A
:100790000026002580E7019D00262B4000257BE7F1
:1007A0004E469E36281CB5402B1C5D1EAB41C840F2
:1007B00003430F251D40042D00D004335A0103D5F7
:1007C000019B0126002567E79C01650A019B002625
:1007D00062E78027FC0325436E02750A019BFF2612
:1007E0005AE7C0460C690000FFFF7F00FFFFFFF7DC
:1007F0004302420070B55C0AC60F130E48024A005D
:10080000450A120EC90FFF2B05D0FF2A08D0012080
:1008100093420BD070BD0120002CFBD1FF2AF6D1F2
:100820000120002DF6D101209342F3D1AC42F1D149
:100830008E4203D0002BEDD1002CEBD10020E9E754
:10084000F0B5430242004F00C60F48025C0A450A59
:10085000130EC90F3A0EFF2B26D0FF2A29D0002BEA
:100860000CD1604260418446002A0AD0002816D18B
:100870008E4221D0002E14D1012014E0002AF7D19D
:1008800094466F426F416046002805D1002FEFD09B
:100890000120002E07D004E00020002F03D1002902
:1008A000EAD101214842F0BD002CD6D002225042AC
:1008B000F9E7002DD3D0F9E79342DBDC04DBAC424F
:1008C000D8D80020AC42EED2002EEAD00120EAE7D0
:1008D000F0B5430242004F00C60F48025C0A450AC9
:1008E000130EC90F3A0EFF2B26D0FF2A28D0002B5B
:1008F0000FD0002A14D194466F426F416046002801
:1009000014D00020002F03D100290DD1012148422D
:10091000F0BD604260418446002AEDD00028F3D14A
:100920008E4211D0002EF1D10120F1E7002FF7D037
:100930000120002EECD0E9E70220002CE8D1D4E71A
:100940000220002DE4D1D2E79342EBDC04DBAC4281
:10095000E8D80020AC42DBD2002ED7D00120D7E768
:10096000F8B5430245004F024C00C20F9809844677
:100970002D0E200EC90FBF09FF2851D0012671404E
:100980008A4238D02C1A002C00DC86E0002822D1C4
:10099000002F48D16E1C2C1C6346151C0F221A40D8
:1009A000042A00D0043301222A40580106D5FF2E24
:1009B00000D181E0B04D341C2B400136F6B2DD0889
:1009C000012E62DD6802450AE4B2E4052543281CD5
:1009D000D2071043F8BDFF2D51D08021CB041F4317
:1009E00001261B2C70DD67462C1CBB1B151C5801F7
:1009F00022D4661CD2E72E1A002E76DD002832D0D3
:100A0000FF2D3CD08024E1040F4301231B2E00DC8A
:100A1000D1E063442C1C58017AD4661C151CBDE738
:100A2000002FADD1AAE7013C002C6DD163462C1CF0
:100A3000DB1B151C5801DCD59A019609301C00F00F
:100A4000D9F905388640844239DC001B1F231A1A65
:100A5000331C311C441C9340E1405E1EB3410B43E8
:100A6000012600249AE7002F00D193E7013E002ED3
:100A700003D164463B192C1CCDE7FF2DC5D1151CB5
:100A8000802263465600FF2488E7002D9CD0002C6E
:100A900028D08027F9030D4394E7002C45D16B1C27
:100AA000D8B2012800DC90E06446E61B730157D5FC
:100AB0003E1B2C1C0D1CC1E7FF24002585E76E4B57
:100AC000241A3340661C69E7381C2021E0400C1BC7
:100AD000A7403E1C771EBE41064367462C1CBB1B2D
:100AE000151C84E76B025D0A6FE7002E79D16C1C40
:100AF000E0B201284BDDFF2C00D198E061467F1861
:100B0000AE1C7B08151C49E7FF2D00D068E7B6E74F
:100B1000671CFF2F36D058480121194003405B085D
:100B2000A61C0B433C1C151C38E76642002D1ED04A
:100B3000FF286FD080256246EB041A4394460125B6
:100B40001B2E09DC62462023F24064469E1BB44003
:100B5000251C6C1EA54115437B1B041C0D1C69E75D
:100B6000002E0CD100220126042300241DE7644638
:100B7000002C55D1461C3B1C041C0D1C0EE72C1CE4
:100B8000151C5BE780235E00FF2404230DE7002D86
:100B900000D08CE06546002D00D1ACE0002F00D1E4
:100BA00080E07B195C0100D47DE0334F151C3B4095
:100BB00002260124F2E6381C2023F0409E1BB74099
:100BC0003B1C5F1EBB41034323E7002D15D1654647
:100BD000002D47D1002FC5D03B1C0D1C0126002441
:100BE000DCE67642002D26D16546002D00D07CE063
:100BF000461C3B1C041C151CD0E66546002D3FD14D
:100C0000002F07D1802100224E001C4BFF24CCE690
:100C1000FF2894D180203B1C0D1C4600FF24BDE61C
:100C2000013E002EF4D13B1B0D1C041C02E7802565
:100C30006E000423B9E6FF2851D080246146E30406
:100C400019438C4601231B2E09DC20216446F44005
:100C500065468E1BB5402B1C591E8B412343DB1967
:100C6000041CD8E6002F1DD0EB1B58014AD57B1B76
:100C700001260D1C002491E6FFFFFFFBFCFFFF0394
:100C8000002F00D1FBE68020EB08C403234237D0BD
:100C9000FF08274234D13B1C0D1C8022DB0056008C
:100CA000FF247BE66346151C0126002476E6644695
:100CB000002C14D0002F00D1E1E68023E608D803F1
:100CC000311C064203D0F908014200D0311C151C2A
:100CD0008022CB005600FF2460E6FF28B2D180209E
:100CE0003B1C151C4600FF2458E6013E002EF4D1A3
:100CF0007B19041C8FE63B1C151C012600244DE6C5
:100D0000151CCAE7002B00D12CE7CCE743024200B8
:100D1000590A00B5130EC20F00207E2B0DDD9D2B4E
:100D20000CDC802000040143952B0ADC9620C31ABA
:100D3000D9404842002A00D1081C00BD0249501881
:100D4000FBE7963B9940F4E7FFFFFF7F70B5041E79
:100D50003CD0C50F00D04442201C00F04BF89E212F
:100D6000261C0B1A962B0ADC0838844061024C0AB8
:100D7000DBB2DB051C43ED07201C284370BD992B1B
:100D80000ADD0522141A311CE140041C1B34A64064
:100D90000A1C711E8E41164305281BDC144C0F22C1
:100DA00034401640042E00D00434620105D59F2340
:100DB0001B1AFF2B0CD00E4804405E1CF1B2E40855
:100DC00001290ADD6402640ADBB2D2E700250023B0
:100DD0000024CEE7411F8E40E0E7002CF4D0002B2A
:100DE00003D08022D0030443ECE76602740AC0E714
:100DF000FFFFFFFB1C2101231B04984201D3000CC1
:100E000010391B0A984201D3000A08391B0998427D
:100E100001D30009043902A2105C40187047C04693
:100E200004030202010101010000000000000000B3
:100E300090B58DB004AFF860B9603B60BB1D1A80FF
:100E4000BB1D1B889B00181C00F09CFD031C7B61D4
:100E50007B69002B10D0582000F094FD031CFB612F
:100E6000FB69002B03D0FB697A691A6306E07B6992
:100E7000181C00F0D1FD01E00023FB61FB69002B91
:100E800015D0BB1D1A88F868B9683B683C6B0094A4
:100E90007C6B0194FC6902940024039400F010F828
:100EA000FB69181C00F08EF80123BB6102E00123EE
:100EB0005B42BB61BB69181CBD4609B090BDC04612
:100EC00080B586B000AFF860B9607A603B60BB6AFD
:100ED0001A6B7B689B00101CA5211A1C04F0B6FB42
:100EE000BB6A1A6B7B68013B9B00D3183B613B6973
:100EF000072293433B613A690723134001D072B63E
:100F0000FEE7BB6A3A695A6400237B6112E0BA6863
:100F10007B69D3181A78B86A302379694118CB18DD
:100F20001A71BA687B69D3181B78002B06D07B69CD
:100F300001337B617B690E2BE9D900E0C046BA6AB8
:100F400042230021D1543B6A052B01D905233B6282
:100F5000BB6A3A6ADA62BB6A3A6A9A64BB6A00227E
:100F6000DA64BB6A0433181C00F082FCBB6A1833D5
:100F7000181C00F07DFCBB6ABA6A1A613B6A062243
:100F8000D21ABB6A9A61BB6ABA6A5A62BB6A002209
:100F90001A65BA6A54230021D1543969FA683B684A
:100FA000081C111C1A1C00F04BFB021CBB6A1A60C7
:100FB0007B6A002B02D07B6ABA6A1A60BD4606B013
:100FC00080BDC04680B582B000AF786000F0B0FB55
:100FD000274B1B685A1C264B1A60264B1B68002B9C
:100FE00009D1244B7A681A60214B1B68012B10D160
:100FF00000F06EFA0DE0204B1B68002B09D11D4B51
:101000001B68DA6A7B68DB6A9A4202D8194B7A68F5
:101010001A601A4B1B685A1C184B1A607B68DA6AF4
:10102000174B1B689A4203D97B68DA6A144B1A6023
:101030007B68DA6A131C9B009B189B00114A9A1864
:101040007B680433101C191C00F01CFC00F080FBB2
:10105000094B1B68002B08D0064B1B68DA6A7B68BB
:10106000DB6A9A4201D200F083FBBD4602B080BD2C
:1010700004F1FF1F30F0FF1F10F1FF1F20F1FF1FD1
:101080000CF1FF1F34F0FF1F80B584B000AF786013
:101090000023FB607B68002B10D00C4B1B68002BDF
:1010A00001D072B6FEE700F049F87B68181C0021F9
:1010B00000F072FA00F04EF8031CFB60FB68002B96
:1010C00001D100F055FBBD4604B080BD2CF1FF1FDF
:1010D00080B584B002AF134A134B0021009113492D
:1010E0000191101C191C64220023FFF7A1FE031CB0
:1010F0007B607B68012B0DD172B60D4B01225242F1
:101100001A600C4B01221A600B4B00221A6000F08F
:10111000F5FA04E07B68013301D172B6FEE7BD4603
:1011200002B080BDAD1400006C65000028F1FF1F07
:1011300024F1FF1F10F1FF1F08F1FF1F80B500AF62
:10114000034B1B685A1C024B1A60BD4680BDC0464B
:101150002CF1FF1F80B584B000AF0023FB6000239B
:10116000BB603A4B1B68002B01D172B6FEE700F062
:10117000DFFA364B1B685A1E344B1A60334B1B6820
:10118000002B5CD1324B1B68002B58D02FE0314B29
:10119000DB68DB68FB60FB681833181C00F0CAFBD7
:1011A000FB680433181C00F0C5FBFB68DA6A2A4BA5
:1011B0001B689A4203D9FB68DA6A274B1A60FB68FE
:1011C000DA6A131C9B009B189B00244A9A18FB6840
:1011D0000433101C191C00F055FBFB68DA6A204B25
:1011E0001B68DB6A9A4202D31E4B01221A60194B1C
:1011F0001B68002BCBD1FB68002B01D000F0AAF9B3
:10120000194B1B687B607B68002B10D000F02EF818
:10121000031C002B02D0134B01221A607B68013B98
:101220007B607B68002BF1D10F4B00221A600D4BC5
:101230001B68002B03D00123BB6000F099FA00F07B
:1012400087FABB68181CBD4604B080BD2CF1FF1F97
:1012500004F1FF1FDCF0FF1F0CF1FF1F34F0FF1F34
:1012600030F0FF1F18F1FF1F14F1FF1F80B586B08B
:1012700000AF00237B61514B1B68002B00D08BE03B
:101280004F4B1B6801333B614D4B3A691A603B6918
:10129000002B17D14B4B1B681B68002B01D072B67B
:1012A000FEE7484B1B68FB60474B1A68454B1A60CA
:1012B000454BFA681A60454B1B685A1C434B1A6031
:1012C00000F048F9424B1B683A699A4250D300E05B
:1012D000C0463C4B1B681B68002B01D1012300E07A
:1012E0000023002B04D03A4B012252421A603FE007
:1012F000344B1B68DB68DB68BB60BB685B687B608A
:101300003A697B689A4203D2314B7A681A602FE0BF
:10131000BB680433181C00F00DFBBB689B6A002BF4
:1013200004D0BB681833181C00F004FBBB68DA6AF1
:10133000284B1B689A4203D9BB68DA6A254B1A60AE
:10134000BB68DA6A131C9B009B189B00224A9A1800
:10135000BB680433101C191C00F094FABB68DA6AED
:101360001E4B1B68DB6A9A42B2D301237B61AFE755
:101370001A4B1B68DA6A1849131C9B009B189B00C8
:101380005B58012B01D901237B61154B1B68002B96
:1013900009D103F0B1FF06E0114B1B685A1C104B3A
:1013A0001A6003F0A9FF0F4B1B68002B01D001232B
:1013B0007B617B69181CBD4606B080BD2CF1FF1F08
:1013C00008F1FF1FD4F0FF1FD8F0FF1F1CF1FF1F13
:1013D00024F1FF1F0CF1FF1F34F0FF1F30F0FF1F3F
:1013E00014F1FF1F18F1FF1F80B582B000AF2A4B28
:1013F0001B68002B03D0294B01221A6048E0274BC1
:1014000000221A60264B1B681A68254B1B681B6B51
:101410009A4208D8224B1A68214B1B683433101C9F
:10142000191C03F061FF1F4B1B687B6007E07B68A2
:10143000002B01D172B6FEE77B68013B7B601A4945
:101440007A68131C9B009B189B005B58002BEED006
:101450007A68131C9B009B189B00134A9B183B60E7
:101460003B685B685A683B685A603B685A683B68EF
:1014700008339A4204D13B685B685A683B685A60FB
:101480003B685B68DA68064B1A60064B7A681A603C
:10149000BD4602B080BDC0462CF1FF1F18F1FF1FF2
:1014A00030F0FF1F0CF1FF1F34F0FF1F80B582B03A
:1014B00000AF786000F04AF8044B1B68012B01D99B
:1014C00000F056F903F01CFFF4E7C04634F0FF1FAC
:1014D00080B582B000AF00237B600CE07A68131CFB
:1014E0009B009B189B00124A9B18181C00F0A2F945
:1014F0007B6801337B607B68052BEFD90D4B181C93
:1015000000F098F90C4B181C00F094F90B4B181CC8
:1015100000F090F90A4B181C00F08CF9094B054AB1
:101520001A60094B044A1A60BD4602B080BDC0462D
:1015300034F0FF1FACF0FF1FC0F0FF1FDCF0FF1FF7
:10154000F0F0FF1FD4F0FF1FD8F0FF1F80B500AFF1
:10155000BD4680BD80B582B000AF0D4B1B681B68D7
:10156000002B01D1012300E00023002B04D0094B04
:10157000012252421A6008E0054B1B68DB68DB68F9
:101580007B607B685A68034B1A60BD4602B080BD21
:10159000D4F0FF1F24F1FF1F80B584B000AF786046
:1015A0003960214B1B68FB60204B1B680433181CFF
:1015B00000F0C0F97B6801330BD13B68002B08D0E9
:1015C0001A4B1B6804331A4A101C191C00F05AF9F4
:1015D00026E0FA687B68D318BB60144B1B68BA68B6
:1015E0005A60BA68FB689A4209D2124B1A680F4BCC
:1015F0001B680433101C191C00F066F910E00E4B38
:101600001A680A4B1B680433101C191C00F05CF9A3
:101610000A4B1B68BA689A4202D2084BBA681A6031
:10162000BD4604B080BDC04608F1FF1F30F0FF1F6B
:10163000F0F0FF1FD8F0FF1FD4F0FF1F24F1FF1FB1
:1016400080B584B000AFF860B9607A60FB68043B95
:10165000FB60FB68802252041A60FB68043BFB605D
:10166000BA68FB681A60FB68043BFB60FB680022F9
:101670001A60FB68143BFB607A68FB681A60FB68C1
:10168000203BFB60FB68181CBD4604B080BDC04613
:1016900080B500AF0A4B0A4A1268C02109060A4306
:1016A0001A60084B06221A60074B084A1A60084B5A
:1016B00000221A60034B07221A60BD4680BDC04657
:1016C00020ED00E010E000E014E000E03233030021
:1016D00018E000E080B500AF024B07221A60BD465B
:1016E00080BDC04610E000E080B500AF024B06228E
:1016F0001A60BD4680BDC04610E000E080B500AF76
:10170000094B094A1268F02189040A431A60074B01
:1017100000221A60FFF7BCFFFFF7DCFF00F048F87B
:101720000023181CBD4680BD20ED00E000F0FF1F27
:1017300080B500AF72B6054B1B685A1C034B1A608C
:10174000BFF34F8FBFF36F8FBD4680BD00F0FF1F0B
:1017500080B500AF054B1B685A1E044B1A60034B43
:101760001B68002B00D162B6BD4680BD00F0FF1F94
:1017700080B500AF044B802252051A60BFF34F8F33
:10178000BFF36F8FBD4680BD04ED00E080B500AFB4
:1017900072B6FFF76BFD031C002B01D0FFF7E8FFCB
:1017A00062B6BD4680BDC0460000000000000000DB
:1017B00080B500AF0A4A13681868203080F30988A2
:1017C000022080F31488BFF36F8F3FBCAE4608BC85
:1017D00004BC62B61847C046C046C046C046C046B4
:1017E00030F0FF1FBD4680BDC046C046C046C04663
:1017F000EFF309800E4B1A6820381060F0C04446A1
:101800004D4656465F46F0C008B572B6FFF7ECFD90
:1018100062B60CBC116808681030F0C8A046A94632
:10182000B246BB4680F309882038F0C81847C04646
:1018300030F0FF1F80B582B000AF78607B681A1C63
:1018400008327B685A607B68012252429A607B684A
:101850001A1C08327B68DA607B681A1C08327B68C5
:101860001A617B6800221A60BD4602B080BDC04686
:1018700080B582B000AF78607B6800221A61BD46F7
:1018800002B080BD80B584B000AF786039607B68FD
:101890005B68FB603B68FA685A60FB689A683B6863
:1018A0009A60FB689B683A685A60FB683A689A607D
:1018B0003B687A681A617B681B685A1C7B681A60EF
:1018C000BD4604B080BDC04680B584B000AF78602E
:1018D00039603B681B68BB60BB68013303D17B6820
:1018E0001B69FB600CE07B680833FB6002E0FB686F
:1018F0005B68FB60FB685B681A68BB689A42F6D954
:10190000FB685A683B685A603B685B683A689A6053
:101910003B68FA689A60FB683A685A603B687A6884
:101920001A617B681B685A1C7B681A60BD4604B04C
:1019300080BDC04680B584B000AF78607B681B690D
:10194000FB607B685B687A6892689A607B689B68DA
:101950007A6852685A60FB685A687B689A4203D179
:101960007B689A68FB685A607B6800221A61FB6892
:101970001B685A1EFB681A60FB681B68181CBD4672
:1019800004B080BD80B584B000AF78600023FB60F8
:101990007A680723134004D07B68072293430833F7
:1019A0007B60FFF7CBFB184B1B68002B05D1174B57
:1019B000072293431A1C144B1A60154B1A687B6854
:1019C000D218144B9A4213D8114B1A687B68D2185C
:1019D0000F4B1B689A420BD90B4B1A680C4B1B68B8
:1019E000D318FB600A4B1A687B68D218084B1A6040
:1019F000FFF7B0FBFB68002B01D103F085FCFB680F
:101A0000181CBD4604B080BD800E002038F1FF1FB9
:101A10007C0E0020431D000080B582B000AF7860CE
:101A20007B68002B01D072B6FEE7BD4602B080BDD8
:101A3000C046C046C046704701B40020C046C046FC
:101A4000C046C04601300928F8D9C046C046C04645
:101A5000C046C046C046C04601BC704780B582B093
:101A600000AF021CBB1D1A8006E0FFF7E5FFBB1D9F
:101A7000BA1D1288643A1A80BB1D1B88642BF4D8E7
:101A800006E0FFF7D5FFBB1DBA1D12880A3A1A807F
:101A9000BB1D1B880A2BF4D8BD4602B080BDC046D2
:101AA00080B582B000AF786007E00A4B181CFFF7E2
:101AB000D5FF7B68084A9B187B607A68054B9A4281
:101AC000F3D87B689BB2181CFFF7C8FFBD4602B075
:101AD00080BDC04660EA0000A015FFFF80B584B05D
:101AE00000AF021CBB1D1A80094BFB6008E0FB68BD
:101AF000181CFFF7D5FFBB1DBA1D1288013A1A80CA
:101B0000BB1D1B88002BF2D1BD4604B080BDC04672
:101B1000EB51000080B500AFBD4680BD90B589B0E7
:101B200000AFF860B960BB1D1A80FB68BB613B1C4D
:101B30001F3300221A70BB68013BBB60BB1D1B88B2
:101B4000002B38D1BB68002B35D03B1C1F331B78D2
:101B5000BA69D31830221A703B1C1F333A1C1F324B
:101B6000127801321A70BB68013BBB6023E03B1C5A
:101B70001F331B78BA69D418BB1D1B88181C0A2197
:101B8000FEF79EFC0B1C9BB2DBB23033DBB2237042
:101B90003B1C1F333A1C1F32127801321A70BB688B
:101BA000013BBB60BC1DBB1D1B88181C0A21FEF736
:101BB00043FC031C2380BB1D1B88002B02D0BB6889
:101BC000002BD4D13B1C1E3300221A702EE03B1C8C
:101BD0001E331B78BA69D2183B1C173312781A705F
:101BE0003B1C1E331B78BA69D3183A1C1F3211787C
:101BF0003A1C1E3212788A1A013AB9698A18127888
:101C00001A703B1C1F331A783B1C1E331B78D31AE7
:101C1000013BBA69D3183A1C173212781A703B1C70
:101C20001E333A1C1E32127801321A703B1C1F33CD
:101C30001B785B08DBB23A1C1E3212789A42C6D37C
:101C40003B1C1F331B78BA69D31800221A70BD469B
:101C500009B090BD80B584B000AF7860FB1C1970EE
:101C6000BB1C1A703B1C0E3300221A7006E03B1C92
:101C70000E333A1C0E32127801321A703B1C0E33AE
:101C80001B785BB27A68D3181B78002BEFD13B1C12
:101C90000F33BA1C12781A703A1C0F323B1C0E33E9
:101CA000127852B21B785BB29A4241D03A1C0F3282
:101CB0003B1C0E33127852B21B785BB29A4237DD6E
:101CC0001BE03B1C0F331B785BB27A68D3183A1CBD
:101CD0000E32127852B279688A1812781A703B1C48
:101CE0000F333A1C0F321278013A1A703B1C0E3334
:101CF0003A1C0E321278013A1A703B1C0E331B78D4
:101D00007F2BDED90FE03B1C0F331B785BB27A6868
:101D1000D318FA1C12781A703B1C0F333A1C0F327E
:101D20001278013A1A703B1C0F331B787F2BEAD9CB
:101D3000BD4604B080BDC04680B584B000AFF86039
:101D4000B960111C1A1CBB1D19807B1D1A70F96823
:101D5000BA68BB1D1B88081C111C1A1CFFF7DEFE8D
:101D6000F9687B1D1A783B1C18331B78081C111C62
:101D70001A1CFFF76FFFBD4604B080BD80B584B06C
:101D800000AFF860B9607A601A1CFB1C1A70F96821
:101D9000BA687B68081C111C1A1C00F00FF8F9685F
:101DA000FB1C1A783B1C18331B78081C111C1A1CCE
:101DB000FFF750FFBD4604B080BDC04690B589B066
:101DC00000AFF860B9607A60FB68BB613B1C1F33F1
:101DD00000221A70BB68013BBB607B68002B34D1CA
:101DE000BB68002B31D03B1C1F331B78BA69D3185A
:101DF00030221A703B1C1F333A1C1F3212780132FA
:101E00001A70BB68013BBB601FE03B1C1F331B7893
:101E1000BA69D4187B68181C0A21FEF751FB0B1C09
:101E2000DBB23033DBB223703B1C1F333A1C1F3252
:101E3000127801321A70BB68013BBB607B68181CCA
:101E40000A21FEF7F9FA031C7B607B68002B02D0A5
:101E5000BB68002BD9D13B1C1E3300221A702EE028
:101E60003B1C1E331B78BA69D2183B1C17331278FF
:101E70001A703B1C1E331B78BA69D3183A1C1F32E8
:101E800011783A1C1E3212788A1A013AB9698A18F6
:101E900012781A703B1C1F331A783B1C1E331B78B8
:101EA000D31A013BBA69D3183A1C173212781A7048
:101EB0003B1C1E333A1C1E32127801321A703B1C36
:101EC0001F331B785B08DBB23A1C1E3212789A4231
:101ED000C6D33B1C1F331B78BA69D31800221A7073
:101EE000BD4609B090BDC04680B584B000AF7860F3
:101EF000114BFB60FB687A681A60104B0F4A5269FD
:101F0000802189020A435A610C4B0C4A11680C4A21
:101F10000A401A600B4B0B4A516C0B4A0A40802155
:101F200049000A435A64094BFA68DA60FB68181CD6
:101F3000BD4604B080BDC046840E002000F00F40B6
:101F4000FFFFFDFF00900440FFF8FFFEBC0E0020E5
:101F500080B582B000AF7860034B802292029A6015
:101F6000BD4602B080BDC04600F00FF880B582B01B
:101F700000AF7860034B802292025A60BD4602B0E7
:101F800080BDC04600F00FF880B584B000AF786027
:101F9000264BFB60FB687A685A60254BFA681A602A
:101FA000244A2449244BCB588021C9041943224B8D
:101FB000D150224B00221A60204B00225A601F4B46
:101FC0000022DA601D4B00225A611C4B1C4A9A60A9
:101FD0001A4B4C22DA601B4B1A4A916D1A4A0A407E
:101FE000C02189000A439A65FB68184A1A60184A9A
:101FF0001749C4239B00CB581B021B0A80210906EA
:102000001943C4239B00D150114B114A12688021FF
:1020100009030A431A60094B4B221A600D4BFA68F8
:102020005A61FB68181CBD4604B080BD880E0020B4
:10203000900E0020007004403C10000000A00340FF
:10204000FFFF000000D00440FFF8FFFE0101000088
:1020500000E100E0BC0E002080B582B000AF7860E7
:10206000034B00225A600023181CBD4602B080BDFD
:1020700000A0034080B584B000AFF8607A603B1CDC
:102080000B330A1C1A703B1C0B331B78002B01D03E
:10209000822315E03B1C0B331B780B4AD35C012BCE
:1020A00001D009230CE0094A3B1C0B331B7808497B
:1020B000CB5C0133DB00D3189A687B681A6000237D
:1020C000181CBD4604B080BD5069000000A003404C
:1020D0004C69000080B582B000AF274B1B683B60A5
:1020E00000237B60254B1A688023134004D07B6853
:1020F0008022520013437B60204A214B1B7801331E
:10210000DB00D3185A688023134003D07B68012278
:1021100013437B603B681A687B6813407B607A6876
:1021200080235B0013400AD0144B144A12688021AC
:102130000A431A603B685B68181C03F0E9F87A6888
:102140000123134015D00D490D4B1B78181C0B4A69
:102150000B4B1B780133DB00D3185B6880221A43DA
:10216000431CDB00CB185A603B685B68181C03F00B
:10217000DBF8BD4602B080BD900E002000A00340F9
:102180004C69000080B584B000AF7860324BFB60D2
:10219000FB687A68DA60314BFA681A60304A304975
:1021A000304BCB588021490419432E4BD1502E4B34
:1021B00000221A602C4B00225A602B4B0022DA605E
:1021C000294B00225A61284B0022DA61264B00225B
:1021D0005A62254B0022DA62234B00225A63224BBB
:1021E000224A9A60204B2C22DA611F4B204A1A6245
:1021F000204B204A516F204A0A40C02189000A43DF
:102200005A67FB681D4A9A80FB68194A1A80FB6866
:102210001B4A5A80FB6808229A601A4A1949C4234B
:102220009B00C958184B0B40802109021943C42355
:102230009B00D150134B134A1268802189020A4334
:102240001A60094B48221A60104BFA68DA62FB6880
:10225000181CBD4604B080BD940E0020A40E0020C2
:10226000007004403C10000000800340CCCC000013
:102270001904000000D00440FFF8FFFE1F05000015
:10228000CCCCFFFF00E100E0FF00FFFFBC0E002010
:1022900080B584B000AF78607B68FB60074B074A6D
:1022A00012689821101C8843011CFA6892680A433E
:1022B0001A600023181CBD4604B080BD0080034096
:1022C00080B582B000AF7860064B064A126898214C
:1022D0008A431A60034B00225A600023181CBD4633
:1022E00002B080BD0080034080B584B000AF78604C
:1022F0000A1CBB1C1A807B68FB60BB1C1A88164B2F
:102300009A4201D8862323E0BB1C1B88181CFEF7C9
:102310001DFD031C1148191CFEF730F9031CBB609E
:10232000B8680F49FEF7FEF8031C002B04D0FB68C9
:10233000012252425A8006E0B868FEF707F9031CF2
:102340009AB2FB685A807B68181C00F023F80023BF
:10235000181CBD4604B080BD3F0100000000A04B2A
:1023600000FF7F4780B582B000AF084B1B687B60E1
:10237000074B074A126880210A431A607B68DB68B2
:10238000181C00F0B5FBBD4602B080BDA40E0020B5
:102390000080034080B584B000AF78607B68FB604C
:1023A000FB685B880133FA689288534380221202EB
:1023B0009B181B0C9AB2FB681A80054BFA681288AE
:1023C0001A62034BFA6852889A60BD4604B080BD19
:1023D0000080034080B584B000AF78602C4BFB6078
:1023E000FB687A68DA602B4BFA681A602A4A2A4935
:1023F0002A4BCB58802189041943284BD150284BB4
:1024000000221A60264B00225A60254B0022DA6017
:10241000234B00225A61224B224A9A60204B2C22E5
:10242000DA601F4B204A1A61204B204A116D204A66
:102430000A40C02189000A431A65FB681D4A9A8038
:10244000FB68194A1A80FB681B4A5A80FB680822FD
:102450009A601A4A1949C4239B00C958184B0B406B
:10246000802109041943C4239B00D150134B134A04
:1024700012688021C9020A431A60094B48221A6077
:10248000104BFA689A62FB68181CBD4604B080BD08
:10249000A80E0020B80E0020007004403C10000080
:1024A00000900340CCCC00001904000000D0044090
:1024B000FFF8FFFE1F050000CCCCFFFF00E100E0AD
:1024C000FFFF00FFBC0E002080B584B000AF786035
:1024D0007B68FB60074B074A12689821101C8843F1
:1024E000011CFA6892680A431A600023181CBD4652
:1024F00004B080BD0090034080B582B000AF78602A
:10250000064B064A126898218A431A60034B002240
:102510005A600023181CBD4602B080BD00900340E5
:1025200080B584B000AF78600A1CBB1C1A807B6841
:10253000FB60BB1C1A88164B9A4201D8862323E005
:10254000BB1C1B88181CFEF701FC031C1148191C3E
:10255000FEF714F8031CBB60B8680F49FDF7E2FFF3
:10256000031C002B04D0FB68012252425A8006E073
:10257000B868FDF7EBFF031C9AB2FB685A807B68D2
:10258000181C00F023F80023181CBD4604B080BDC1
:102590003F0100000000A04B00FF7F4780B582B0E4
:1025A00000AF084B1B687B60074B074A126880210D
:1025B0000A431A607B68DB68181C00F04BF8BD46C4
:1025C00002B080BDB80E00200090034080B584B0FA
:1025D00000AF78607B68FB60FB685B880133FA685A
:1025E00092885343802212029B181B0C9AB2FB68FC
:1025F0001A80054BFA6812881A61034BFA685288F0
:102600009A60BD4604B080BD0090034090B585B08F
:1026100000AF021CBB1D1A800D4B9A6A3C1C0E3485
:10262000BB1D1B88101C191CFFF77AFF031C23809D
:102630003B1C0E331B88862B01D1022303E03B1C7D
:102640000E331B88DBB2181CBD4605B090BDC046DA
:10265000BC0E002080B582B000AF786002F076FE3C
:10266000BD4602B080BDC04680B500AF034B5B687D
:10267000181C00F099FFBD4680BDC046BC0E00206E
:1026800080B500AF034B9B68181C00F09FFEBD4651
:1026900080BDC046BC0E002090B583B000AF9A4B01
:1026A0001B687B60994BDB78DCB2984B974AD278F9
:1026B000D2B2D2B212218A43D1B2E2B20A43D2B22A
:1026C000D2B2DA70914B9B78DBB21A1C20231340F4
:1026D00000D1F9E08D4B9B78DBB21A1C102313401C
:1026E00000D1B0E0221C0123134024D0874B874A3D
:1026F0009278D2B220218A43D2B29A70834B834A15
:102700009278D2B210218A43D2B29A707B680022AA
:102710009A817B6800229A807B681B780122934310
:10272000DAB27B681A707B681B7806221343DAB230
:102730007B681A70E4E07B681B781A1C0223134044
:1027400000D174E07B689B89002B0ED07B689B894D
:10275000013B9AB27B689A816C4A7B681B69197845
:1027600011715A1C7B681A61CAE07B689B88002B38
:102770003CD07B681B781A1C042313401FD07B6855
:102780009B88012B08D1614B604A9278D2B2082114
:102790000A43D2B29A7007E05C4B5C4A9278D2B29C
:1027A00008218A43D2B29A70584B584A9278D2B2D2
:1027B00010218A43D2B29A70544B1B79A0E0534B3C
:1027C000524A9278D2B204210A43D2B29A704F4B45
:1027D0007A68D27801210A43D2B21A717B681B78D9
:1027E00004221343DAB27B681A7089E07B681B7895
:1027F00001229343DAB27B681A707B685B78012B05
:102800000FD1424B414A9278D2B220218A43D2B2B0
:102810009A703E4B3D4A9278D2B210218A43D2B28E
:102820009A707B685B69181C00F000F968E0374B10
:102830007A6892781A717B681B7802221343DAB2A5
:102840007B681A705CE07B689B88013B9AB27B686E
:102850009A807B689B88002B0CD07B689B88012B1F
:102860001FD12A4B294A9278D2B208210A43D2B208
:102870009A7016E07B681B7801229343DAB27B687A
:102880001A70224B214A9278D2B220218A43D2B2C6
:102890009A701E4B1D4A9278D2B208218A43D2B256
:1028A0009A707B689B68194A1279D2B21A705A1CC6
:1028B0007B689A607B689B88002B21D17B685B6971
:1028C000181C00F0C5F81BE0221C1023134017D081
:1028D0007B6800229A817B6800229A807B680122B3
:1028E0005A707B681B7801229343DAB27B681A70B6
:1028F000064B064A9278D2B210218A43D2B29A701D
:10290000BD4603B090BDC046180F002000700640C1
:1029100080B584B000AF78603A4BFB60FB687A68A2
:102920005A61394BFA681A60FB6820221A70FB68FA
:1029300052229A70FB6801225A70FB6800229A802A
:10294000FB6800229A81314A3049314BCB588021B3
:1029500019432F4BD1502F4B00229A702D4B402200
:102960009A712C4B0222DA702B4B2B4AD16A2B4ADC
:102970000A40802189000A43DA62274B264A916A7D
:10298000264A0A40802189000A439A62244A24493F
:10299000C2239B00C958234B0B40802109021943D5
:1029A000C2239B00D1501E4B1D4A12688021890012
:1029B0000A431A60174B00225A71164B00229A7173
:1029C000144B08221A72134B44225A70114B114AAD
:1029D0009278D2B2D2B2802149420A43D2B2D2B264
:1029E0009A700C4B0B4A9278D2B240210A43D2B271
:1029F0009A700D4BFA681A61FB68181CBD4604B04A
:102A000080BDC046000F0020180F00200070044059
:102A1000341000000070064000B00440FFF8FFFED4
:102A200000E100E0FF00FFFFBC0E002080B584B095
:102A300000AF78607A68054B9A4204D17B68FB60EE
:102A4000FB6801225A70BD4604B080BD1C0F0020F7
:102A500080B584B000AF78607A68054B9A4204D1A3
:102A60007B68FB60FB6801221A70BD4604B080BD24
:102A70001C0F002080B500AF064B181CFFF748FF65
:102A8000021C044B5A60034B5B68002B00D1FEE72D
:102A9000BD4680BD1C0F002080B500AF72B6FEF7AA
:102AA00023FEBD4680BDC04690B585B000AF021C78
:102AB000BB1D1A800D4BDA6A3C1C0E34BB1D1B88F3
:102AC000101C191CFFF710FC031C23803B1C0E3349
:102AD0001B88862B01D1022303E03B1C0E331B888D
:102AE000DBB2181CBD4605B090BDC046BC0E002030
:102AF00080B582B000AF786002F022FCBD4602B023
:102B000080BDC04680B500AF02F0EAFBBD4680BD87
:102B100080B500AFFFBEBD4680BDC04680B500AFEA
:102B2000364A3749374BD150374A88235B01002159
:102B3000D150354A354BC0218902D150324A3249F1
:102B4000334BCB58B82189011943314BD150314B0C
:102B50009B78DBB21A1C0823134007D02D4B2D4A5B
:102B60009278D2B208210A43D2B29A70264A274BF1
:102B70000021D150244A2449274BC958274B1940DA
:102B8000254BD150204B204A1268C02109030A432B
:102B90001A601D4A1C49204BC958214B0B4080210B
:102BA000490419431C4BD1501E4B06221A701D4B71
:102BB00000225A701B4B1B4AD278D1B21F220A4006
:102BC000D2B2DA70184B80221A70164B00221A719A
:102BD000144B00225A71C046124B9B79DBB21A1C6F
:102BE00010231340F8D0C0460E4B9B79DBB21A1C61
:102BF0000C231340F8D1BD4680BDC04600E000E084
:102C000000000000080D00000070044044100000A7
:102C10003810000000D0074004100000FFFFFEFF46
:102C2000FFFFFFFC004006400050064080B500AFAB
:102C3000FFF732FF4B4B4B4A11694B4A0A40E021E8
:102C4000C9000A431A61494B484A5279D2B21F213E
:102C50008A43D2B25A71454B444A1279D2B2072103
:102C60008A43D2B21A71424B414A1278D2B2D2B2DE
:102C700073218A43D2B250210A43D2B2D2B21A701F
:102C80003B4B3B4A5278D2B2D2B263218A43D2B292
:102C900040210A43D2B2D2B25A70354B344A9278AC
:102CA000D2B219218A43D2B29A70324B00221A70E2
:102CB0002C4B2C4A116D2C4A0A40E021C9000A43D2
:102CC0001A652D4A2C49C1239B00C9582B4B19402A
:102CD000C1239B00D1502A4A29492A4BCB581B02B9
:102CE000190A284BD150264A2549D2231B01C9581D
:102CF000224B1940D2231B01D150FEF70BFF01F0EC
:102D000017F800F02FF9002000F0F8FBFFF7ACFCFB
:102D1000002000F005FBFFF7B3FCFFF7ABFE00203F
:102D200000F0CAFA002000F093FA002000F040FA08
:102D3000002000F0EDF90020FFF74CFB0020FFF72A
:102D400021FA002000F0B4F9002000F081F9002001
:102D500000F036F9002000F089FB002000F052FB63
:102D6000BD4680BD00900440FFF8FFFE00F0074024
:102D700000D0074000E0074000E100E0FFFF00FF57
:102D800000E000E01C0D000080B582B000AF78606C
:102D900039603B68002B09D10DE07B681A787B68AD
:102DA00001337B603B68101C984700E0C0467B689D
:102DB0001B78002BF1D1BD4602B080BD80B584B038
:102DC00000AFB9607A603B603B1C0F33021C1A7085
:102DD0003B6800221A700023181CBD4604B080BD59
:102DE00080B586B000AFF860B9607A603B603B6840
:102DF000DB689847031C002B00D168E000E0C04668
:102E00003B1C173300221A703B681B683A1C1732B0
:102E1000101C98473B1C17331B78002B51D03B1CD0
:102E200017331B78082B04D03B1C17331B787F2BE0
:102E30000DD1BA68FB689A4242D9BB68013BBB60BE
:102E4000BB6800221A707B6801337B6038E03B1C52
:102E500017331878BA68FB68D31A1A1CF9683B1C38
:102E60001633FFF7ABFF031C002B10D009E03B1C0F
:102E7000173300221A703B681B683A1C1732101C6B
:102E800098473B1C17331B78002BF0D118E03B1CF4
:102E900017331A78BB681A70BB680133BB607B6854
:102EA000013B7B603B1C17331B780D2B0AD03B1C6E
:102EB00017331B780A2B05D07B68012B9FD801E0C4
:102EC0009DE7C046BB6800221A70012300E0002382
:102ED000181CBD4606B080BD80B500AF024B1B6814
:102EE000181CBD4680BDC04604F0FF1F90B585B0DC
:102EF00000AF78603C1C0F347B68181C00F024FE87
:102F0000031C23703B1C0F331B780A2B02D17B68F8
:102F100000221A70BD4605B090BDC04680B582B093
:102F200000AF021CFB1D1A70FB1D1A78034B101C0E
:102F3000191C00F01BF8BD4602B080BD313C0000FA
:102F400080B582B000AF00F0E9FE031C5A1E934129
:102F5000DBB21A1CFB1D1A70FB1D1B78181CBD462A
:102F600002B080BD80B500AFBD4680BD90B585B0D4
:102F700000AF021C3960FB1D1A700523FB603C1C6E
:102F80000B34FB1D1A783B68101C9847031C2370F8
:102F90003B1C0B331B780B2B02D10120FEF79EFD4F
:102FA000FB68002B08DDFB68053BFB603B1C0B331B
:102FB0001B780B2BE3D000E0C046BD4605B090BDAA
:102FC00080B584B000AF7860104BFB60FB687A6816
:102FD0001A600F4B0E4A526910210A435A610C4B7A
:102FE0000B4A126810218A431A600A4B094A116978
:102FF000094A0A40802149000A431A61074BFA68CE
:103000009A63FB68181CBD4604B080BD280F0020E1
:1030100000F10F4000D00440FFF8FFFEBC0E00207E
:1030200080B582B000AF7860024B10229A60BD4636
:1030300002B080BD00F10FF880B582B000AF7860BB
:10304000024B10225A60BD4602B080BD00F10FF85D
:1030500080B584B000AF7860104BFB60FB687A6885
:103060001A600F4B0E4A526908210A435A610C4BF1
:103070000B4A126808218A431A600A4B094AD16830
:10308000094A0A40802149000A43DA60074BFA687E
:103090005A63FB68181CBD4604B080BD2C0F00208D
:1030A00000F10F4000D00440FFF8FFFEBC0E0020EE
:1030B00080B584B000AF7860104BFB60FB687A6825
:1030C0001A600F4B0E4A526904210A435A610C4B95
:1030D0000B4A126804218A431A600A4B094A916814
:1030E000094A0A40802149000A439A60074BFA685E
:1030F0001A63FB68181CBD4604B080BD300F002069
:1031000000F10F4000D00440FFF8FFFEBC0E00208D
:1031100080B584B000AF7860114BFB60FB687A68C3
:103120001A60104B0F4A5269802109010A435A6103
:103130000C4B0C4A11680C4A0A401A600B4B0B4AA4
:10314000D16A0B4A0A40802149000A43DA62094BDE
:10315000FA685A62FB68181CBD4604B080BDC046C0
:10316000340F002040F00F40FFF7FFFF00A00440A5
:10317000FFF8FFFEBC0E002080B582B000AF786083
:10318000034B802212019A60BD4602B080BDC0464A
:1031900040F00FF880B582B000AF7860034B80221A
:1031A00012015A60BD4602B080BDC04640F00FF823
:1031B00080B584B000AF7860114BFB60FB687A6823
:1031C0001A60104B0F4A52698021C9000A435A61A4
:1031D0000C4B0C4A11680C4A0A401A600B4B0B4A04
:1031E000916A0B4A0A40802149000A439A62094BBE
:1031F000FA681A62FB68181CBD4604B080BDC04660
:10320000380F002040F00F40FFFBFFFF00A00440FC
:10321000FFF8FFFEBC0E002080B582B000AF7860E2
:10322000034B8022D2009A60BD4602B080BDC046EA
:1032300040F00FF880B582B000AF7860034B802279
:10324000D2005A60BD4602B080BDC04640F00FF8C3
:1032500080B584B000AF7860114BFB60FB687A6882
:103260001A60104B0F4A5269802189000A435A6143
:103270000C4B0C4A11680C4A0A401A600B4B0B4A63
:10328000516A0B4A0A40802149000A435A62094B9D
:10329000FA68DA61FB68181CBD4604B080BDC04600
:1032A0003C0F002040F00F40FFFDFFFF00A0044056
:1032B000FFF8FFFEBC0E002080B584B000AF786040
:1032C000114BFB60FB687A681A60104B0F4A526919
:1032D000802149000A435A610C4B0C4A11680C4A80
:1032E0000A401A600B4B0B4A116A0B4A0A408021B4
:1032F00049000A431A62094BFA689A61FB68181C74
:10330000BD4604B080BDC046400F002040F00F40D5
:10331000FFFEFFFF00A00440FFF8FFFEBC0E0020F0
:1033200080B584B000AF7860114BFB60FB687A68B1
:103330001A60104B0F4A5269802109030A435A61EF
:103340000C4B0C4A11680C4A0A401A600B4B0B4A92
:10335000D16C0B4A0A40802149000A43DA64094BC8
:10336000FA689A60FB68181CBD4604B080BDC04670
:10337000440F002040F00F40FFFFF7FF00A0044083
:10338000FFF8FFFEBC0E002080B584B000AF78606F
:10339000064B1A6880231B031340FB60FB685A1E10
:1033A0009341DBB2181CBD4604B080BD40F00FF85D
:1033B00080B582B000AF7860034B802212039A6020
:1033C000BD4602B080BDC04640F00FF880B582B067
:1033D00000AF7860034B802212035A60BD4602B0F2
:1033E00080BDC04640F00FF880B582B000AF786075
:1033F000034B80221203DA60BD4602B080BDC04696
:1034000040F00FF880B584B000AF7860114BFB60DE
:10341000FB687A681A60104B0F4A52698021890252
:103420000A435A610C4B0C4A11680C4A0A401A6054
:103430000B4B0B4A516C0B4A0A40802149000A434E
:103440005A64094BFA681A64FB68181CBD4604B03C
:1034500080BDC046480F002080F00F40FFFFFDFFF9
:1034600000B00440FFF8FFFEBC0E002080B584B021
:1034700000AF7860104BFB60FB687A681A600F4BF6
:103480000E4A526920210A435A610C4B0B4A1268BA
:1034900020218A431A600A4B094A5169094A0A40A5
:1034A000802149000A435A61074BFA68DA63FB68D6
:1034B000181CBD4604B080BD4C0F002000F10F4029
:1034C00000D00440FFF8FFFEBC0E002080B582B0A3
:1034D00000AF7860024B20229A60BD4602B080BDEA
:1034E00000F10FF880B582B000AF7860024B202267
:1034F0005A60BD4602B080BD00F10FF880B584B0BF
:1035000000AF7860114BFB60FB687A681A60104B63
:103510000F4A52698021C9020A435A610C4B0C4A76
:1035200011680C4A0A401A600B4B0B4A916C0B4A0B
:103530000A40802149000A439A64094BFA685A609C
:10354000FB68181CBD4604B080BDC046500F00206B
:1035500040F00F40FFFFFBFF00A00440FFF8FFFE1C
:10356000BC0E002080B584B000AF7860064B1A68AE
:103570008023DB021340FB60FB685A1E9341DBB2E1
:10358000181CBD4604B080BD40F00FF880B582B075
:1035900000AF7860034B8022D2029A60BD4602B031
:1035A00080BDC04640F00FF880B582B000AF7860B3
:1035B000034B8022D2025A60BD4602B080BDC04695
:1035C00040F00FF880B582B000AF7860034B8022E6
:1035D000D202DA60BD4602B080BDC04640F00FF8AE
:1035E00080B584B000AF7860614BFB60FB6800225F
:1035F0001A81FB6800221A82FB680022DA60FB68ED
:1036000000225A82FB6800221A83FB6800225A615A
:10361000FB687A68DA61574BFA681A60564A56496D
:10362000564BCB588021C9001943544BD150544BB1
:10363000534A5168534A0A40802189000A435A601C
:103640004F4B4F4A91684F4A0A40802189000A43F4
:103650009A604D4A4C49C3239B00CB58FF218B43B2
:1036600080211943C3239B00D150474B464A12681F
:10367000802149010A431A60444B444AD278D2B2AD
:1036800008218A43D2B2DA70404B404AD278D2B293
:1036900004218A43D2B2DA70FB6800221A80FB68E8
:1036A00000225A60394B00229A70384B00229A71DE
:1036B000364B00229A72354B00225A712E4A2E49FF
:1036C000334BC958334B0B408021C9041943304B4D
:1036D000D1502E4B2D4A1278D2B21F218A43D2B23A
:1036E0001A702A4B89225A70284B284A927AD2B2F1
:1036F000D2B21F218A43D2B203210A43D2B2D2B23C
:103700009A72224B214AD27AD2B2D2B202210A4311
:10371000D2B2D2B2DA721D4B1C4AD278D2B2D2B235
:1037200008210A43D2B2D2B2DA70184B174AD278C3
:10373000D2B2D2B204210A43D2B2D2B2DA70134B5F
:10374000124AD278D2B220210A43D2B2DA700F4B99
:103750000E4A9279D2B20F210A43D2B29A710E4B1D
:10376000FA681A60FB68181CBD4604B080BDC046EC
:10377000540F0020740F002000700440341000002B
:1037800000900440FFF8FFFE00E100E000A00640CA
:1037900004100000FFFFFFF3BC0E002080B586B0D0
:1037A00000AFF860B960BB1D1A80FB687B61BB1D70
:1037B0001B88002B01D1842333E07B691B8A002BFB
:1037C00001D008232DE03B1C1333EFF3108072B6B9
:1037D0001870164B1B78DBB20133DBB2134A191C8D
:1037E0001170012B04D13B1C13331A78104B1A7043
:1037F0007B69BA68DA607B69BA1D12881A827B69B4
:1038000000221A81094B1B78DBB2013BDBB2074A6D
:10381000191C1170002B03D1054B187880F3108808
:103820000023181CBD4606B080BDC046240F0020F2
:103830004C10002080B586B000AFF860B960BB1DA9
:103840001A80FB687B61BB1D1B88002B01D1842380
:1038500048E07B691B8B002B01D0082342E03B1C16
:103860001333EFF3108072B61870204B1B78DBB265
:103870000133DBB21D4A191C1170012B04D13B1C12
:1038800013331A781A4B1A707B69BA685A617B69CC
:10389000BA1D12881A837B6900225A827B691B88B1
:1038A000012213439AB27B691A80124B114AD278D3
:1038B000D2B2802149420A43D2B2DA700D4B0D4A8E
:1038C0009279D2B29A71094B1B78DBB2013BDBB221
:1038D000064A191C1170002B03D1054B187880F390
:1038E00010880023181CBD4606B080BD240F0020A0
:1038F0004C10002000A0064090B583B000AF786067
:10390000124BDB79DBB21C1C7B681B8A002B1AD0A4
:103910007B68DB68E2B21A705A1C7B68DA607B68ED
:103920001B8901339AB27B681A817B681A897B688C
:103930001B8A9A4207D17B6800221A827B68DB6966
:10394000181C00F027FABD4603B090BD00A0064049
:1039500080B582B000AF78607B685A8A7B681B8B29
:103960009A421CD2194A7B685B691978D1715A1C3A
:103970007B685A617B685B8A01339AB27B685A82A2
:103980007B685A8A7B681B8B9A421CD17B68002219
:103990001A837B68DB69181C00F03CFA13E00B4BC0
:1039A0000A4AD278D1B27F220A40D2B2DA70074BEB
:1039B000064A9279D2B29A717B681B88012293439E
:1039C0009AB27B681A80BD4602B080BD00A0064056
:1039D000F0B5474680B482B000AF344B1B687B60C3
:1039E000334B1B79DBB21C1C002500260F23234020
:1039F00043D02F4B0F221A712D4BDB79DBB2984647
:103A00000223234012D0202323400CD04346002B16
:103A100009D1731CDEB27B681B88022213439AB261
:103A20007B681A8002E004232B439DB208232340C5
:103A300002D001232B439DB20123234002D0022355
:103A40002B439DB20423234002D008232B439DB275
:103A50007B685A682B1C1A437B685A6020239C435E
:103A6000002E05D07B68DB69181C00F05FFA04E0CB
:103A70007B68DB69181C00F011FA2023234003D077
:103A80007B68181CFFF738FF7B681B881A1C012312
:103A9000134006D08023234003D07B68181CFFF717
:103AA00057FFBD4602B004BC9046F0BD740F002025
:103AB00000A0064080B584B000AF786039607B68B4
:103AC000FB603B1C0B33EFF3108072B61870144B85
:103AD0001B78DBB20133DBB2114A191C1170012BC8
:103AE00004D13B1C0B331A780E4B1A70FB685A68D2
:103AF0003B681A60FB6800225A60094B1B78DBB2F6
:103B0000013BDBB2064A191C1170002B03D1054B97
:103B1000187880F310880023181CBD4604B080BDBF
:103B2000240F00204C10002080B500AF044B1A6811
:103B3000044B101C191C0122FFF730FEBD4680BD4E
:103B400050100020C00F002080B584B000AF786016
:103B50003B1C0F3300221A702D4B1B88002B4ED0BC
:103B60003B1C0E33EFF3108072B61870294B1B7894
:103B7000DBB20133DBB2274A191C1170012B04D1CF
:103B80003B1C0E331A78244B1A70214B1B88013BC7
:103B90009AB21F4B1A80214B1B881A1C2049895C42
:103BA0007A68117001339AB21C4B1A801B4B1B8828
:103BB0003F2B02D9194B00221A801A4B1B881A1C62
:103BC000194B134001D0192300E000233A1C0F3297
:103BD0001370144B1A88154B13409AB2114B1A806C
:103BE0000C4B1B78DBB2013BDBB20A4A191C11708B
:103BF000002B06D1084B187880F3108801E00A23C7
:103C000002E03B1C0F331B78181CBD4604B080BD7E
:103C10007A0F0020240F00204C1000207C0F002081
:103C2000800F0020780F002041080000B6F7FFFF4A
:103C300080B584B000AF021CFB1D1A702F4B1B888F
:103C4000402B01D10B2354E03B1C0F33EFF31080CA
:103C500072B618702A4B1B78DBB20133DBB2284AEC
:103C6000191C1170012B04D13B1C0F331A78254B02
:103C70001A70224B1B8801339AB2204B1A80224BB8
:103C80001B881A1C2149F81D0078885401339AB208
:103C90001D4B1A801C4B1B883F2B02D91A4B00224C
:103CA0001A801B4B1B881A1C2023134012D1184B5F
:103CB0001B88202213439AB2154B1A80154B1A68A1
:103CC000154B1B88191C114BCB18101C191C0122F9
:103CD000FFF7B0FD0A4B1B78DBB2013BDBB2084AB1
:103CE000191C1170002B03D1064B187880F3108833
:103CF0000023181CBD4604B080BDC046C20F002082
:103D0000240F00204C100020C60F0020C80F0020F8
:103D1000780F002050100020C40F002080B500AFA5
:103D2000024B1B88181CBD4680BDC0467A0F002080
:103D300080B500AF0F4B00221A800F4B00221A8073
:103D40000E4B00221A800E4B00221A800D4B0022CF
:103D50001A800D4B00221A800C4B00221A80002082
:103D6000FFF73EFC021C0A4B1A60FFF7DDFEBD4662
:103D700080BDC046780F00207A0F00207C0F002005
:103D80007E0F0020C20F0020C40F0020C60F0020AD
:103D90005010002080B582B000AF7860174B1B88B0
:103DA0003F2B18D8154B1B8801339AB2134B1A803E
:103DB000134B1B881A1C1349087813498854013384
:103DC0009AB20F4B1A800E4B1B883F2B0AD90C4B13
:103DD00000221A8006E00D4B1B88402213439AB242
:103DE0000A4B1A800A4B1A68064B101C191C012238
:103DF000FFF7D4FCBD4602B080BDC0467A0F00205C
:103E00007E0F0020C00F0020800F0020780F0020C0
:103E10005010002080B582B000AF78601A4B1B882C
:103E200001339AB2184B1A80174B1B883F2B02D9CB
:103E3000154B00221A80154B1B88013B9AB2134B7D
:103E40001A80124B1B88002B13D0114B1B88202289
:103E500013439AB20E4B1A800E4B1A680A4B1B88FA
:103E6000191C0D4BCB18101C191C0122FFF7E2FC8A
:103E700006E0074B1A88DF2313409AB2044B1A80DE
:103E8000BD4602B080BDC046C40F0020C20F002056
:103E9000780F002050100020C80F002080B584B09B
:103EA00000AF78601F4B1A683B1C0C33101C191CA8
:103EB000FFF700FEFB68002B31D0FA6802231340A5
:103EC00001D0042300E00023174A128813439AB25A
:103ED000154B1A80FA680823134001D0802300E0B4
:103EE0000023114A128813439AB20F4B1A80FB68C1
:103EF0009AB2012313409AB20B4B1B8813439AB218
:103F0000094B1A80FA680423134001D0022300E011
:103F10000023054A128813439AB2034B1A80BD4608
:103F200004B080BD50100020780F002080B582B012
:103F300000AF7860044B1B88022213439AB2024BF5
:103F40001A80BD4602B080BD780F002080B500AF5A
:103F5000054A064BD31A054A101C00211A1C01F011
:103F600075FBBD4680BDC0469C10002030F0FF1F91
:103F700002F0AEFAFEF7D2FDFFF7E8FF02F0DCFA3E
:103F800002F05AFA02F0B2FA044B0020191C00F0B9
:103F90000DF8031C181C01F009FAC0460810002097
:103FA00080B582B000AF7860FEE7C04680B500AF54
:103FB000FEF73CFE01F0D8F9FCE7C04680B584B0BE
:103FC00000AF021CFB1D1A70FB1D1A78131C5B004E
:103FD0009B185B000A4A9B18FB60FB68181C642155
:103FE000FCF72AFA031C1A1C131C1B019B1AFA6803
:103FF000D31AFB60FB689BB2181CBD4604B080BDA1
:10400000F10C000080B500AF0D4B00221A720C4B72
:104010000022DA600020FDF767FF021C084B1A60DF
:10402000074B181CFDF7B0FF021C054B5A60044BF0
:1040300000221A82024B00225A82BD4680BDC04631
:104040005410002080B584B000AF78607B68FB60BE
:10405000FB6803221A72BD4604B080BD80B584B0EF
:1040600000AF78607B68FB60FB681B7ADBB2012BDA
:1040700008D1FB685B68181CFDF7EEFFFB680222A5
:104080001A7210E0FB681B7ADBB2022B0BD1FB68C3
:104090005A68FB680C33101C00211A1CFDF7EAFF5C
:1040A000FB6804221A72BD4604B080BD90B583B08F
:1040B00000AF0A1CBB1D011C19807B1D1A70BB1DA3
:1040C0001B886422141C5C437B1D1B78181CFFF7A3
:1040D00075FF031C201C191CFCF7AEF9031C5B08C0
:1040E0009BB2181CBD4603B090BDC04680B500AF62
:1040F000184B1B68181CFDF739FFC820FDF7AEFCF4
:10410000144B01221A72134B1B68181CFDF720FF79
:1041100009E0104B1B7ADBB2032B04D10D4B0022BC
:104120001A721B2313E00B4B1B7ADBB2042BF0D16A
:10413000084BDB68FA2292005343181C0649FCF72F
:104140007BF9031C9AB2034B5A82024B5B8A181C00
:10415000BD4680BD541000203D0A000080B590B0DF
:1041600002AF78603B1C373300221A707A68444BE8
:10417000101C191C01F0C9FA031C002B5CD1FEF7BE
:10418000ABFE031C5B683F4A101C191CFEF7FCFDCC
:10419000FEF7A2FE031C5B683B4A101C191CFEF7CD
:1041A000F3FD3A4B1B8A3A1C20320A210091101C65
:1041B00014211A1C2023FDF7BFFDFEF78DFE031C02
:1041C0005B683A1C2032101C191CFEF7DDFDFEF75F
:1041D00083FE031C5B682E4A101C191CFEF7D4FDDD
:1041E000FEF77AFE031C5B682A4A101C191CFEF7B6
:1041F000CBFD264B5B8A3A1C0C320A210091101C25
:1042000014211A1C2023FDF797FDFEF765FE031C01
:104210005B683A1C0C32101C191CFEF7B5FDFEF74A
:104220005BFE031C5B681C4A101C191CFEF7ACFDEE
:104230003B1C37331B781EE07A68184B101C191C86
:1042400001F063FA031C002B0ED1FFF74FFF031C94
:10425000181C1321FFF72AFF031C1A1C0B4B1A8290
:104260003B1C37331B7806E03B1C37331B221A708C
:104270003B1C37331B78181CBD460EB080BDC046B2
:1042800074650000806500009465000054100020F3
:10429000A0650000A8650000B4650000BC650000D2
:1042A00080B500AF3F4BDB6A181CFEF709F83E4BA8
:1042B00001221A703B4BDB6B181CFFF707F93A4BD6
:1042C00000229A72374B9B6B181CFEF7B5FE364BDB
:1042D00000225A80344BC82252009A80324BC822A6
:1042E0005200DA80304B0022DA602F4B00221A7421
:1042F0002E4B00221A702E4B00221A702D4B0022DA
:104300001A702D4B00221A702C4B00221A602C4B75
:1043100000221A602B4B00221A602B4B00221A60DD
:10432000204B9B6A181CFEF7E7F8284B01221A70F5
:104330001C4B5B6A181CFEF71FFF244B00229A726D
:10434000184B1B6A181CFEF775FF204B00225A8081
:104350001E4BC82252009A801C4BC8225200DA80A1
:104360001A4B0022DA60194B00221A74184B0022F3
:104370001A70184B00221A70174B00221A70174B34
:1043800000221A70164B00221A60164B00221A6087
:10439000154B00221A60154B00221A600023181CCE
:1043A000BD4680BDBC0E00206810002021100020FA
:1043B00020100020221000202310002028100020B0
:1043C000241000202C100020301000207C10002031
:1043D0000D1000200C1000200E1000200F100020E7
:1043E0001410002010100020181000201C100020B5
:1043F00080B500AF0D4B01221A700D4B1B7C032BB7
:1044000006D00B4B1B7C002B02D0094B03221A74E5
:10441000FEF762FD031C5B68064A101C191CFEF7C0
:10442000B3FC0023181CBD4680BDC04622100020EE
:1044300068100020C865000080B584B000AF021C81
:10444000BB1D1A80474B484A9A80464B28225A8007
:10445000464B00221A60464B00221A60454B002250
:104460001A60BB1D00215B5E002B10DABB1D002112
:104470005A5E131C1B079B1A1B01FB60394B002261
:104480001A703D4BDB6B181CFFF72CF80CE0BB1DC2
:1044900000229B5E1B01FB60324B01221A70364BDF
:1044A000DB6B181CFFF712F8FA68C8235B019A420D
:1044B00007D8304B00221A60FB685A082C4B1A6050
:1044C00011E0284B9B88913BFF3B002B00DA013326
:1044D0005B101A1C264B1A60254B1B685B00FA68A0
:1044E000D21A244B1A601F4B1B78002B10D1FB688B
:1044F0001A091C4BDB689A420AD9FEF7EDFC031C33
:104500005B681E4A101C191CFEF73EFC1B2324E0AE
:104510001B4B00221A701B4B00221A70114B0122F8
:104520001A74104B01229A72134B9B6B181CFEF7E6
:1045300077FD0C4BDB88181CFEF7B6FA0E4BDB6AD6
:10454000181CFDF7A5FEFEF7C7FC031C5B680E4AAE
:10455000101C191CFEF718FC0023181CBD4604B0E3
:1045600080BDC04668100020C92700003010002020
:104570002410002028100020BC0E0020D065000070
:104580002110002023100020C865000080B500AF76
:10459000574B1B7C042B00D983E09A00554BD31852
:1045A0001B689F46524BDA88514B9B889A420AD22D
:1045B0004F4BDB8802339AB24D4BDA804C4BDB8891
:1045C000181CFEF771FA4C4B1A684C4B1B689A4248
:1045D0005ED3474B02221A745AE0494B1A68474B84
:1045E0001B68D218444B1B689A4253D8404B032295
:1045F0001A744FE03E4BDA88C8235B009A420AD90E
:104600003B4BDB88023B9AB2394BDA80384BDB8874
:10461000181CFEF749FA394B1B685A00384B1B68C7
:10462000D218354B1B689A4209D9314BDA88C82316
:104630005B009A4230D8334B1B78002B2CD02C4B8C
:1046400000221A74304B01221A7025E02D4B1B7882
:10465000002B23D0264B03221A741FE02A4B1B7811
:10466000002B1DD0284B00221A70284B01221A70F3
:10467000244B00221A70264BDB6A181CFDF720FE23
:104680001B4BC8225200DA80194B00225A8007E0E7
:10469000C04606E0C04604E0C04602E0C04600E076
:1046A000C046134B1B7C002B04D0134B1B685A1CB9
:1046B000114B1A600E4B1B7C002B09D00C4B1B7846
:1046C000002B05D00A4BDB685A1C094BDA600CE062
:1046D000074B1B7C002B08D0054B1B78002B04D10B
:1046E000034BDB685A1E024BDA60BD4680BDC046F4
:1046F00068100020646900003010002024100020A1
:10470000281000202210002021100020231000205B
:10471000BC0E002080B584B000AF021CBB1D1A8007
:10472000474B484A9A80464B0A225A80464B002201
:104730001A60464B00221A60454B00221A60BB1DCE
:1047400000215B5E002B10DA3D4B00221A70414BBA
:104750005B6A181CFEF71EFDBB1D00215A5E131C70
:104760005B079B1ADB00FB600CE0354B01221A70E3
:10477000384B5B6A181CFEF7FFFCBB1D00229B5EDA
:10478000DB00FB60FA68C8231B019A4207D8304B54
:1047900000221A60FB685A082C4B1A6011E0284B63
:1047A0009B88913BFF3B002B00DA01335B101A1C06
:1047B000264B1A60254B1B685B00FA68D21A244B03
:1047C0001A601F4B1B78002B10D1FB68DA081C4BBA
:1047D000DB689A420AD9FEF77FFB031C5B681E4A1E
:1047E000101C191CFEF7D0FA1B2324E01B4B0022DF
:1047F0001A701B4B00221A70114B01221A74104BB5
:1048000001229A72134B1B6A181CFEF705FD0C4B14
:10481000DB88181CFDF7FAFE0E4B9B6A181CFDF78F
:1048200053FEFEF759FB031C5B680E4A101C191C53
:10483000FEF7AAFA0023181CBD4604B080BDC0468E
:104840007C100020E41300001C1000201010002039
:1048500014100020BC0E0020D06500000D100020B8
:104860000F100020C865000080B500AF0D4B01227D
:104870001A700D4B1B7C032B06D00B4B1B7C002BA3
:1048800002D0094B03221A74FEF726FB031C5B6857
:10489000064A101C191CFEF777FA0023181CBD46A7
:1048A00080BDC0460E1000207C100020C8650000AE
:1048B00080B500AF5C4B1B7C042B00D9B2E09A00A2
:1048C0005A4BD3181B689F46574BDA88564B9B8828
:1048D0009A420AD2544BDB8802339AB2524BDA80A6
:1048E000514BDB88181CFDF791FE514B1A68514B58
:1048F0001B689A4200D08CE04B4B02221A7488E06D
:104900004D4B1A684B4B1B68D218494B1B689A4297
:1049100000D980E0444B03221A747CE0424BDA88D1
:10492000C8235B009A420AD93F4BDB88023B9AB20C
:104930003D4BDA803C4BDB88181CFDF767FE3D4B96
:104940001B685A003C4B1B68D218394B1B689A42B3
:1049500009D9354BDA88C8235B009A425DD8374BBA
:104960001B78002B59D0304B00221A74344B012293
:104970001A7052E0314B1B78002B50D02A4B032287
:104980001A744CE02E4B1B78002B4AD02C4B002283
:104990001A702C4B01221A70284B00221A702A4BD5
:1049A0009B6A181CFDF7A8FD1F4B00229A72264B2C
:1049B0001B6A181CFEF73EFC1B4BC8225200DA8013
:1049C000194B00225A80184B1B7C002B04D0184B2B
:1049D0001B685A1C164B1A60134B1B7C002B0AD009
:1049E000114B1B78002B06D00F4BDB685A1C0E4B6B
:1049F000DA60C04615E00C4B1B7C002B11D00A4B33
:104A00001B78002B0DD1084BDB685A1E064BDA6071
:104A100007E0C04606E0C04604E0C04602E0C046EB
:104A200000E0C046BD4680BD7C10002078690000D3
:104A30001C10002010100020141000200E10002068
:104A40000D1000200F100020BC0E002080B590B08B
:104A500002AF78603B1C373300221A707A68884BAB
:104A6000101C191C00F051FE031C002B3ED1FEF758
:104A700033FA031C5B68834A101C191CFEF784F987
:104A8000814BDB683A1C203200210091101C14215C
:104A90001A1C2023FDF772F9FEF71EFA031C5B684F
:104AA0003A1C2032101C191CFEF76EF9FEF714FA9E
:104AB000031C5B68754A101C191CFEF765F9724BE4
:104AC0005B883A1C0C3200210091101C14211A1C26
:104AD0002023FDF731F9FEF7FFF9031C5B683A1C50
:104AE0000C32101C191CFEF74FF93AE07A68684B3B
:104AF000101C191C052200F0AFFD031C002B11D166
:104B00007B680633181C00F0A5FC021C3B1C3433E8
:104B10001A803B1C34331B881BB2181CFFF78CFC1B
:104B2000031CA9E07A685B4B101C191C00F0EDFD1A
:104B3000031C002B15D07A68574B101C191C00F071
:104B4000E4FD031C002B0CD07A68544B101C191C7C
:104B500000F0DBFD031C002B03D1FFF749FC031C15
:104B60008AE07A684E4B101C191C00F0CEFD031C25
:104B7000002B3FD1FEF7B0F9031C5B68494A101CBB
:104B8000191CFEF701F9484BDB689BB23A1C203236
:104B900000210091101C14211A1C2023FDF7CCF8D1
:104BA000FEF79AF9031C5B683A1C2032101C191C92
:104BB000FEF7EAF8FEF790F9031C5B68334A101C15
:104BC000191CFEF7E1F8384B5B883A1C0C320021C7
:104BD0000091101C14211A1C2023FDF7ADF8FEF7DC
:104BE0007BF9031C5B683A1C0C32101C191CFEF785
:104BF000CBF83AE07A682D4B101C191C052200F006
:104C00002BFD031C002B11D17B680633181C00F010
:104C100021FC021C3B1C34331A803B1C34331B88A0
:104C20001BB2181CFFF776FD031C25E07A68204BA9
:104C3000101C191C00F069FD031C002B15D07A68AC
:104C40001C4B101C191C00F060FD031C002B0CD029
:104C50007A68194B101C191C00F057FD031C002B1F
:104C600003D1FFF701FE031C06E03B1C37331B2278
:104C70001A703B1C37331B78181CBD460EB080BD24
:104C8000D8650000E465000068100020E8650000B9
:104C9000EC650000F4650000006600000C66000092
:104CA00018660000246600007C10002028660000C2
:104CB000306600003C6600004866000090B583B096
:104CC00000AFFEF709F9031C5B680E4A101C191CA3
:104CD000FEF75AF800237B600EE00B4B7A689200D7
:104CE000D458FEF7F9F8031C5B68201C191CFEF76A
:104CF0004BF87B6801337B607B68092BEDD9BD469F
:104D000003B090BD3C67000008F0FF1F90B585B070
:104D100000AF78603B1C0F3300221A707A683E4B5C
:104D2000101C191C00F0F1FC031C002B05D1FFF72F
:104D3000C5FF3B1C0F331B7869E07A68374B101CAA
:104D4000191C032200F088FC031C002B08D13C1C1A
:104D50000F347B68181C00F06BF9031C237053E0C0
:104D60007A682F4B101C191C022200F075FC031CE2
:104D7000002B08D13C1C0F347B68181CFFF7EEF9A0
:104D8000031C237040E07A68264B101C191C032278
:104D900000F062FC031C002B08D13C1C0F347B6824
:104DA000181C00F041FA031C23702DE07A681E4B9A
:104DB000101C191C032200F04FFC031C002B09D00F
:104DC0007A681A4B101C191C032200F045FC031CC6
:104DD000002B08D13C1C0F347B68181CFFF736FEF3
:104DE000031C237010E0FEF777F8031C5B68104A81
:104DF000101C191CFDF7C8FF3B1C0F331B221A7037
:104E00003B1C0F331B7802E03B1C0F331B78181C34
:104E1000BD4605B090BDC0466067000068670000F1
:104E20006C6700007067000074670000786700001E
:104E30007C67000080B586B000AFF860B9607A602A
:104E40003B1C173300221A707B68002B01D11B23F7
:104E500071E0FB68181C00F066FC031C3B61FA68FB
:104E60003B69D118BA683B69D21AF8687B68FDF7CC
:104E7000B7FF031C002B5BD0FB68181C00F053FC31
:104E8000031C3B613B69002B01D11B2353E03B69B1
:104E9000012B0AD1FB681B780A2B03D0FB681B7817
:104EA0000D2B02D1FB6800221A70BB685A1E3B69A9
:104EB0009A4210D8FEF710F8031C5B68204A101CB9
:104EC000191CFDF761FFFB6800221A703B1C1733A9
:104ED00004221A702CE03B69013BFA68D3181B7856
:104EE0000A2B06D03B69013BFA68D3181B780D2BBF
:104EF0001ED13B69013BFA68D31800221A70FB6887
:104F0000181CFFF703FFFDF7E7FF031C5B680D4A62
:104F1000101C191CFDF738FFFDF7DEFF031C5B6852
:104F2000094A101C191CFDF72FFFFB6800221A709C
:104F30003B1C17331B78181CBD4606B080BDC0460D
:104F40008C670000986700009C67000090B591B0E6
:104F500000AF78603B1C0C3300221A70FFF7AEFEE6
:104F6000FDF7BAFF031C5B680B4A101C191CFDF708
:104F70000BFFFDF7B1FF031C3C1C3F343A1C0C3205
:104F8000101C30211A1CFFF755FF031C237005204D
:104F9000FCF77AF8EDE7C0469C67000080B582B068
:104FA00002AF094A094B0121009100210191101C17
:104FB000191C64220023FBF73BFF031C012B00D0CC
:104FC000FEE7BD4680BDC0464D4F0000A46700000F
:104FD00080B584B000AF78603B1C0F3300221A709C
:104FE000FFF710F8044B9B68181CFEF7FDF905202D
:104FF000FCF74AF8F6E7C046BC0E002080B582B048
:1050000002AF094A094B0221009100210191101CB5
:10501000191C64220023FBF70BFF031C012B00D09B
:10502000FEE7BD4680BDC046D14F0000AC67000022
:1050300080B584B000AF78603B1C0F3300221A703B
:105040007A686C4B101C191C00F05FFB031C002BD2
:1050500027D1FDF741FF031C5B68674A101C191C30
:10506000FDF792FE654B5B68181CFEF77BFA031C8C
:10507000002B09D1FDF730FF031C5B68604A101C50
:10508000191CFDF781FE08E0FDF726FF031C5B6895
:105090005C4A101C191CFDF777FE3B1C0F331B7874
:1050A000A3E07A68584B101C191C00F02EFB031C5F
:1050B000002B08D1514B5B68181CFEF767FA3B1CAC
:1050C0000F331B7891E07A68504B101C191C00F0CC
:1050D0001CFB031C002B08D1484B5B68181CFEF717
:1050E00063FA3B1C0F331B787FE07A68484B101C37
:1050F000191C00F00AFB031C002B08D13F4B5B6816
:10510000181CFEF75FFA3B1C0F331B786DE07A68C2
:10511000404B101C191C00F0F8FA031C002B27D17F
:10512000FDF7DAFE031C5B683B4A101C191CFDF7F7
:105130002BFE324B9B68181CFEF726F9031C002B34
:1051400009D1FDF7C9FE031C5B682D4A101C191C10
:10515000FDF71AFE08E0FDF7BFFE031C5B68294A55
:10516000101C191CFDF710FE3B1C0F331B783CE094
:105170007A682A4B101C191C00F0C7FA031C002B7C
:1051800008D11E4B9B68181CFEF712F93B1C0F330D
:105190001B782AE07A68224B101C191C00F0B5FA23
:1051A000031C002B08D1154B9B68181CFEF70EF949
:1051B0003B1C0F331B7818E07A681A4B101C191C23
:1051C00000F0A3FA031C002B08D10C4B9B68181CA1
:1051D000FEF70AF93B1C0F331B7806E03B1C0F332C
:1051E0001B221A703B1C0F331B78181CBD4604B0E1
:1051F00080BDC046B8670000D0670000BC0E00202C
:10520000E8670000F0670000F86700000C68000025
:105210002068000034680000506800006C680000DE
:10522000846800009C68000080B58AB002AF786096
:105230003B1C1F3300221A707A68244B101C191C67
:1052400000F063FA031C002B34D1FDF745FE031C6C
:105250005B681F4A101C191CFDF796FDFDF73CFE0C
:10526000031C5B681B4A101C191CFDF78DFD1A4BB3
:105270005B883A1C08320A210091101C14211A1C68
:105280002023FCF759FDFDF727FE031C5B683A1C41
:105290000832101C191CFDF777FDFDF71DFE031CDD
:1052A0005B680E4A101C191CFDF76EFD3B1C1F337A
:1052B0001B7806E03B1C1F331B221A703B1C1F335C
:1052C0001B78181CBD4608B080BDC046B4680000FD
:1052D000C4680000D868000090100020E468000056
:1052E00080B500AFBD4680BD80B582B000AF7860AC
:1052F000396072B6FEE7C04680B500AFBD4680BDDE
:1053000080B500AFBD4680BD80B500AF72B6FEE788
:1053100080B582B000AF78607B68181CFEF792FE03
:10532000BD4602B080BDC04680B582B000AF786097
:105330007B68181CFEF792FEBD4602B080BDC046D9
:1053400080B500AFFFF722F9BD4680BD80B500AF44
:10535000FFF7AEFABD4680BD80B582B000AF786081
:105360006420FBF791FEFBE780B582B002AFFFF748
:1053700015FEFFF743FEFEF793FF0A4A0A4B002192
:10538000009100210191101C191C64220023FBF7DD
:105390004FFD031C012B00D0FEE7FBF799FEBD4635
:1053A00080BDC046595300000469000038B5051C93
:1053B00001F080F801F064F8084C2368002B02D05B
:1053C000984700202060064C2168002902D08847B9
:1053D00000222260281CFEF7E3FD38BD34100020B7
:1053E0003810002030B500238BB00C1C051C06A91A
:1053F0000890099305A807AB009001910293101C37
:105400001149124A08AB00F02BF8002C02D0059A83
:10541000AD1825600799069C002904D1002C0CD1F9
:1054200000280FDA04E0002C02D08020000600E003
:105430000548074C2225256004E080231A06904287
:1054400000D040420BB030BDFFFFFF7FE3630000A0
:105450009810002008B500210A22FFF7C3FF08BDFD
:10546000F0B587B0059101930D990E9B0092002233
:105470000A60071C1A60904216DB012814D0242809
:1054800012DC0598904207DD009C0198111CA04792
:105490000126041C351C02E0141C161C40250022A9
:1054A0000392974209D002E0141C161C40250121EA
:1054B0004842391CFAF7C0FF03900023029304937B
:1054C0000598864200DD9EE0621C00D19BE06022D0
:1054D000154200D097E0681E0F28F1D8FAF798FF20
:1054E000082EF03FF0F0F052F0F0F0F0F0F0F05253
:1054F000201C00F05FFF021E09D00021009C0198D3
:105500000A1CA047041C049801300490D8E72B2CF7
:1055100007D1009D0198111CA8470136041C0225E3
:10552000CEE702252D2CCBD1111C0198009B98476A
:105530000D9901220136041C0A60C1E7002F02D038
:105540000825102FBCD10825302CB9D10021009C92
:1055500001980A1CA0470136041C0425B0E7582C0A
:1055600001D0782C09D1002101980A1C009B984792
:105570000136041C08251027A2E71025002F9FD113
:1055800008279DE7002F00D10A270398002805D19E
:1055900001225042391CFAF74FFF0390201C30388B
:1055A000092802D8B84211DB0BE0201C00F0F2FE03
:1055B000002806D0201C00F00DFF011C3639B9422E
:1055C00003DD102D1DD120257AE73738029D039C7D
:1055D0000123A54201D80E9B1B68029AC5B27A43EB
:1055E000D1438D4200D901230E9C801800212360F5
:1055F0000290009D01980A1CA8470136041C102542
:105600005EE740255CE734273D4003D10C9B0295C3
:105610001D6004E0049D013E0C9976190E60211C6A
:1056200001980122009CA047029807B0F0BD00B588
:10563000C9B20378421C002B03D08B4205D0101C4A
:10564000F7E74B4259414942084000BD10B5041CE0
:1056500000F013F8201C10BD30B5002393420AD08F
:10566000C45CCD5CAC4201D0601B05E00133002C72
:10567000F4D1201C00E0002030BD30B5C9B2031CBD
:105680001F2A31D944420323234005D0D21AC5181A
:1056900001700130A842FBD1002905D00D060C0491
:1056A0002C430B02214319435409031C002C0ED038
:1056B000251C013D196059609960D96019615961D3
:1056C0009961D9612033002DF3D16301C318D0064D
:1056D000400F07D0041C1D1C013C02C5002CFBD14F
:1056E00080001B18032422409D18002A03D0197043
:1056F0000133AB42FBD130BD10B50023934203D040
:10570000CC5CC4540133F9E710BD00B503780A78C6
:10571000934204D1002B04D001300131F6E7981AEE
:1057200000E0181C00BD00B5431E01331A78002AA2
:10573000FBD1181A00BD0000F0B589B001901F1C04
:105740000EAB0391079202901A78081C01990FACD6
:1057500001380026049225780670B14217D1119BBA
:10576000B34214D1049B002B01D06F2D2FD0642D98
:1057700002D0692D00D0A8E0022F02D10398023890
:105780009FE0012F00D0A0E00398023894E0692D3B
:105790000ED004D8582D16D0642D1CD108E0752DDC
:1057A00004D0782D0FD06F2D15D110E0002712E016
:1057B000019A002A0FDA80242606B2420DD0514207
:1057C0000191029109E000273E1C102407E0002708
:1057D0003E1C082403E0002600E001260A24009075
:1057E000002006900298211CFAF76AFE02980591A3
:1057F000211CFAF721FE059A0290092A01D83032BD
:1058000005E0059A3732782D01D1059A5732009874
:10581000069B02990138D2B2009002700133002930
:1058200001D00693DEE7011C082C0BD10498002858
:1058300008D0302A06D00B1C013B302200931A708E
:10584000069B0233079802280FD1002E01D1002FAA
:1058500002D0109901391091109A1192102C04D194
:105860000498002801D0023A119203990098119AE5
:10587000091A8918164A914226DC0099CA1811990A
:10588000121A8A4203DA013830220270F5E7102C2E
:105890000AD1049C002C07D0019B002B04D0421E8F
:1058A0003021023815700170002E02D001382D21F0
:1058B00008E0012F02D101382B2103E0022F04D18F
:1058C00001382021017000E0002009B0F0BDC04681
:1058D000FD010000F0B5B64C1E1CA5446B460A90B5
:1058E0000B913E3320210020197008920590089AF0
:1058F0001578002D00D1F9E108982521FFF797FED2
:105900000C90002811D10898FFF70DFF0599021C93
:1059100008180590002A00D1E8E10B9808990A9E22
:10592000B047002800D0E1E1CEE00C9F089C05992B
:105930003A1B8B180593002A0CD10C980C9A4378CB
:1059400001321D1E252D0CD000270121BC460D97CC
:10595000069119E00B9808990A9DA8470028ECD1F8
:10596000B2E00C9A002102320124089207910694B9
:105970003DE02B2B0BDC202B10D0232B00D0BAE0EA
:1059800001239C46013213782B2BF2D1ABE12D2B56
:1059900000D1A5E1302B00D0ADE004E00D9D012D3C
:1059A000F0D00220A0E1069C002CEBD00220069053
:1059B000E8E737680436FB43D80F937802321C1CA3
:1059C000683C0021042C00D8C1E0DDB26E2B00D071
:1059D000C7E0013208926E2D00D149E100D900E103
:1059E000632D00D159E107D8252D00D0F3E010AC8C
:1059F00025700996012619E0642D00D0EEE0321DD5
:105A000009923068032900D0F6E0079966460096AF
:105A100001950291039790A9069A0D9BFFF78CFEC2
:105A2000041E00D13FE1634F6F443E1A06980028E0
:105A30003CD02023022800D130236F463E373B70F4
:105A400022782B2A04D02D2A02D0371C202A0BD1F1
:105A5000371C302B08D10B98211C01220A9B984738
:105A6000002831D00134771E069902290ED1612D0C
:105A700001D0412D0AD1012F26DD0B98211C0222D5
:105A80000A9DA84700281FD0023F0234351C079EFC
:105A9000B54209DA69460B983E3101220A9B9847C4
:105AA000002811D00135F2E73E1C00E0351C002E25
:105AB00003D10698002819D115E0211C0B98321C3F
:105AC0000A9CA0470028F4D10122554205950DE11A
:105AD00069463F3120240B9801220A9F0C70B84779
:105AE0000028F1D00135079FBD42F1DB059A53191B
:105AF0000593099EFBE6171C2A2B00D0E1E0341D1C
:105B000036680796002E03DA734200250793069540
:105B10007B780132261C284F0798B84200DDC2E08E
:105B20002E2B11D153782A2B00D142E701320027C6
:105B30001C1C303C092C05D80A214F4301323F1967
:105B40001378F5E701203AE70027381C37E71B4DAB
:105B5000295D1B4D2C57002C00D136E753780132BC
:105B600033E76E2B0ADC632B2CD002DC582B30D1B0
:105B700015E0642B13D0692B2BD110E0732B23D0AD
:105B800009DC6F2B0BD0702B23D10123782508273C
:105B900003219C461DE7752B01D0782B19D10028D5
:105BA00015D0069C022C00D013E70123069310E7C2
:105BB000BCFDFFFF3F020000FD01000092690000F4
:105BC0008D690000002804D1002902D101E70127D6
:105BD000FFE6FF25FDE6582D65D116E0692D62D15F
:105BE0000DE7732D23D002D86F2D5CD10DE0752DFC
:105BF0000BD0782D57D108E0022901D100B204E77B
:105C0000012900D001E740B2FFE6341D0994306855
:105C1000032906D0022901D180B202E0012900D176
:105C2000C0B2079E6246009201950296F2E6346881
:105C3000311D0991002C00D12F4C6346002B07D059
:105C400026780134002800D1F0E6BE4237DCEDE6CC
:105C5000002808D0201C61463A1C00F0E0FB002818
:105C60002DD0061BE2E6201CFFF75DFD061CDDE6DD
:105C7000351D09953468022907D003290AD0002967
:105C800000D036E70598206033E76F461421CB5BE0
:105C900023802EE7059A22602BE73368301D10AC75
:105CA00009902370A6E60C98FFF73DFD059E021CA7
:105CB00035180595002819D00B980C992FE63E1C35
:105CC000B4E600240794191C3039092900D922E7C9
:105CD000079D0A236B430132581807901378F2E7A7
:105CE000002706974EE601200D904BE6059891247B
:105CF000A400A544F0BDC0468C690000F0B50027A3
:105D0000A9B0059006910F9309920D970B970897EC
:105D10000A970C970497099D2C78002C00D103E377
:105D2000201C00F047FB002822D0099A013210788D
:105D3000099200F03FFB0028F7D1002F00D0F1E2DC
:105D4000002106980A1C059CA047061C00F032FBA7
:105D5000002803D0049B01330493F1E7701C04D1A5
:105D60002E98002800D1DFE201270698311CABE213
:105D7000252C1BD0002F19D1391C06983A1C059EE2
:105D8000B047C1B2A1420AD006980122B0472E9F67
:105D9000002F00D1C8E2099D01350995C2E2049B9C
:105DA00009990133013104930991B4E71EAC201C19
:105DB00000212822FFF74AFC0998A54E4578666025
:105DC000281E25280CD1211C14A82822E570FFF7D5
:105DD00093FC099C00200234099407900E90D7E0B0
:105DE0002A2D02D0099C013405E001230999237072
:105DF000099C88780234021C303A092A1FD80026F0
:105E00000A256E433038013436182078031C303BA5
:105E1000092BF5D91EAD6E60002E0ED1012359421B
