S012000046726565646F6D5F4C45442E68657884
S113000000300020F50700005905000061050000DC
S11300106105000061050000610500006105000044
S11300206105000061050000610500006105000034
S11300306105000061050000610500006105000024
S11300406105000061050000610500006105000014
S11300506105000061050000610500006105000004
S113006061050000610500006105000061050000F4
S113007061050000610500006105000061050000E4
S113008061050000610500006105000061050000D4
S113009061050000610500006105000061050000C4
S11300A061050000610500006105000061050000B4
S11300B061050000610500006105000061050000A4
S1130410002934D00123002210B488422CD30124B3
S11304202407A14204D2814202D209011B01F8E748
S1130430E400A14204D2814202D249005B00F8E701
S1130440884201D3401A1A434C08A04202D3001B2D
S11304505C0822438C08A04202D3001B9C08224360
S1130460CC08A04202D3001BDC082243002803D09E
S11304701B0901D00909E3E7101C10BC70470028D0
S113048001D00020C04307B4024802A140180290E2
S113049003BDC046190000000029F0D003B5FFF7E2
S11304A0B9FF0EBC4243891A1847C0467047C0467C
S11304B0C046C046C046704701B40020C046C0468E
S11304C0C046C04601300928F8D9C046C046C046D7
S11304D0C046C046C046C04601BC704738B5051E7C
S11304E01ED0FFF7E9FFD024013CA4B2013CA4B222
S11304F0FFF7E2FFFFF7E0FF002CF5D1013DADB2BD
S1130500FFF7D6FFFFF7D4FFFFF7D2FFFFF7D0FFC7
S1130510FFF7CEFFFFF7CCFFFFF7CAFF002DE0D1B6
S113052038BDC0467047C04608B5024B186800F095
S1130530F1F808BD00F0FF1F08B5024B586800F041
S11305401DF908BD00F0FF1F08B5024B986800F0C4
S113055045F908BD00F0FF1F08B500F083F908BD98
S1130560FFBE7047234B244A244910B5D150244C74
S113057088235A010020C021224BA0508802224A1D
S1130580E050A058B0214B010343A3501F4CA27864
S1130590110704D5A07808210143CBB2A370184BEE
S11305A0184C00221A491A515C581A4820405850D5
S11305B01C681948204018605C5818482040802462
S11305C0640420435850164906230B704A70CC78B3
S11305D01F200440134BCC7080241C700A714A7194
S11305E0102288790242FCD00D490C248B791C42DC
S11305F0FCD110BD080D000000E000E00000000088
S113060000700440441000003810000000D007407F
S113061004100000FFFFFEFFFFFFF3FFFFFFFFFCDE
S11306200040064000500640214A38B5214813696D
S1130630E0210340C9000B4313611F4B1F255C7964
S1130640AC435C711C790725AC431C711B4B7325AF
S11306501C78AC4350252C431C705C786325AC4358
S113066040252C435C709C781925AC439C70144B3A
S113067000241C70156D284001431165C120114AE6
S113068084001359104900201940115100F01EF83C
S1130690FFF74AFF002000F04DF8FFF74DFF002060
S11306A000F07CF8FFF750FFFFF73CFF62B638BD5F
S11306B000900440FFF8FFFE00F0074000D0074020
S11306C000E0074000E100E0FFFF00FF0B4B0C4A95
S11306D0802110605869C9020143596118680949A9
S11306E001401960084B0949986C01408020400082
S11306F001439964064B101C1A60704740F00F4088
S11307000CF0FF1FFFFFFBFF00A00440FFF8FFFEFB
S113071000F0FF1F8022024BD00258607047C04691
S113072040F00FF88022024BD002D8607047C046D8
S113073040F00FF80B4B0C4A8021106058690903F4
S1130740014359611868094901401960084B094976
S1130750D86C0140802040000143D964064B101C32
S11307605A60704740F00F4010F0FF1FFFFFF7FF83
S113077000A00440FFF8FFFE00F0FF1F8022024BA0
S1130780100358607047C04640F00FF88022024BB7
S11307901003D8607047C04640F00FF80A4B0B4A6C
S11307A0022110605869084358611868884318602A
S11307B0074B0849586801408020400001435960B4
S11307C0054B101C9A607047C0F00F4014F0FF1FD7
S11307D000C00440FFF8FFFE00F0FF1F014B02229F
S11307E05A607047C0F00FF8014B0222DA6070477C
S11307F0C0F00FF800F0ECFBFFF7B4FE0848094A1C
S11308000021121A00F04CF800F016FC00F094FBE2
S113081000F0ECFB0449002000F00AF800F024F892
S113082000F0FF1F34F0FF1F18F0FF1F00B5FEE7B4
S113083010B5FFF7F9FE0A4C6420FFF74FFE20685D
S1130840FFF770FFC820FFF749FE6068FFF79EFFBF
S1130850C8204000FFF742FEA068FFF7C5FFEBE7A2
S113086000F0FF1F7047C04638B5051C00F0A2FB1E
S113087000F086FB084C2368002B02D09847002028
S11308802060064C2168002902D08847002222609B
S1130890281CFFF7CBFF38BD1CF0FF1F20F0FF1F03
S11308A010B5041C00F002F8201C10BD30B5C9B20C
S11308B0031C1F2A31D944420323234005D0D21AF2
S11308C0C51801700130A842FBD1002905D00D06DE
S11308D00C042C430B02214319435409031C002C20
S11308E00ED0251C013D196059609960D9601961C9
S11308F059619961D9612033002DF3D16301C31883
S1130900D006400F07D0041C1D1C013C02C5002C5E
S1130910FBD180001B18032422409D18002A03D019
S113092019700133AB42FBD130BD0000F0B589B082
S113093001901F1C0EAB0391079202901A78081CB9
S113094001990FAC01380026049225780670B14253
S113095017D1119BB34214D1049B002B01D06F2DEE
S11309602FD0642D02D0692D00D0A8E0022F02D12F
S1130970039802389FE0012F00D0A0E003980238CA
S113098094E0692D0ED004D8582D16D0642D1CD1B6
S113099008E0752D04D0782D0FD06F2D15D110E0FF
S11309A0002712E0019A002A0FDA80242606B242B8
S11309B00DD051420191029109E000273E1C102400
S11309C007E000273E1C082403E0002600E001267F
S11309D00A240090002006900298211CFFF75CFD79
S11309E002980591211CFFF713FD059A0290092A2C
S11309F001D8303205E0059A3732782D01D1059AB5
S1130A0057320098069B02990138D2B200900270C6
S1130A100133002901D00693DEE7011C082C0BD119
S1130A200498002808D0302A06D00B1C013B302241
S1130A3000931A70069B0233079802280FD1002EE8
S1130A4001D1002F02D0109901391091109A1192FE
S1130A50102C04D10498002801D0023A1192039971
S1130A600098119A091A8918164A914226DC0099AD
S1130A70CA181199121A8A4203DA01383022027014
S1130A80F5E7102C0AD1049C002C07D0019B002B05
S1130A9004D0421E3021023815700170002E02D09D
S1130AA001382D2108E0012F02D101382B2103E068
S1130AB0022F04D101382021017000E0002009B088
S1130AC0F0BDC046FD010000F0B5B64C1E1CA544A7
S1130AD06B460A900B913E33202100201970089236
S1130AE00590089A1578002D00D1F9E10898252180
S1130AF000F0FEF90C90002811D1089800F007FAD4
S1130B000599021C08180590002A00D1E8E10B9809
S1130B1008990A9EB047002800D0E1E1CEE00C9F7E
S1130B20089C05993A1B8B180593002A0CD10C9844
S1130B300C9A437801321D1E252D0CD0002701216B
S1130B40BC460D97069119E00B9808990A9DA84791
S1130B500028ECD1B2E00C9A002102320124089260
S1130B60079106943DE02B2B0BDC202B10D0232B7C
S1130B7000D0BAE001239C46013213782B2BF2D12A
S1130B80ABE12D2B00D1A5E1302B00D0ADE004E08A
S1130B900D9D012DF0D00220A0E1069C002CEBD08D
S1130BA002200690E8E737680436FB43D80F9378B1
S1130BB002321C1C683C0021042C00D8C1E0DDB2C8
S1130BC06E2B00D0C7E0013208926E2D00D149E1AE
S1130BD000D900E1632D00D159E107D8252D00D0BB
S1130BE0F3E010AC25700996012619E0642D00D0BD
S1130BF0EEE0321D09923068032900D0F6E007992F
S1130C006646009601950291039790A9069A0D9B5A
S1130C10FFF78CFE041E00D13FE1634F6F443E1A80
S1130C20069800283CD02023022800D130236F46A8
S1130C303E373B7022782B2A04D02D2A02D0371C51
S1130C40202A0BD1371C302B08D10B98211C0122F0
S1130C500A9B9847002831D00134771E069902294F
S1130C600ED1612D01D0412D0AD1012F26DD0B9823
S1130C70211C02220A9DA84700281FD0023F0234EB
S1130C80351C079EB54209DA69460B983E310122AC
S1130C900A9B9847002811D00135F2E73E1C00E07A
S1130CA0351C002E03D10698002819D115E0211C0B
S1130CB00B98321C0A9CA0470028F4D1012255420B
S1130CC005950DE169463F3120240B9801220A9FC6
S1130CD00C70B8470028F1D00135079FBD42F1DB05
S1130CE0059A53190593099EFBE6171C2A2B00D07D
S1130CF0E1E0341D36680796002E03DA73420025BE
S1130D00079306957B780132261C284F0798B84232
S1130D1000DDC2E02E2B11D153782A2B00D142E7FB
S1130D20013200271C1C303C092C05D80A214F43F2
S1130D3001323F191378F5E701203AE70027381C00
S1130D4037E71B4D295D1B4D2C57002C00D136E78E
S1130D505378013233E76E2B0ADC632B2CD002DC90
S1130D60582B30D115E0642B13D0692B2BD110E014
S1130D70732B23D009DC6F2B0BD0702B23D10123D1
S1130D807825082703219C461DE7752B01D0782B75
S1130D9019D1002815D0069C022C00D013E701239A
S1130DA0069310E7BCFDFFFF3F020000FD010000B9
S1130DB0721000006D100000002804D1002902D137
S1130DC001E70127FFE6FF25FDE6582D65D116E072
S1130DD0692D62D10DE7732D23D002D86F2D5CD11C
S1130DE00DE0752D0BD0782D57D108E0022901D1E3
S1130DF000B204E7012900D001E740B2FFE6341D48
S1130E0009943068032906D0022901D180B202E096
S1130E10012900D1C0B2079E624600920195029654
S1130E20F2E63468311D0991002C00D12F4C634641
S1130E30002B07D026780134002800D1F0E6BE420A
S1130E4037DCEDE6002808D0201C61463A1C00F08F
S1130E5066F800282DD0061BE2E6201C00F057F8A7
S1130E60061CDDE6351D09953468022907D00329DF
S1130E700AD0002900D036E70598206033E76F4692
S1130E801421CB5B23802EE7059A22602BE733687D
S1130E90301D10AC09902370A6E60C9800F037F8CA
S1130EA0059E021C35180595002819D00B980C993D
S1130EB02FE63E1CB4E600240794191C3039092996
S1130EC000D922E7079D0A236B4301325818079083
S1130ED01378F2E7002706974EE601200D904BE6C3
S1130EE005989124A400A544F0BDC0466C100000F0
S1130EF000B5C9B20378421C002B03D08B4205D045
S1130F00101CF7E74B4259414942084000BD00B567
S1130F10431E01331A78002AFBD1181A00BD00B50C
S1130F20C9B28218904205D0037801308B42F9D1BE
S1130F30013800E0002000BD10B50B4C0B4B9C4267
S1130F4002D001CC8047F9E7094C0A48844202D018
S1130F5008CC9847F9E7084C08498C4202D004CCE5
S1130F609047F9E710BDC0467810000078100000E3
S1130F70781000007810000078100000781000004D
S1130F8010B5084C084B9C4202D004CC9047F9E7BA
S1130F90064C0748844203D0043C21688847F8E79C
S1130FA010BDC046781000007810000078100000D2
S1130FB078100000054B10B51C68002C04D0A06804
S1130FC0616888472468F8E710BDC04624F0FF1F15
S1130FD0054B181C002805D0854681B00020C0436D
S1130FE0009001B0F746704700300020F746704784
S1130FF000B588421FD0002A1DD00323194207D10F
S1131000184205D19A4203D908C9043A08C0F2E744
S11310100123194209D1184207D19A4205D90B88F4
S1131020023A038002310230E5E70B78013A03709B
S113103001310130DFE700BD38B50B4D002D11D073
S113104000242B191968002906D02B1958689A68AE
S1131050FFF7CEFF0C34F4E75A68002AF5D19868FC
S11310600028F2D138BDC04678100000000100000D
S10B107000010200000003006E
S11310787810000000F0FF1F0000000000000000CE
S10B108800000000000000005C
S90307F500
